{"abi":[{"inputs":[],"stateMutability":"nonpayable","type":"constructor"},{"inputs":[{"internalType":"string","name":"_header","type":"string"},{"internalType":"string","name":"_slogan","type":"string"}],"name":"addCandidate","outputs":[],"stateMutability":"nonpayable","type":"function"},{"inputs":[],"name":"admin","outputs":[{"internalType":"address","name":"","type":"address"}],"stateMutability":"view","type":"function"},{"inputs":[],"name":"candidateCount","outputs":[{"internalType":"uint256","name":"","type":"uint256"}],"stateMutability":"view","type":"function"},{"inputs":[{"internalType":"uint256","name":"","type":"uint256"}],"name":"candidateDetails","outputs":[{"internalType":"uint256","name":"candidateId","type":"uint256"},{"internalType":"string","name":"header","type":"string"},{"internalType":"string","name":"slogan","type":"string"},{"internalType":"uint256","name":"voteCount","type":"uint256"}],"stateMutability":"view","type":"function"},{"inputs":[],"name":"electionDetails","outputs":[{"internalType":"string","name":"adminName","type":"string"},{"internalType":"string","name":"adminEmail","type":"string"},{"internalType":"string","name":"adminTitle","type":"string"},{"internalType":"string","name":"electionTitle","type":"string"},{"internalType":"string","name":"organizationTitle","type":"string"}],"stateMutability":"view","type":"function"},{"inputs":[],"name":"end","outputs":[{"internalType":"bool","name":"","type":"bool"}],"stateMutability":"view","type":"function"},{"inputs":[],"name":"endElection","outputs":[],"stateMutability":"nonpayable","type":"function"},{"inputs":[],"name":"getAdmin","outputs":[{"internalType":"address","name":"","type":"address"}],"stateMutability":"view","type":"function"},{"inputs":[],"name":"getElectionDetails","outputs":[{"internalType":"string","name":"","type":"string"},{"internalType":"string","name":"","type":"string"},{"internalType":"string","name":"","type":"string"},{"internalType":"string","name":"","type":"string"},{"internalType":"string","name":"","type":"string"}],"stateMutability":"view","type":"function"},{"inputs":[],"name":"getEnd","outputs":[{"internalType":"bool","name":"","type":"bool"}],"stateMutability":"view","type":"function"},{"inputs":[],"name":"getStart","outputs":[{"internalType":"bool","name":"","type":"bool"}],"stateMutability":"view","type":"function"},{"inputs":[],"name":"getTotalCandidate","outputs":[{"internalType":"uint256","name":"","type":"uint256"}],"stateMutability":"view","type":"function"},{"inputs":[],"name":"getTotalVoter","outputs":[{"internalType":"uint256","name":"","type":"uint256"}],"stateMutability":"view","type":"function"},{"inputs":[{"internalType":"string","name":"_name","type":"string"},{"internalType":"string","name":"_phone","type":"string"}],"name":"registerAsVoter","outputs":[],"stateMutability":"nonpayable","type":"function"},{"inputs":[{"internalType":"string","name":"_adminName","type":"string"},{"internalType":"string","name":"_adminEmail","type":"string"},{"internalType":"string","name":"_adminTitle","type":"string"},{"internalType":"string","name":"_electionTitle","type":"string"},{"internalType":"string","name":"_organizationTitle","type":"string"}],"name":"setElectionDetails","outputs":[],"stateMutability":"nonpayable","type":"function"},{"inputs":[],"name":"start","outputs":[{"internalType":"bool","name":"","type":"bool"}],"stateMutability":"view","type":"function"},{"inputs":[{"internalType":"bool","name":"_verifiedStatus","type":"bool"},{"internalType":"address","name":"_voterAddress","type":"address"}],"name":"verifyVoter","outputs":[],"stateMutability":"nonpayable","type":"function"},{"inputs":[{"internalType":"uint256","name":"candidateId","type":"uint256"}],"name":"vote","outputs":[],"stateMutability":"nonpayable","type":"function"},{"inputs":[],"name":"voterCount","outputs":[{"internalType":"uint256","name":"","type":"uint256"}],"stateMutability":"view","type":"function"},{"inputs":[{"internalType":"address","name":"","type":"address"}],"name":"voterDetails","outputs":[{"internalType":"address","name":"voterAddress","type":"address"},{"internalType":"string","name":"name","type":"string"},{"internalType":"string","name":"phone","type":"string"},{"internalType":"bool","name":"isVerified","type":"bool"},{"internalType":"bool","name":"hasVoted","type":"bool"},{"internalType":"bool","name":"isRegistered","type":"bool"}],"stateMutability":"view","type":"function"},{"inputs":[{"internalType":"uint256","name":"","type":"uint256"}],"name":"voters","outputs":[{"internalType":"address","name":"","type":"address"}],"stateMutability":"view","type":"function"}],"devdoc":{"kind":"dev","methods":{},"version":1},"evm":{"assembly":"    /* \"Election.sol\":60:5073  contract Election {... */\n  mstore(0x40, 0x80)\n    /* \"Election.sol\":228:419  constructor() {... */\n  callvalue\n  dup1\n  iszero\n  tag_1\n  jumpi\n  0x00\n  dup1\n  revert\ntag_1:\n  pop\n    /* \"Election.sol\":301:311  msg.sender */\n  caller\n    /* \"Election.sol\":293:298  admin */\n  0x00\n  dup1\n    /* \"Election.sol\":293:311  admin = msg.sender */\n  0x0100\n  exp\n  dup2\n  sload\n  dup2\n  0xffffffffffffffffffffffffffffffffffffffff\n  mul\n  not\n  and\n  swap1\n  dup4\n  0xffffffffffffffffffffffffffffffffffffffff\n  and\n  mul\n  or\n  swap1\n  sstore\n  pop\n    /* \"Election.sol\":339:340  0 */\n  0x00\n    /* \"Election.sol\":322:336  candidateCount */\n  0x01\n    /* \"Election.sol\":322:340  candidateCount = 0 */\n  dup2\n  swap1\n  sstore\n  pop\n    /* \"Election.sol\":364:365  0 */\n  0x00\n    /* \"Election.sol\":351:361  voterCount */\n  0x02\n    /* \"Election.sol\":351:365  voterCount = 0 */\n  dup2\n  swap1\n  sstore\n  pop\n    /* \"Election.sol\":384:389  false */\n  0x00\n    /* \"Election.sol\":376:381  start */\n  0x03\n  0x00\n    /* \"Election.sol\":376:389  start = false */\n  0x0100\n  exp\n  dup2\n  sload\n  dup2\n  0xff\n  mul\n  not\n  and\n  swap1\n  dup4\n  iszero\n  iszero\n  mul\n  or\n  swap1\n  sstore\n  pop\n    /* \"Election.sol\":406:411  false */\n  0x00\n    /* \"Election.sol\":400:403  end */\n  0x03\n  0x01\n    /* \"Election.sol\":400:411  end = false */\n  0x0100\n  exp\n  dup2\n  sload\n  dup2\n  0xff\n  mul\n  not\n  and\n  swap1\n  dup4\n  iszero\n  iszero\n  mul\n  or\n  swap1\n  sstore\n  pop\n    /* \"Election.sol\":60:5073  contract Election {... */\n  dataSize(sub_0)\n  dup1\n  dataOffset(sub_0)\n  0x00\n  codecopy\n  0x00\n  return\nstop\n\nsub_0: assembly {\n        /* \"Election.sol\":60:5073  contract Election {... */\n      mstore(0x40, 0x80)\n      callvalue\n      dup1\n      iszero\n      tag_1\n      jumpi\n      0x00\n      dup1\n      revert\n    tag_1:\n      pop\n      jumpi(tag_2, lt(calldatasize, 0x04))\n      shr(0xe0, calldataload(0x00))\n      dup1\n      0x6d2f6966\n      gt\n      tag_24\n      jumpi\n      dup1\n      0xc5292c67\n      gt\n      tag_25\n      jumpi\n      dup1\n      0xc5292c67\n      eq\n      tag_18\n      jumpi\n      dup1\n      0xda58c7d9\n      eq\n      tag_19\n      jumpi\n      dup1\n      0xed836bc3\n      eq\n      tag_20\n      jumpi\n      dup1\n      0xefbe1c1c\n      eq\n      tag_21\n      jumpi\n      dup1\n      0xf851a440\n      eq\n      tag_22\n      jumpi\n      dup1\n      0xfee0d19a\n      eq\n      tag_23\n      jumpi\n      jump(tag_2)\n    tag_25:\n      dup1\n      0x6d2f6966\n      eq\n      tag_13\n      jumpi\n      dup1\n      0x6e9960c3\n      eq\n      tag_14\n      jumpi\n      dup1\n      0x9f05a36d\n      eq\n      tag_15\n      jumpi\n      dup1\n      0xa9a981a3\n      eq\n      tag_16\n      jumpi\n      dup1\n      0xbe9a6555\n      eq\n      tag_17\n      jumpi\n      jump(tag_2)\n    tag_24:\n      dup1\n      0x506b8e0a\n      gt\n      tag_26\n      jumpi\n      dup1\n      0x506b8e0a\n      eq\n      tag_8\n      jumpi\n      dup1\n      0x5938750d\n      eq\n      tag_9\n      jumpi\n      dup1\n      0x59f78468\n      eq\n      tag_10\n      jumpi\n      dup1\n      0x6247e532\n      eq\n      tag_11\n      jumpi\n      dup1\n      0x64d198a1\n      eq\n      tag_12\n      jumpi\n      jump(tag_2)\n    tag_26:\n      dup1\n      0x0121b93f\n      eq\n      tag_3\n      jumpi\n      dup1\n      0x0b93400e\n      eq\n      tag_4\n      jumpi\n      dup1\n      0x253e74e2\n      eq\n      tag_5\n      jumpi\n      dup1\n      0x26541b56\n      eq\n      tag_6\n      jumpi\n      dup1\n      0x42169e48\n      eq\n      tag_7\n      jumpi\n    tag_2:\n      0x00\n      dup1\n      revert\n        /* \"Election.sol\":4290:4738  function vote(uint256 candidateId) public {... */\n    tag_3:\n      tag_27\n      0x04\n      dup1\n      calldatasize\n      sub\n      dup2\n      add\n      swap1\n      tag_28\n      swap2\n      swap1\n      tag_29\n      jump\t// in\n    tag_28:\n      tag_30\n      jump\t// in\n    tag_27:\n      stop\n        /* \"Election.sol\":3034:3168  function getTotalVoter() public view returns (uint256) {... */\n    tag_4:\n      tag_31\n      tag_32\n      jump\t// in\n    tag_31:\n      mload(0x40)\n      tag_33\n      swap2\n      swap1\n      tag_34\n      jump\t// in\n    tag_33:\n      mload(0x40)\n      dup1\n      swap2\n      sub\n      swap1\n      return\n        /* \"Election.sol\":1754:2296  function setElectionDetails(... */\n    tag_5:\n      tag_35\n      0x04\n      dup1\n      calldatasize\n      sub\n      dup2\n      add\n      swap1\n      tag_36\n      swap2\n      swap1\n      tag_37\n      jump\t// in\n    tag_36:\n      tag_38\n      jump\t// in\n    tag_35:\n      stop\n        /* \"Election.sol\":1017:1479  function addCandidate(string memory _header, string memory _slogan)... */\n    tag_6:\n      tag_39\n      0x04\n      dup1\n      calldatasize\n      sub\n      dup2\n      add\n      swap1\n      tag_40\n      swap2\n      swap1\n      tag_41\n      jump\t// in\n    tag_40:\n      tag_42\n      jump\t// in\n    tag_39:\n      stop\n        /* \"Election.sol\":148:173  uint256 public voterCount */\n    tag_7:\n      tag_43\n      tag_44\n      jump\t// in\n    tag_43:\n      mload(0x40)\n      tag_45\n      swap2\n      swap1\n      tag_34\n      jump\t// in\n    tag_45:\n      mload(0x40)\n      dup1\n      swap2\n      sub\n      swap1\n      return\n        /* \"Election.sol\":4054:4269  function verifyVoter(bool _verifiedStatus, address _voterAddress)... */\n    tag_8:\n      tag_46\n      0x04\n      dup1\n      calldatasize\n      sub\n      dup2\n      add\n      swap1\n      tag_47\n      swap2\n      swap1\n      tag_48\n      jump\t// in\n    tag_47:\n      tag_49\n      jump\t// in\n    tag_46:\n      stop\n        /* \"Election.sol\":3461:3506  mapping(address => Voter) public voterDetails */\n    tag_9:\n      tag_50\n      0x04\n      dup1\n      calldatasize\n      sub\n      dup2\n      add\n      swap1\n      tag_51\n      swap2\n      swap1\n      tag_52\n      jump\t// in\n    tag_51:\n      tag_53\n      jump\t// in\n    tag_50:\n      mload(0x40)\n      tag_54\n      swap7\n      swap6\n      swap5\n      swap4\n      swap3\n      swap2\n      swap1\n      tag_55\n      jump\t// in\n    tag_54:\n      mload(0x40)\n      dup1\n      swap2\n      sub\n      swap1\n      return\n        /* \"Election.sol\":4767:4860  function endElection() public onlyAdmin {... */\n    tag_10:\n      tag_56\n      tag_57\n      jump\t// in\n    tag_56:\n      stop\n        /* \"Election.sol\":925:978  mapping(uint256 => Candidate) public candidateDetails */\n    tag_11:\n      tag_58\n      0x04\n      dup1\n      calldatasize\n      sub\n      dup2\n      add\n      swap1\n      tag_59\n      swap2\n      swap1\n      tag_29\n      jump\t// in\n    tag_59:\n      tag_60\n      jump\t// in\n    tag_58:\n      mload(0x40)\n      tag_61\n      swap5\n      swap4\n      swap3\n      swap2\n      swap1\n      tag_62\n      jump\t// in\n    tag_61:\n      mload(0x40)\n      dup1\n      swap2\n      sub\n      swap1\n      return\n        /* \"Election.sol\":2855:3001  function getTotalCandidate() public view returns (uint256) {... */\n    tag_12:\n      tag_63\n      tag_64\n      jump\t// in\n    tag_63:\n      mload(0x40)\n      tag_65\n      swap2\n      swap1\n      tag_34\n      jump\t// in\n    tag_65:\n      mload(0x40)\n      dup1\n      swap2\n      sub\n      swap1\n      return\n        /* \"Election.sol\":1707:1745  ElectionDetails public electionDetails */\n    tag_13:\n      tag_66\n      tag_67\n      jump\t// in\n    tag_66:\n      mload(0x40)\n      tag_68\n      swap6\n      swap5\n      swap4\n      swap3\n      swap2\n      swap1\n      tag_69\n      jump\t// in\n    tag_68:\n      mload(0x40)\n      dup1\n      swap2\n      sub\n      swap1\n      return\n        /* \"Election.sol\":427:582  function getAdmin() public view returns (address) {... */\n    tag_14:\n      tag_70\n      tag_71\n      jump\t// in\n    tag_70:\n      mload(0x40)\n      tag_72\n      swap2\n      swap1\n      tag_73\n      jump\t// in\n    tag_72:\n      mload(0x40)\n      dup1\n      swap2\n      sub\n      swap1\n      return\n        /* \"Election.sol\":4996:5070  function getEnd() public view returns (bool) {... */\n    tag_15:\n      tag_74\n      tag_75\n      jump\t// in\n    tag_74:\n      mload(0x40)\n      tag_76\n      swap2\n      swap1\n      tag_77\n      jump\t// in\n    tag_76:\n      mload(0x40)\n      dup1\n      swap2\n      sub\n      swap1\n      return\n        /* \"Election.sol\":112:141  uint256 public candidateCount */\n    tag_16:\n      tag_78\n      tag_79\n      jump\t// in\n    tag_78:\n      mload(0x40)\n      tag_80\n      swap2\n      swap1\n      tag_34\n      jump\t// in\n    tag_80:\n      mload(0x40)\n      dup1\n      swap2\n      sub\n      swap1\n      return\n        /* \"Election.sol\":180:197  bool public start */\n    tag_17:\n      tag_81\n      tag_82\n      jump\t// in\n    tag_81:\n      mload(0x40)\n      tag_83\n      swap2\n      swap1\n      tag_77\n      jump\t// in\n    tag_83:\n      mload(0x40)\n      dup1\n      swap2\n      sub\n      swap1\n      return\n        /* \"Election.sol\":4910:4988  function getStart() public view returns (bool) {... */\n    tag_18:\n      tag_84\n      tag_85\n      jump\t// in\n    tag_84:\n      mload(0x40)\n      tag_86\n      swap2\n      swap1\n      tag_77\n      jump\t// in\n    tag_86:\n      mload(0x40)\n      dup1\n      swap2\n      sub\n      swap1\n      return\n        /* \"Election.sol\":3382:3405  address[] public voters */\n    tag_19:\n      tag_87\n      0x04\n      dup1\n      calldatasize\n      sub\n      dup2\n      add\n      swap1\n      tag_88\n      swap2\n      swap1\n      tag_29\n      jump\t// in\n    tag_88:\n      tag_89\n      jump\t// in\n    tag_87:\n      mload(0x40)\n      tag_90\n      swap2\n      swap1\n      tag_73\n      jump\t// in\n    tag_90:\n      mload(0x40)\n      dup1\n      swap2\n      sub\n      swap1\n      return\n        /* \"Election.sol\":2333:2818  function getElectionDetails()... */\n    tag_20:\n      tag_91\n      tag_92\n      jump\t// in\n    tag_91:\n      mload(0x40)\n      tag_93\n      swap6\n      swap5\n      swap4\n      swap3\n      swap2\n      swap1\n      tag_69\n      jump\t// in\n    tag_93:\n      mload(0x40)\n      dup1\n      swap2\n      sub\n      swap1\n      return\n        /* \"Election.sol\":204:219  bool public end */\n    tag_21:\n      tag_94\n      tag_95\n      jump\t// in\n    tag_94:\n      mload(0x40)\n      tag_96\n      swap2\n      swap1\n      tag_77\n      jump\t// in\n    tag_96:\n      mload(0x40)\n      dup1\n      swap2\n      sub\n      swap1\n      return\n        /* \"Election.sol\":85:105  address public admin */\n    tag_22:\n      tag_97\n      tag_98\n      jump\t// in\n    tag_97:\n      mload(0x40)\n      tag_99\n      swap2\n      swap1\n      tag_73\n      jump\t// in\n    tag_99:\n      mload(0x40)\n      dup1\n      swap2\n      sub\n      swap1\n      return\n        /* \"Election.sol\":3554:4025  function registerAsVoter(string memory _name, string memory _phone) public {... */\n    tag_23:\n      tag_100\n      0x04\n      dup1\n      calldatasize\n      sub\n      dup2\n      add\n      swap1\n      tag_101\n      swap2\n      swap1\n      tag_41\n      jump\t// in\n    tag_101:\n      tag_102\n      jump\t// in\n    tag_100:\n      stop\n        /* \"Election.sol\":4290:4738  function vote(uint256 candidateId) public {... */\n    tag_30:\n        /* \"Election.sol\":4388:4393  false */\n      0x00\n        /* \"Election.sol\":4351:4393  voterDetails[msg.sender].hasVoted == false */\n      iszero\n      iszero\n        /* \"Election.sol\":4351:4363  voterDetails */\n      0x0b\n        /* \"Election.sol\":4351:4375  voterDetails[msg.sender] */\n      0x00\n        /* \"Election.sol\":4364:4374  msg.sender */\n      caller\n        /* \"Election.sol\":4351:4375  voterDetails[msg.sender] */\n      0xffffffffffffffffffffffffffffffffffffffff\n      and\n      0xffffffffffffffffffffffffffffffffffffffff\n      and\n      dup2\n      mstore\n      0x20\n      add\n      swap1\n      dup2\n      mstore\n      0x20\n      add\n      0x00\n      keccak256\n        /* \"Election.sol\":4351:4384  voterDetails[msg.sender].hasVoted */\n      0x03\n      add\n      0x01\n      swap1\n      sload\n      swap1\n      0x0100\n      exp\n      swap1\n      div\n      0xff\n      and\n        /* \"Election.sol\":4351:4393  voterDetails[msg.sender].hasVoted == false */\n      iszero\n      iszero\n      eq\n        /* \"Election.sol\":4343:4421  require(voterDetails[msg.sender].hasVoted == false, \"Voter has already voted\") */\n      tag_104\n      jumpi\n      mload(0x40)\n      0x08c379a000000000000000000000000000000000000000000000000000000000\n      dup2\n      mstore\n      0x04\n      add\n      tag_105\n      swap1\n      tag_106\n      jump\t// in\n    tag_105:\n      mload(0x40)\n      dup1\n      swap2\n      sub\n      swap1\n      revert\n    tag_104:\n        /* \"Election.sol\":4479:4483  true */\n      0x01\n        /* \"Election.sol\":4440:4483  voterDetails[msg.sender].isVerified == true */\n      iszero\n      iszero\n        /* \"Election.sol\":4440:4452  voterDetails */\n      0x0b\n        /* \"Election.sol\":4440:4464  voterDetails[msg.sender] */\n      0x00\n        /* \"Election.sol\":4453:4463  msg.sender */\n      caller\n        /* \"Election.sol\":4440:4464  voterDetails[msg.sender] */\n      0xffffffffffffffffffffffffffffffffffffffff\n      and\n      0xffffffffffffffffffffffffffffffffffffffff\n      and\n      dup2\n      mstore\n      0x20\n      add\n      swap1\n      dup2\n      mstore\n      0x20\n      add\n      0x00\n      keccak256\n        /* \"Election.sol\":4440:4475  voterDetails[msg.sender].isVerified */\n      0x03\n      add\n      0x00\n      swap1\n      sload\n      swap1\n      0x0100\n      exp\n      swap1\n      div\n      0xff\n      and\n        /* \"Election.sol\":4440:4483  voterDetails[msg.sender].isVerified == true */\n      iszero\n      iszero\n      eq\n        /* \"Election.sol\":4432:4509  require(voterDetails[msg.sender].isVerified == true, \"Voter is not verified\") */\n      tag_107\n      jumpi\n      mload(0x40)\n      0x08c379a000000000000000000000000000000000000000000000000000000000\n      dup2\n      mstore\n      0x04\n      add\n      tag_108\n      swap1\n      tag_109\n      jump\t// in\n    tag_108:\n      mload(0x40)\n      dup1\n      swap2\n      sub\n      swap1\n      revert\n    tag_107:\n        /* \"Election.sol\":4537:4541  true */\n      0x01\n        /* \"Election.sol\":4528:4541  start == true */\n      iszero\n      iszero\n        /* \"Election.sol\":4528:4533  start */\n      0x03\n      0x00\n      swap1\n      sload\n      swap1\n      0x0100\n      exp\n      swap1\n      div\n      0xff\n      and\n        /* \"Election.sol\":4528:4541  start == true */\n      iszero\n      iszero\n      eq\n        /* \"Election.sol\":4520:4570  require(start == true, \"Election has not started\") */\n      tag_110\n      jumpi\n      mload(0x40)\n      0x08c379a000000000000000000000000000000000000000000000000000000000\n      dup2\n      mstore\n      0x04\n      add\n      tag_111\n      swap1\n      tag_112\n      jump\t// in\n    tag_111:\n      mload(0x40)\n      dup1\n      swap2\n      sub\n      swap1\n      revert\n    tag_110:\n        /* \"Election.sol\":4596:4601  false */\n      0x00\n        /* \"Election.sol\":4589:4601  end == false */\n      iszero\n      iszero\n        /* \"Election.sol\":4589:4592  end */\n      0x03\n      0x01\n      swap1\n      sload\n      swap1\n      0x0100\n      exp\n      swap1\n      div\n      0xff\n      and\n        /* \"Election.sol\":4589:4601  end == false */\n      iszero\n      iszero\n      eq\n        /* \"Election.sol\":4581:4624  require(end == false, \"Election has ended\") */\n      tag_113\n      jumpi\n      mload(0x40)\n      0x08c379a000000000000000000000000000000000000000000000000000000000\n      dup2\n      mstore\n      0x04\n      add\n      tag_114\n      swap1\n      tag_115\n      jump\t// in\n    tag_114:\n      mload(0x40)\n      dup1\n      swap2\n      sub\n      swap1\n      revert\n    tag_113:\n        /* \"Election.sol\":4678:4679  1 */\n      0x01\n        /* \"Election.sol\":4635:4651  candidateDetails */\n      0x04\n        /* \"Election.sol\":4635:4664  candidateDetails[candidateId] */\n      0x00\n        /* \"Election.sol\":4652:4663  candidateId */\n      dup4\n        /* \"Election.sol\":4635:4664  candidateDetails[candidateId] */\n      dup2\n      mstore\n      0x20\n      add\n      swap1\n      dup2\n      mstore\n      0x20\n      add\n      0x00\n      keccak256\n        /* \"Election.sol\":4635:4674  candidateDetails[candidateId].voteCount */\n      0x03\n      add\n      0x00\n        /* \"Election.sol\":4635:4679  candidateDetails[candidateId].voteCount += 1 */\n      dup3\n      dup3\n      sload\n      tag_116\n      swap2\n      swap1\n      tag_117\n      jump\t// in\n    tag_116:\n      swap3\n      pop\n      pop\n      dup2\n      swap1\n      sstore\n      pop\n        /* \"Election.sol\":4726:4730  true */\n      0x01\n        /* \"Election.sol\":4690:4702  voterDetails */\n      0x0b\n        /* \"Election.sol\":4690:4714  voterDetails[msg.sender] */\n      0x00\n        /* \"Election.sol\":4703:4713  msg.sender */\n      caller\n        /* \"Election.sol\":4690:4714  voterDetails[msg.sender] */\n      0xffffffffffffffffffffffffffffffffffffffff\n      and\n      0xffffffffffffffffffffffffffffffffffffffff\n      and\n      dup2\n      mstore\n      0x20\n      add\n      swap1\n      dup2\n      mstore\n      0x20\n      add\n      0x00\n      keccak256\n        /* \"Election.sol\":4690:4723  voterDetails[msg.sender].hasVoted */\n      0x03\n      add\n      0x01\n        /* \"Election.sol\":4690:4730  voterDetails[msg.sender].hasVoted = true */\n      0x0100\n      exp\n      dup2\n      sload\n      dup2\n      0xff\n      mul\n      not\n      and\n      swap1\n      dup4\n      iszero\n      iszero\n      mul\n      or\n      swap1\n      sstore\n      pop\n        /* \"Election.sol\":4290:4738  function vote(uint256 candidateId) public {... */\n      pop\n      jump\t// out\n        /* \"Election.sol\":3034:3168  function getTotalVoter() public view returns (uint256) {... */\n    tag_32:\n        /* \"Election.sol\":3080:3087  uint256 */\n      0x00\n        /* \"Election.sol\":3150:3160  voterCount */\n      sload(0x02)\n        /* \"Election.sol\":3143:3160  return voterCount */\n      swap1\n      pop\n        /* \"Election.sol\":3034:3168  function getTotalVoter() public view returns (uint256) {... */\n      swap1\n      jump\t// out\n        /* \"Election.sol\":1754:2296  function setElectionDetails(... */\n    tag_38:\n        /* \"Election.sol\":687:692  admin */\n      0x00\n      dup1\n      sload\n      swap1\n      0x0100\n      exp\n      swap1\n      div\n      0xffffffffffffffffffffffffffffffffffffffff\n      and\n        /* \"Election.sol\":673:692  msg.sender == admin */\n      0xffffffffffffffffffffffffffffffffffffffff\n      and\n        /* \"Election.sol\":673:683  msg.sender */\n      caller\n        /* \"Election.sol\":673:692  msg.sender == admin */\n      0xffffffffffffffffffffffffffffffffffffffff\n      and\n      eq\n        /* \"Election.sol\":665:731  require(msg.sender == admin, \"Only admin can perform this action\") */\n      tag_120\n      jumpi\n      mload(0x40)\n      0x08c379a000000000000000000000000000000000000000000000000000000000\n      dup2\n      mstore\n      0x04\n      add\n      tag_121\n      swap1\n      tag_122\n      jump\t// in\n    tag_121:\n      mload(0x40)\n      dup1\n      swap2\n      sub\n      swap1\n      revert\n    tag_120:\n        /* \"Election.sol\":2078:2243  ElectionDetails(... */\n      mload(0x40)\n      dup1\n      0xa0\n      add\n      0x40\n      mstore\n      dup1\n        /* \"Election.sol\":2108:2118  _adminName */\n      dup7\n        /* \"Election.sol\":2078:2243  ElectionDetails(... */\n      dup2\n      mstore\n      0x20\n      add\n        /* \"Election.sol\":2133:2144  _adminEmail */\n      dup6\n        /* \"Election.sol\":2078:2243  ElectionDetails(... */\n      dup2\n      mstore\n      0x20\n      add\n        /* \"Election.sol\":2159:2170  _adminTitle */\n      dup5\n        /* \"Election.sol\":2078:2243  ElectionDetails(... */\n      dup2\n      mstore\n      0x20\n      add\n        /* \"Election.sol\":2185:2199  _electionTitle */\n      dup4\n        /* \"Election.sol\":2078:2243  ElectionDetails(... */\n      dup2\n      mstore\n      0x20\n      add\n        /* \"Election.sol\":2214:2232  _organizationTitle */\n      dup3\n        /* \"Election.sol\":2078:2243  ElectionDetails(... */\n      dup2\n      mstore\n      pop\n        /* \"Election.sol\":2060:2075  electionDetails */\n      0x05\n        /* \"Election.sol\":2060:2243  electionDetails = ElectionDetails(... */\n      0x00\n      dup3\n      add\n      mload\n      dup2\n      0x00\n      add\n      swap1\n      dup1\n      mload\n      swap1\n      0x20\n      add\n      swap1\n      tag_124\n      swap3\n      swap2\n      swap1\n      tag_125\n      jump\t// in\n    tag_124:\n      pop\n      0x20\n      dup3\n      add\n      mload\n      dup2\n      0x01\n      add\n      swap1\n      dup1\n      mload\n      swap1\n      0x20\n      add\n      swap1\n      tag_126\n      swap3\n      swap2\n      swap1\n      tag_125\n      jump\t// in\n    tag_126:\n      pop\n      0x40\n      dup3\n      add\n      mload\n      dup2\n      0x02\n      add\n      swap1\n      dup1\n      mload\n      swap1\n      0x20\n      add\n      swap1\n      tag_127\n      swap3\n      swap2\n      swap1\n      tag_125\n      jump\t// in\n    tag_127:\n      pop\n      0x60\n      dup3\n      add\n      mload\n      dup2\n      0x03\n      add\n      swap1\n      dup1\n      mload\n      swap1\n      0x20\n      add\n      swap1\n      tag_128\n      swap3\n      swap2\n      swap1\n      tag_125\n      jump\t// in\n    tag_128:\n      pop\n      0x80\n      dup3\n      add\n      mload\n      dup2\n      0x04\n      add\n      swap1\n      dup1\n      mload\n      swap1\n      0x20\n      add\n      swap1\n      tag_129\n      swap3\n      swap2\n      swap1\n      tag_125\n      jump\t// in\n    tag_129:\n      pop\n      swap1\n      pop\n      pop\n        /* \"Election.sol\":2262:2266  true */\n      0x01\n        /* \"Election.sol\":2254:2259  start */\n      0x03\n      0x00\n        /* \"Election.sol\":2254:2266  start = true */\n      0x0100\n      exp\n      dup2\n      sload\n      dup2\n      0xff\n      mul\n      not\n      and\n      swap1\n      dup4\n      iszero\n      iszero\n      mul\n      or\n      swap1\n      sstore\n      pop\n        /* \"Election.sol\":2283:2288  false */\n      0x00\n        /* \"Election.sol\":2277:2280  end */\n      0x03\n      0x01\n        /* \"Election.sol\":2277:2288  end = false */\n      0x0100\n      exp\n      dup2\n      sload\n      dup2\n      0xff\n      mul\n      not\n      and\n      swap1\n      dup4\n      iszero\n      iszero\n      mul\n      or\n      swap1\n      sstore\n      pop\n        /* \"Election.sol\":1754:2296  function setElectionDetails(... */\n      pop\n      pop\n      pop\n      pop\n      pop\n      jump\t// out\n        /* \"Election.sol\":1017:1479  function addCandidate(string memory _header, string memory _slogan)... */\n    tag_42:\n        /* \"Election.sol\":687:692  admin */\n      0x00\n      dup1\n      sload\n      swap1\n      0x0100\n      exp\n      swap1\n      div\n      0xffffffffffffffffffffffffffffffffffffffff\n      and\n        /* \"Election.sol\":673:692  msg.sender == admin */\n      0xffffffffffffffffffffffffffffffffffffffff\n      and\n        /* \"Election.sol\":673:683  msg.sender */\n      caller\n        /* \"Election.sol\":673:692  msg.sender == admin */\n      0xffffffffffffffffffffffffffffffffffffffff\n      and\n      eq\n        /* \"Election.sol\":665:731  require(msg.sender == admin, \"Only admin can perform this action\") */\n      tag_131\n      jumpi\n      mload(0x40)\n      0x08c379a000000000000000000000000000000000000000000000000000000000\n      dup2\n      mstore\n      0x04\n      add\n      tag_132\n      swap1\n      tag_122\n      jump\t// in\n    tag_132:\n      mload(0x40)\n      dup1\n      swap2\n      sub\n      swap1\n      revert\n    tag_131:\n        /* \"Election.sol\":1167:1196  Candidate memory newCandidate */\n      0x00\n        /* \"Election.sol\":1212:1383  Candidate({... */\n      mload(0x40)\n      dup1\n      0x80\n      add\n      0x40\n      mstore\n      dup1\n        /* \"Election.sol\":1254:1268  candidateCount */\n      sload(0x01)\n        /* \"Election.sol\":1212:1383  Candidate({... */\n      dup2\n      mstore\n      0x20\n      add\n        /* \"Election.sol\":1295:1302  _header */\n      dup5\n        /* \"Election.sol\":1212:1383  Candidate({... */\n      dup2\n      mstore\n      0x20\n      add\n        /* \"Election.sol\":1329:1336  _slogan */\n      dup4\n        /* \"Election.sol\":1212:1383  Candidate({... */\n      dup2\n      mstore\n      0x20\n      add\n        /* \"Election.sol\":1366:1367  0 */\n      0x00\n        /* \"Election.sol\":1212:1383  Candidate({... */\n      dup2\n      mstore\n      pop\n        /* \"Election.sol\":1167:1383  Candidate memory newCandidate =... */\n      swap1\n      pop\n        /* \"Election.sol\":1429:1441  newCandidate */\n      dup1\n        /* \"Election.sol\":1394:1410  candidateDetails */\n      0x04\n        /* \"Election.sol\":1394:1426  candidateDetails[candidateCount] */\n      0x00\n        /* \"Election.sol\":1411:1425  candidateCount */\n      sload(0x01)\n        /* \"Election.sol\":1394:1426  candidateDetails[candidateCount] */\n      dup2\n      mstore\n      0x20\n      add\n      swap1\n      dup2\n      mstore\n      0x20\n      add\n      0x00\n      keccak256\n        /* \"Election.sol\":1394:1441  candidateDetails[candidateCount] = newCandidate */\n      0x00\n      dup3\n      add\n      mload\n      dup2\n      0x00\n      add\n      sstore\n      0x20\n      dup3\n      add\n      mload\n      dup2\n      0x01\n      add\n      swap1\n      dup1\n      mload\n      swap1\n      0x20\n      add\n      swap1\n      tag_134\n      swap3\n      swap2\n      swap1\n      tag_125\n      jump\t// in\n    tag_134:\n      pop\n      0x40\n      dup3\n      add\n      mload\n      dup2\n      0x02\n      add\n      swap1\n      dup1\n      mload\n      swap1\n      0x20\n      add\n      swap1\n      tag_135\n      swap3\n      swap2\n      swap1\n      tag_125\n      jump\t// in\n    tag_135:\n      pop\n      0x60\n      dup3\n      add\n      mload\n      dup2\n      0x03\n      add\n      sstore\n      swap1\n      pop\n      pop\n        /* \"Election.sol\":1470:1471  1 */\n      0x01\n        /* \"Election.sol\":1452:1466  candidateCount */\n      dup1\n      0x00\n        /* \"Election.sol\":1452:1471  candidateCount += 1 */\n      dup3\n      dup3\n      sload\n      tag_136\n      swap2\n      swap1\n      tag_117\n      jump\t// in\n    tag_136:\n      swap3\n      pop\n      pop\n      dup2\n      swap1\n      sstore\n      pop\n        /* \"Election.sol\":1156:1479  {... */\n      pop\n        /* \"Election.sol\":1017:1479  function addCandidate(string memory _header, string memory _slogan)... */\n      pop\n      pop\n      jump\t// out\n        /* \"Election.sol\":148:173  uint256 public voterCount */\n    tag_44:\n      sload(0x02)\n      dup2\n      jump\t// out\n        /* \"Election.sol\":4054:4269  function verifyVoter(bool _verifiedStatus, address _voterAddress)... */\n    tag_49:\n        /* \"Election.sol\":687:692  admin */\n      0x00\n      dup1\n      sload\n      swap1\n      0x0100\n      exp\n      swap1\n      div\n      0xffffffffffffffffffffffffffffffffffffffff\n      and\n        /* \"Election.sol\":673:692  msg.sender == admin */\n      0xffffffffffffffffffffffffffffffffffffffff\n      and\n        /* \"Election.sol\":673:683  msg.sender */\n      caller\n        /* \"Election.sol\":673:692  msg.sender == admin */\n      0xffffffffffffffffffffffffffffffffffffffff\n      and\n      eq\n        /* \"Election.sol\":665:731  require(msg.sender == admin, \"Only admin can perform this action\") */\n      tag_138\n      jumpi\n      mload(0x40)\n      0x08c379a000000000000000000000000000000000000000000000000000000000\n      dup2\n      mstore\n      0x04\n      add\n      tag_139\n      swap1\n      tag_122\n      jump\t// in\n    tag_139:\n      mload(0x40)\n      dup1\n      swap2\n      sub\n      swap1\n      revert\n    tag_138:\n        /* \"Election.sol\":4246:4261  _verifiedStatus */\n      dup2\n        /* \"Election.sol\":4205:4217  voterDetails */\n      0x0b\n        /* \"Election.sol\":4205:4232  voterDetails[_voterAddress] */\n      0x00\n        /* \"Election.sol\":4218:4231  _voterAddress */\n      dup4\n        /* \"Election.sol\":4205:4232  voterDetails[_voterAddress] */\n      0xffffffffffffffffffffffffffffffffffffffff\n      and\n      0xffffffffffffffffffffffffffffffffffffffff\n      and\n      dup2\n      mstore\n      0x20\n      add\n      swap1\n      dup2\n      mstore\n      0x20\n      add\n      0x00\n      keccak256\n        /* \"Election.sol\":4205:4243  voterDetails[_voterAddress].isVerified */\n      0x03\n      add\n      0x00\n        /* \"Election.sol\":4205:4261  voterDetails[_voterAddress].isVerified = _verifiedStatus */\n      0x0100\n      exp\n      dup2\n      sload\n      dup2\n      0xff\n      mul\n      not\n      and\n      swap1\n      dup4\n      iszero\n      iszero\n      mul\n      or\n      swap1\n      sstore\n      pop\n        /* \"Election.sol\":4054:4269  function verifyVoter(bool _verifiedStatus, address _voterAddress)... */\n      pop\n      pop\n      jump\t// out\n        /* \"Election.sol\":3461:3506  mapping(address => Voter) public voterDetails */\n    tag_53:\n      mstore(0x20, 0x0b)\n      dup1\n      0x00\n      mstore\n      keccak256(0x00, 0x40)\n      0x00\n      swap2\n      pop\n      swap1\n      pop\n      dup1\n      0x00\n      add\n      0x00\n      swap1\n      sload\n      swap1\n      0x0100\n      exp\n      swap1\n      div\n      0xffffffffffffffffffffffffffffffffffffffff\n      and\n      swap1\n      dup1\n      0x01\n      add\n      dup1\n      sload\n      tag_141\n      swap1\n      tag_142\n      jump\t// in\n    tag_141:\n      dup1\n      0x1f\n      add\n      0x20\n      dup1\n      swap2\n      div\n      mul\n      0x20\n      add\n      mload(0x40)\n      swap1\n      dup2\n      add\n      0x40\n      mstore\n      dup1\n      swap3\n      swap2\n      swap1\n      dup2\n      dup2\n      mstore\n      0x20\n      add\n      dup3\n      dup1\n      sload\n      tag_143\n      swap1\n      tag_142\n      jump\t// in\n    tag_143:\n      dup1\n      iszero\n      tag_144\n      jumpi\n      dup1\n      0x1f\n      lt\n      tag_145\n      jumpi\n      0x0100\n      dup1\n      dup4\n      sload\n      div\n      mul\n      dup4\n      mstore\n      swap2\n      0x20\n      add\n      swap2\n      jump(tag_144)\n    tag_145:\n      dup3\n      add\n      swap2\n      swap1\n      0x00\n      mstore\n      keccak256(0x00, 0x20)\n      swap1\n    tag_146:\n      dup2\n      sload\n      dup2\n      mstore\n      swap1\n      0x01\n      add\n      swap1\n      0x20\n      add\n      dup1\n      dup4\n      gt\n      tag_146\n      jumpi\n      dup3\n      swap1\n      sub\n      0x1f\n      and\n      dup3\n      add\n      swap2\n    tag_144:\n      pop\n      pop\n      pop\n      pop\n      pop\n      swap1\n      dup1\n      0x02\n      add\n      dup1\n      sload\n      tag_147\n      swap1\n      tag_142\n      jump\t// in\n    tag_147:\n      dup1\n      0x1f\n      add\n      0x20\n      dup1\n      swap2\n      div\n      mul\n      0x20\n      add\n      mload(0x40)\n      swap1\n      dup2\n      add\n      0x40\n      mstore\n      dup1\n      swap3\n      swap2\n      swap1\n      dup2\n      dup2\n      mstore\n      0x20\n      add\n      dup3\n      dup1\n      sload\n      tag_148\n      swap1\n      tag_142\n      jump\t// in\n    tag_148:\n      dup1\n      iszero\n      tag_149\n      jumpi\n      dup1\n      0x1f\n      lt\n      tag_150\n      jumpi\n      0x0100\n      dup1\n      dup4\n      sload\n      div\n      mul\n      dup4\n      mstore\n      swap2\n      0x20\n      add\n      swap2\n      jump(tag_149)\n    tag_150:\n      dup3\n      add\n      swap2\n      swap1\n      0x00\n      mstore\n      keccak256(0x00, 0x20)\n      swap1\n    tag_151:\n      dup2\n      sload\n      dup2\n      mstore\n      swap1\n      0x01\n      add\n      swap1\n      0x20\n      add\n      dup1\n      dup4\n      gt\n      tag_151\n      jumpi\n      dup3\n      swap1\n      sub\n      0x1f\n      and\n      dup3\n      add\n      swap2\n    tag_149:\n      pop\n      pop\n      pop\n      pop\n      pop\n      swap1\n      dup1\n      0x03\n      add\n      0x00\n      swap1\n      sload\n      swap1\n      0x0100\n      exp\n      swap1\n      div\n      0xff\n      and\n      swap1\n      dup1\n      0x03\n      add\n      0x01\n      swap1\n      sload\n      swap1\n      0x0100\n      exp\n      swap1\n      div\n      0xff\n      and\n      swap1\n      dup1\n      0x03\n      add\n      0x02\n      swap1\n      sload\n      swap1\n      0x0100\n      exp\n      swap1\n      div\n      0xff\n      and\n      swap1\n      pop\n      dup7\n      jump\t// out\n        /* \"Election.sol\":4767:4860  function endElection() public onlyAdmin {... */\n    tag_57:\n        /* \"Election.sol\":687:692  admin */\n      0x00\n      dup1\n      sload\n      swap1\n      0x0100\n      exp\n      swap1\n      div\n      0xffffffffffffffffffffffffffffffffffffffff\n      and\n        /* \"Election.sol\":673:692  msg.sender == admin */\n      0xffffffffffffffffffffffffffffffffffffffff\n      and\n        /* \"Election.sol\":673:683  msg.sender */\n      caller\n        /* \"Election.sol\":673:692  msg.sender == admin */\n      0xffffffffffffffffffffffffffffffffffffffff\n      and\n      eq\n        /* \"Election.sol\":665:731  require(msg.sender == admin, \"Only admin can perform this action\") */\n      tag_153\n      jumpi\n      mload(0x40)\n      0x08c379a000000000000000000000000000000000000000000000000000000000\n      dup2\n      mstore\n      0x04\n      add\n      tag_154\n      swap1\n      tag_122\n      jump\t// in\n    tag_154:\n      mload(0x40)\n      dup1\n      swap2\n      sub\n      swap1\n      revert\n    tag_153:\n        /* \"Election.sol\":4824:4828  true */\n      0x01\n        /* \"Election.sol\":4818:4821  end */\n      0x03\n      0x01\n        /* \"Election.sol\":4818:4828  end = true */\n      0x0100\n      exp\n      dup2\n      sload\n      dup2\n      0xff\n      mul\n      not\n      and\n      swap1\n      dup4\n      iszero\n      iszero\n      mul\n      or\n      swap1\n      sstore\n      pop\n        /* \"Election.sol\":4847:4852  false */\n      0x00\n        /* \"Election.sol\":4839:4844  start */\n      0x03\n      0x00\n        /* \"Election.sol\":4839:4852  start = false */\n      0x0100\n      exp\n      dup2\n      sload\n      dup2\n      0xff\n      mul\n      not\n      and\n      swap1\n      dup4\n      iszero\n      iszero\n      mul\n      or\n      swap1\n      sstore\n      pop\n        /* \"Election.sol\":4767:4860  function endElection() public onlyAdmin {... */\n      jump\t// out\n        /* \"Election.sol\":925:978  mapping(uint256 => Candidate) public candidateDetails */\n    tag_60:\n      mstore(0x20, 0x04)\n      dup1\n      0x00\n      mstore\n      keccak256(0x00, 0x40)\n      0x00\n      swap2\n      pop\n      swap1\n      pop\n      dup1\n      0x00\n      add\n      sload\n      swap1\n      dup1\n      0x01\n      add\n      dup1\n      sload\n      tag_156\n      swap1\n      tag_142\n      jump\t// in\n    tag_156:\n      dup1\n      0x1f\n      add\n      0x20\n      dup1\n      swap2\n      div\n      mul\n      0x20\n      add\n      mload(0x40)\n      swap1\n      dup2\n      add\n      0x40\n      mstore\n      dup1\n      swap3\n      swap2\n      swap1\n      dup2\n      dup2\n      mstore\n      0x20\n      add\n      dup3\n      dup1\n      sload\n      tag_157\n      swap1\n      tag_142\n      jump\t// in\n    tag_157:\n      dup1\n      iszero\n      tag_158\n      jumpi\n      dup1\n      0x1f\n      lt\n      tag_159\n      jumpi\n      0x0100\n      dup1\n      dup4\n      sload\n      div\n      mul\n      dup4\n      mstore\n      swap2\n      0x20\n      add\n      swap2\n      jump(tag_158)\n    tag_159:\n      dup3\n      add\n      swap2\n      swap1\n      0x00\n      mstore\n      keccak256(0x00, 0x20)\n      swap1\n    tag_160:\n      dup2\n      sload\n      dup2\n      mstore\n      swap1\n      0x01\n      add\n      swap1\n      0x20\n      add\n      dup1\n      dup4\n      gt\n      tag_160\n      jumpi\n      dup3\n      swap1\n      sub\n      0x1f\n      and\n      dup3\n      add\n      swap2\n    tag_158:\n      pop\n      pop\n      pop\n      pop\n      pop\n      swap1\n      dup1\n      0x02\n      add\n      dup1\n      sload\n      tag_161\n      swap1\n      tag_142\n      jump\t// in\n    tag_161:\n      dup1\n      0x1f\n      add\n      0x20\n      dup1\n      swap2\n      div\n      mul\n      0x20\n      add\n      mload(0x40)\n      swap1\n      dup2\n      add\n      0x40\n      mstore\n      dup1\n      swap3\n      swap2\n      swap1\n      dup2\n      dup2\n      mstore\n      0x20\n      add\n      dup3\n      dup1\n      sload\n      tag_162\n      swap1\n      tag_142\n      jump\t// in\n    tag_162:\n      dup1\n      iszero\n      tag_163\n      jumpi\n      dup1\n      0x1f\n      lt\n      tag_164\n      jumpi\n      0x0100\n      dup1\n      dup4\n      sload\n      div\n      mul\n      dup4\n      mstore\n      swap2\n      0x20\n      add\n      swap2\n      jump(tag_163)\n    tag_164:\n      dup3\n      add\n      swap2\n      swap1\n      0x00\n      mstore\n      keccak256(0x00, 0x20)\n      swap1\n    tag_165:\n      dup2\n      sload\n      dup2\n      mstore\n      swap1\n      0x01\n      add\n      swap1\n      0x20\n      add\n      dup1\n      dup4\n      gt\n      tag_165\n      jumpi\n      dup3\n      swap1\n      sub\n      0x1f\n      and\n      dup3\n      add\n      swap2\n    tag_163:\n      pop\n      pop\n      pop\n      pop\n      pop\n      swap1\n      dup1\n      0x03\n      add\n      sload\n      swap1\n      pop\n      dup5\n      jump\t// out\n        /* \"Election.sol\":2855:3001  function getTotalCandidate() public view returns (uint256) {... */\n    tag_64:\n        /* \"Election.sol\":2905:2912  uint256 */\n      0x00\n        /* \"Election.sol\":2979:2993  candidateCount */\n      sload(0x01)\n        /* \"Election.sol\":2972:2993  return candidateCount */\n      swap1\n      pop\n        /* \"Election.sol\":2855:3001  function getTotalCandidate() public view returns (uint256) {... */\n      swap1\n      jump\t// out\n        /* \"Election.sol\":1707:1745  ElectionDetails public electionDetails */\n    tag_67:\n      0x05\n      dup1\n      0x00\n      add\n      dup1\n      sload\n      tag_167\n      swap1\n      tag_142\n      jump\t// in\n    tag_167:\n      dup1\n      0x1f\n      add\n      0x20\n      dup1\n      swap2\n      div\n      mul\n      0x20\n      add\n      mload(0x40)\n      swap1\n      dup2\n      add\n      0x40\n      mstore\n      dup1\n      swap3\n      swap2\n      swap1\n      dup2\n      dup2\n      mstore\n      0x20\n      add\n      dup3\n      dup1\n      sload\n      tag_168\n      swap1\n      tag_142\n      jump\t// in\n    tag_168:\n      dup1\n      iszero\n      tag_169\n      jumpi\n      dup1\n      0x1f\n      lt\n      tag_170\n      jumpi\n      0x0100\n      dup1\n      dup4\n      sload\n      div\n      mul\n      dup4\n      mstore\n      swap2\n      0x20\n      add\n      swap2\n      jump(tag_169)\n    tag_170:\n      dup3\n      add\n      swap2\n      swap1\n      0x00\n      mstore\n      keccak256(0x00, 0x20)\n      swap1\n    tag_171:\n      dup2\n      sload\n      dup2\n      mstore\n      swap1\n      0x01\n      add\n      swap1\n      0x20\n      add\n      dup1\n      dup4\n      gt\n      tag_171\n      jumpi\n      dup3\n      swap1\n      sub\n      0x1f\n      and\n      dup3\n      add\n      swap2\n    tag_169:\n      pop\n      pop\n      pop\n      pop\n      pop\n      swap1\n      dup1\n      0x01\n      add\n      dup1\n      sload\n      tag_172\n      swap1\n      tag_142\n      jump\t// in\n    tag_172:\n      dup1\n      0x1f\n      add\n      0x20\n      dup1\n      swap2\n      div\n      mul\n      0x20\n      add\n      mload(0x40)\n      swap1\n      dup2\n      add\n      0x40\n      mstore\n      dup1\n      swap3\n      swap2\n      swap1\n      dup2\n      dup2\n      mstore\n      0x20\n      add\n      dup3\n      dup1\n      sload\n      tag_173\n      swap1\n      tag_142\n      jump\t// in\n    tag_173:\n      dup1\n      iszero\n      tag_174\n      jumpi\n      dup1\n      0x1f\n      lt\n      tag_175\n      jumpi\n      0x0100\n      dup1\n      dup4\n      sload\n      div\n      mul\n      dup4\n      mstore\n      swap2\n      0x20\n      add\n      swap2\n      jump(tag_174)\n    tag_175:\n      dup3\n      add\n      swap2\n      swap1\n      0x00\n      mstore\n      keccak256(0x00, 0x20)\n      swap1\n    tag_176:\n      dup2\n      sload\n      dup2\n      mstore\n      swap1\n      0x01\n      add\n      swap1\n      0x20\n      add\n      dup1\n      dup4\n      gt\n      tag_176\n      jumpi\n      dup3\n      swap1\n      sub\n      0x1f\n      and\n      dup3\n      add\n      swap2\n    tag_174:\n      pop\n      pop\n      pop\n      pop\n      pop\n      swap1\n      dup1\n      0x02\n      add\n      dup1\n      sload\n      tag_177\n      swap1\n      tag_142\n      jump\t// in\n    tag_177:\n      dup1\n      0x1f\n      add\n      0x20\n      dup1\n      swap2\n      div\n      mul\n      0x20\n      add\n      mload(0x40)\n      swap1\n      dup2\n      add\n      0x40\n      mstore\n      dup1\n      swap3\n      swap2\n      swap1\n      dup2\n      dup2\n      mstore\n      0x20\n      add\n      dup3\n      dup1\n      sload\n      tag_178\n      swap1\n      tag_142\n      jump\t// in\n    tag_178:\n      dup1\n      iszero\n      tag_179\n      jumpi\n      dup1\n      0x1f\n      lt\n      tag_180\n      jumpi\n      0x0100\n      dup1\n      dup4\n      sload\n      div\n      mul\n      dup4\n      mstore\n      swap2\n      0x20\n      add\n      swap2\n      jump(tag_179)\n    tag_180:\n      dup3\n      add\n      swap2\n      swap1\n      0x00\n      mstore\n      keccak256(0x00, 0x20)\n      swap1\n    tag_181:\n      dup2\n      sload\n      dup2\n      mstore\n      swap1\n      0x01\n      add\n      swap1\n      0x20\n      add\n      dup1\n      dup4\n      gt\n      tag_181\n      jumpi\n      dup3\n      swap1\n      sub\n      0x1f\n      and\n      dup3\n      add\n      swap2\n    tag_179:\n      pop\n      pop\n      pop\n      pop\n      pop\n      swap1\n      dup1\n      0x03\n      add\n      dup1\n      sload\n      tag_182\n      swap1\n      tag_142\n      jump\t// in\n    tag_182:\n      dup1\n      0x1f\n      add\n      0x20\n      dup1\n      swap2\n      div\n      mul\n      0x20\n      add\n      mload(0x40)\n      swap1\n      dup2\n      add\n      0x40\n      mstore\n      dup1\n      swap3\n      swap2\n      swap1\n      dup2\n      dup2\n      mstore\n      0x20\n      add\n      dup3\n      dup1\n      sload\n      tag_183\n      swap1\n      tag_142\n      jump\t// in\n    tag_183:\n      dup1\n      iszero\n      tag_184\n      jumpi\n      dup1\n      0x1f\n      lt\n      tag_185\n      jumpi\n      0x0100\n      dup1\n      dup4\n      sload\n      div\n      mul\n      dup4\n      mstore\n      swap2\n      0x20\n      add\n      swap2\n      jump(tag_184)\n    tag_185:\n      dup3\n      add\n      swap2\n      swap1\n      0x00\n      mstore\n      keccak256(0x00, 0x20)\n      swap1\n    tag_186:\n      dup2\n      sload\n      dup2\n      mstore\n      swap1\n      0x01\n      add\n      swap1\n      0x20\n      add\n      dup1\n      dup4\n      gt\n      tag_186\n      jumpi\n      dup3\n      swap1\n      sub\n      0x1f\n      and\n      dup3\n      add\n      swap2\n    tag_184:\n      pop\n      pop\n      pop\n      pop\n      pop\n      swap1\n      dup1\n      0x04\n      add\n      dup1\n      sload\n      tag_187\n      swap1\n      tag_142\n      jump\t// in\n    tag_187:\n      dup1\n      0x1f\n      add\n      0x20\n      dup1\n      swap2\n      div\n      mul\n      0x20\n      add\n      mload(0x40)\n      swap1\n      dup2\n      add\n      0x40\n      mstore\n      dup1\n      swap3\n      swap2\n      swap1\n      dup2\n      dup2\n      mstore\n      0x20\n      add\n      dup3\n      dup1\n      sload\n      tag_188\n      swap1\n      tag_142\n      jump\t// in\n    tag_188:\n      dup1\n      iszero\n      tag_189\n      jumpi\n      dup1\n      0x1f\n      lt\n      tag_190\n      jumpi\n      0x0100\n      dup1\n      dup4\n      sload\n      div\n      mul\n      dup4\n      mstore\n      swap2\n      0x20\n      add\n      swap2\n      jump(tag_189)\n    tag_190:\n      dup3\n      add\n      swap2\n      swap1\n      0x00\n      mstore\n      keccak256(0x00, 0x20)\n      swap1\n    tag_191:\n      dup2\n      sload\n      dup2\n      mstore\n      swap1\n      0x01\n      add\n      swap1\n      0x20\n      add\n      dup1\n      dup4\n      gt\n      tag_191\n      jumpi\n      dup3\n      swap1\n      sub\n      0x1f\n      and\n      dup3\n      add\n      swap2\n    tag_189:\n      pop\n      pop\n      pop\n      pop\n      pop\n      swap1\n      pop\n      dup6\n      jump\t// out\n        /* \"Election.sol\":427:582  function getAdmin() public view returns (address) {... */\n    tag_71:\n        /* \"Election.sol\":468:475  address */\n      0x00\n        /* \"Election.sol\":569:574  admin */\n      dup1\n      0x00\n      swap1\n      sload\n      swap1\n      0x0100\n      exp\n      swap1\n      div\n      0xffffffffffffffffffffffffffffffffffffffff\n      and\n        /* \"Election.sol\":562:574  return admin */\n      swap1\n      pop\n        /* \"Election.sol\":427:582  function getAdmin() public view returns (address) {... */\n      swap1\n      jump\t// out\n        /* \"Election.sol\":4996:5070  function getEnd() public view returns (bool) {... */\n    tag_75:\n        /* \"Election.sol\":5035:5039  bool */\n      0x00\n        /* \"Election.sol\":5059:5062  end */\n      0x03\n      0x01\n      swap1\n      sload\n      swap1\n      0x0100\n      exp\n      swap1\n      div\n      0xff\n      and\n        /* \"Election.sol\":5052:5062  return end */\n      swap1\n      pop\n        /* \"Election.sol\":4996:5070  function getEnd() public view returns (bool) {... */\n      swap1\n      jump\t// out\n        /* \"Election.sol\":112:141  uint256 public candidateCount */\n    tag_79:\n      sload(0x01)\n      dup2\n      jump\t// out\n        /* \"Election.sol\":180:197  bool public start */\n    tag_82:\n      0x03\n      0x00\n      swap1\n      sload\n      swap1\n      0x0100\n      exp\n      swap1\n      div\n      0xff\n      and\n      dup2\n      jump\t// out\n        /* \"Election.sol\":4910:4988  function getStart() public view returns (bool) {... */\n    tag_85:\n        /* \"Election.sol\":4951:4955  bool */\n      0x00\n        /* \"Election.sol\":4975:4980  start */\n      0x03\n      0x00\n      swap1\n      sload\n      swap1\n      0x0100\n      exp\n      swap1\n      div\n      0xff\n      and\n        /* \"Election.sol\":4968:4980  return start */\n      swap1\n      pop\n        /* \"Election.sol\":4910:4988  function getStart() public view returns (bool) {... */\n      swap1\n      jump\t// out\n        /* \"Election.sol\":3382:3405  address[] public voters */\n    tag_89:\n      0x0a\n      dup2\n      dup2\n      sload\n      dup2\n      lt\n      tag_195\n      jumpi\n      0x00\n      dup1\n      revert\n    tag_195:\n      swap1\n      0x00\n      mstore\n      keccak256(0x00, 0x20)\n      add\n      0x00\n      swap2\n      pop\n      sload\n      swap1\n      0x0100\n      exp\n      swap1\n      div\n      0xffffffffffffffffffffffffffffffffffffffff\n      and\n      dup2\n      jump\t// out\n        /* \"Election.sol\":2333:2818  function getElectionDetails()... */\n    tag_92:\n        /* \"Election.sol\":2425:2438  string memory */\n      0x60\n        /* \"Election.sol\":2453:2466  string memory */\n      dup1\n        /* \"Election.sol\":2481:2494  string memory */\n      0x60\n        /* \"Election.sol\":2509:2522  string memory */\n      dup1\n        /* \"Election.sol\":2537:2550  string memory */\n      0x60\n        /* \"Election.sol\":2600:2615  electionDetails */\n      0x05\n        /* \"Election.sol\":2600:2625  electionDetails.adminName */\n      0x00\n      add\n        /* \"Election.sol\":2640:2655  electionDetails */\n      0x05\n        /* \"Election.sol\":2640:2666  electionDetails.adminEmail */\n      0x01\n      add\n        /* \"Election.sol\":2681:2696  electionDetails */\n      0x05\n        /* \"Election.sol\":2681:2707  electionDetails.adminTitle */\n      0x02\n      add\n        /* \"Election.sol\":2722:2737  electionDetails */\n      0x05\n        /* \"Election.sol\":2722:2751  electionDetails.electionTitle */\n      0x03\n      add\n        /* \"Election.sol\":2766:2781  electionDetails */\n      0x05\n        /* \"Election.sol\":2766:2799  electionDetails.organizationTitle */\n      0x04\n      add\n        /* \"Election.sol\":2578:2810  return (... */\n      dup5\n      dup1\n      sload\n      tag_198\n      swap1\n      tag_142\n      jump\t// in\n    tag_198:\n      dup1\n      0x1f\n      add\n      0x20\n      dup1\n      swap2\n      div\n      mul\n      0x20\n      add\n      mload(0x40)\n      swap1\n      dup2\n      add\n      0x40\n      mstore\n      dup1\n      swap3\n      swap2\n      swap1\n      dup2\n      dup2\n      mstore\n      0x20\n      add\n      dup3\n      dup1\n      sload\n      tag_199\n      swap1\n      tag_142\n      jump\t// in\n    tag_199:\n      dup1\n      iszero\n      tag_200\n      jumpi\n      dup1\n      0x1f\n      lt\n      tag_201\n      jumpi\n      0x0100\n      dup1\n      dup4\n      sload\n      div\n      mul\n      dup4\n      mstore\n      swap2\n      0x20\n      add\n      swap2\n      jump(tag_200)\n    tag_201:\n      dup3\n      add\n      swap2\n      swap1\n      0x00\n      mstore\n      keccak256(0x00, 0x20)\n      swap1\n    tag_202:\n      dup2\n      sload\n      dup2\n      mstore\n      swap1\n      0x01\n      add\n      swap1\n      0x20\n      add\n      dup1\n      dup4\n      gt\n      tag_202\n      jumpi\n      dup3\n      swap1\n      sub\n      0x1f\n      and\n      dup3\n      add\n      swap2\n    tag_200:\n      pop\n      pop\n      pop\n      pop\n      pop\n      swap5\n      pop\n      dup4\n      dup1\n      sload\n      tag_203\n      swap1\n      tag_142\n      jump\t// in\n    tag_203:\n      dup1\n      0x1f\n      add\n      0x20\n      dup1\n      swap2\n      div\n      mul\n      0x20\n      add\n      mload(0x40)\n      swap1\n      dup2\n      add\n      0x40\n      mstore\n      dup1\n      swap3\n      swap2\n      swap1\n      dup2\n      dup2\n      mstore\n      0x20\n      add\n      dup3\n      dup1\n      sload\n      tag_204\n      swap1\n      tag_142\n      jump\t// in\n    tag_204:\n      dup1\n      iszero\n      tag_205\n      jumpi\n      dup1\n      0x1f\n      lt\n      tag_206\n      jumpi\n      0x0100\n      dup1\n      dup4\n      sload\n      div\n      mul\n      dup4\n      mstore\n      swap2\n      0x20\n      add\n      swap2\n      jump(tag_205)\n    tag_206:\n      dup3\n      add\n      swap2\n      swap1\n      0x00\n      mstore\n      keccak256(0x00, 0x20)\n      swap1\n    tag_207:\n      dup2\n      sload\n      dup2\n      mstore\n      swap1\n      0x01\n      add\n      swap1\n      0x20\n      add\n      dup1\n      dup4\n      gt\n      tag_207\n      jumpi\n      dup3\n      swap1\n      sub\n      0x1f\n      and\n      dup3\n      add\n      swap2\n    tag_205:\n      pop\n      pop\n      pop\n      pop\n      pop\n      swap4\n      pop\n      dup3\n      dup1\n      sload\n      tag_208\n      swap1\n      tag_142\n      jump\t// in\n    tag_208:\n      dup1\n      0x1f\n      add\n      0x20\n      dup1\n      swap2\n      div\n      mul\n      0x20\n      add\n      mload(0x40)\n      swap1\n      dup2\n      add\n      0x40\n      mstore\n      dup1\n      swap3\n      swap2\n      swap1\n      dup2\n      dup2\n      mstore\n      0x20\n      add\n      dup3\n      dup1\n      sload\n      tag_209\n      swap1\n      tag_142\n      jump\t// in\n    tag_209:\n      dup1\n      iszero\n      tag_210\n      jumpi\n      dup1\n      0x1f\n      lt\n      tag_211\n      jumpi\n      0x0100\n      dup1\n      dup4\n      sload\n      div\n      mul\n      dup4\n      mstore\n      swap2\n      0x20\n      add\n      swap2\n      jump(tag_210)\n    tag_211:\n      dup3\n      add\n      swap2\n      swap1\n      0x00\n      mstore\n      keccak256(0x00, 0x20)\n      swap1\n    tag_212:\n      dup2\n      sload\n      dup2\n      mstore\n      swap1\n      0x01\n      add\n      swap1\n      0x20\n      add\n      dup1\n      dup4\n      gt\n      tag_212\n      jumpi\n      dup3\n      swap1\n      sub\n      0x1f\n      and\n      dup3\n      add\n      swap2\n    tag_210:\n      pop\n      pop\n      pop\n      pop\n      pop\n      swap3\n      pop\n      dup2\n      dup1\n      sload\n      tag_213\n      swap1\n      tag_142\n      jump\t// in\n    tag_213:\n      dup1\n      0x1f\n      add\n      0x20\n      dup1\n      swap2\n      div\n      mul\n      0x20\n      add\n      mload(0x40)\n      swap1\n      dup2\n      add\n      0x40\n      mstore\n      dup1\n      swap3\n      swap2\n      swap1\n      dup2\n      dup2\n      mstore\n      0x20\n      add\n      dup3\n      dup1\n      sload\n      tag_214\n      swap1\n      tag_142\n      jump\t// in\n    tag_214:\n      dup1\n      iszero\n      tag_215\n      jumpi\n      dup1\n      0x1f\n      lt\n      tag_216\n      jumpi\n      0x0100\n      dup1\n      dup4\n      sload\n      div\n      mul\n      dup4\n      mstore\n      swap2\n      0x20\n      add\n      swap2\n      jump(tag_215)\n    tag_216:\n      dup3\n      add\n      swap2\n      swap1\n      0x00\n      mstore\n      keccak256(0x00, 0x20)\n      swap1\n    tag_217:\n      dup2\n      sload\n      dup2\n      mstore\n      swap1\n      0x01\n      add\n      swap1\n      0x20\n      add\n      dup1\n      dup4\n      gt\n      tag_217\n      jumpi\n      dup3\n      swap1\n      sub\n      0x1f\n      and\n      dup3\n      add\n      swap2\n    tag_215:\n      pop\n      pop\n      pop\n      pop\n      pop\n      swap2\n      pop\n      dup1\n      dup1\n      sload\n      tag_218\n      swap1\n      tag_142\n      jump\t// in\n    tag_218:\n      dup1\n      0x1f\n      add\n      0x20\n      dup1\n      swap2\n      div\n      mul\n      0x20\n      add\n      mload(0x40)\n      swap1\n      dup2\n      add\n      0x40\n      mstore\n      dup1\n      swap3\n      swap2\n      swap1\n      dup2\n      dup2\n      mstore\n      0x20\n      add\n      dup3\n      dup1\n      sload\n      tag_219\n      swap1\n      tag_142\n      jump\t// in\n    tag_219:\n      dup1\n      iszero\n      tag_220\n      jumpi\n      dup1\n      0x1f\n      lt\n      tag_221\n      jumpi\n      0x0100\n      dup1\n      dup4\n      sload\n      div\n      mul\n      dup4\n      mstore\n      swap2\n      0x20\n      add\n      swap2\n      jump(tag_220)\n    tag_221:\n      dup3\n      add\n      swap2\n      swap1\n      0x00\n      mstore\n      keccak256(0x00, 0x20)\n      swap1\n    tag_222:\n      dup2\n      sload\n      dup2\n      mstore\n      swap1\n      0x01\n      add\n      swap1\n      0x20\n      add\n      dup1\n      dup4\n      gt\n      tag_222\n      jumpi\n      dup3\n      swap1\n      sub\n      0x1f\n      and\n      dup3\n      add\n      swap2\n    tag_220:\n      pop\n      pop\n      pop\n      pop\n      pop\n      swap1\n      pop\n      swap5\n      pop\n      swap5\n      pop\n      swap5\n      pop\n      swap5\n      pop\n      swap5\n      pop\n        /* \"Election.sol\":2333:2818  function getElectionDetails()... */\n      swap1\n      swap2\n      swap3\n      swap4\n      swap5\n      jump\t// out\n        /* \"Election.sol\":204:219  bool public end */\n    tag_95:\n      0x03\n      0x01\n      swap1\n      sload\n      swap1\n      0x0100\n      exp\n      swap1\n      div\n      0xff\n      and\n      dup2\n      jump\t// out\n        /* \"Election.sol\":85:105  address public admin */\n    tag_98:\n      0x00\n      dup1\n      sload\n      swap1\n      0x0100\n      exp\n      swap1\n      div\n      0xffffffffffffffffffffffffffffffffffffffff\n      and\n      dup2\n      jump\t// out\n        /* \"Election.sol\":3554:4025  function registerAsVoter(string memory _name, string memory _phone) public {... */\n    tag_102:\n        /* \"Election.sol\":3640:3661  Voter memory newVoter */\n      0x00\n        /* \"Election.sol\":3677:3911  Voter({... */\n      mload(0x40)\n      dup1\n      0xc0\n      add\n      0x40\n      mstore\n      dup1\n        /* \"Election.sol\":3716:3726  msg.sender */\n      caller\n        /* \"Election.sol\":3677:3911  Voter({... */\n      0xffffffffffffffffffffffffffffffffffffffff\n      and\n      dup2\n      mstore\n      0x20\n      add\n        /* \"Election.sol\":3751:3756  _name */\n      dup5\n        /* \"Election.sol\":3677:3911  Voter({... */\n      dup2\n      mstore\n      0x20\n      add\n        /* \"Election.sol\":3782:3788  _phone */\n      dup4\n        /* \"Election.sol\":3677:3911  Voter({... */\n      dup2\n      mstore\n      0x20\n      add\n        /* \"Election.sol\":3853:3858  false */\n      0x00\n        /* \"Election.sol\":3677:3911  Voter({... */\n      iszero\n      iszero\n      dup2\n      mstore\n      0x20\n      add\n        /* \"Election.sol\":3817:3822  false */\n      0x00\n        /* \"Election.sol\":3677:3911  Voter({... */\n      iszero\n      iszero\n      dup2\n      mstore\n      0x20\n      add\n        /* \"Election.sol\":3891:3895  true */\n      0x01\n        /* \"Election.sol\":3677:3911  Voter({... */\n      iszero\n      iszero\n      dup2\n      mstore\n      pop\n        /* \"Election.sol\":3640:3911  Voter memory newVoter =... */\n      swap1\n      pop\n        /* \"Election.sol\":3949:3957  newVoter */\n      dup1\n        /* \"Election.sol\":3922:3934  voterDetails */\n      0x0b\n        /* \"Election.sol\":3922:3946  voterDetails[msg.sender] */\n      0x00\n        /* \"Election.sol\":3935:3945  msg.sender */\n      caller\n        /* \"Election.sol\":3922:3946  voterDetails[msg.sender] */\n      0xffffffffffffffffffffffffffffffffffffffff\n      and\n      0xffffffffffffffffffffffffffffffffffffffff\n      and\n      dup2\n      mstore\n      0x20\n      add\n      swap1\n      dup2\n      mstore\n      0x20\n      add\n      0x00\n      keccak256\n        /* \"Election.sol\":3922:3957  voterDetails[msg.sender] = newVoter */\n      0x00\n      dup3\n      add\n      mload\n      dup2\n      0x00\n      add\n      exp(0x0100, 0x00)\n      dup2\n      sload\n      dup2\n      0xffffffffffffffffffffffffffffffffffffffff\n      mul\n      not\n      and\n      swap1\n      dup4\n      0xffffffffffffffffffffffffffffffffffffffff\n      and\n      mul\n      or\n      swap1\n      sstore\n      pop\n      0x20\n      dup3\n      add\n      mload\n      dup2\n      0x01\n      add\n      swap1\n      dup1\n      mload\n      swap1\n      0x20\n      add\n      swap1\n      tag_224\n      swap3\n      swap2\n      swap1\n      tag_125\n      jump\t// in\n    tag_224:\n      pop\n      0x40\n      dup3\n      add\n      mload\n      dup2\n      0x02\n      add\n      swap1\n      dup1\n      mload\n      swap1\n      0x20\n      add\n      swap1\n      tag_225\n      swap3\n      swap2\n      swap1\n      tag_125\n      jump\t// in\n    tag_225:\n      pop\n      0x60\n      dup3\n      add\n      mload\n      dup2\n      0x03\n      add\n      exp(0x0100, 0x00)\n      dup2\n      sload\n      dup2\n      0xff\n      mul\n      not\n      and\n      swap1\n      dup4\n      iszero\n      iszero\n      mul\n      or\n      swap1\n      sstore\n      pop\n      0x80\n      dup3\n      add\n      mload\n      dup2\n      0x03\n      add\n      exp(0x0100, 0x01)\n      dup2\n      sload\n      dup2\n      0xff\n      mul\n      not\n      and\n      swap1\n      dup4\n      iszero\n      iszero\n      mul\n      or\n      swap1\n      sstore\n      pop\n      0xa0\n      dup3\n      add\n      mload\n      dup2\n      0x03\n      add\n      exp(0x0100, 0x02)\n      dup2\n      sload\n      dup2\n      0xff\n      mul\n      not\n      and\n      swap1\n      dup4\n      iszero\n      iszero\n      mul\n      or\n      swap1\n      sstore\n      pop\n      swap1\n      pop\n      pop\n        /* \"Election.sol\":3968:3974  voters */\n      0x0a\n        /* \"Election.sol\":3980:3990  msg.sender */\n      caller\n        /* \"Election.sol\":3968:3991  voters.push(msg.sender) */\n      swap1\n      dup1\n      0x01\n      dup2\n      sload\n      add\n      dup1\n      dup3\n      sstore\n      dup1\n      swap2\n      pop\n      pop\n      0x01\n      swap1\n      sub\n      swap1\n      0x00\n      mstore\n      keccak256(0x00, 0x20)\n      add\n      0x00\n      swap1\n      swap2\n      swap1\n      swap2\n      swap1\n      swap2\n      0x0100\n      exp\n      dup2\n      sload\n      dup2\n      0xffffffffffffffffffffffffffffffffffffffff\n      mul\n      not\n      and\n      swap1\n      dup4\n      0xffffffffffffffffffffffffffffffffffffffff\n      and\n      mul\n      or\n      swap1\n      sstore\n      pop\n        /* \"Election.sol\":4016:4017  1 */\n      0x01\n        /* \"Election.sol\":4002:4012  voterCount */\n      0x02\n      0x00\n        /* \"Election.sol\":4002:4017  voterCount += 1 */\n      dup3\n      dup3\n      sload\n      tag_227\n      swap2\n      swap1\n      tag_117\n      jump\t// in\n    tag_227:\n      swap3\n      pop\n      pop\n      dup2\n      swap1\n      sstore\n      pop\n        /* \"Election.sol\":3629:4025  {... */\n      pop\n        /* \"Election.sol\":3554:4025  function registerAsVoter(string memory _name, string memory _phone) public {... */\n      pop\n      pop\n      jump\t// out\n    tag_125:\n      dup3\n      dup1\n      sload\n      tag_228\n      swap1\n      tag_142\n      jump\t// in\n    tag_228:\n      swap1\n      0x00\n      mstore\n      keccak256(0x00, 0x20)\n      swap1\n      0x1f\n      add\n      0x20\n      swap1\n      div\n      dup2\n      add\n      swap3\n      dup3\n      tag_230\n      jumpi\n      0x00\n      dup6\n      sstore\n      jump(tag_229)\n    tag_230:\n      dup3\n      0x1f\n      lt\n      tag_231\n      jumpi\n      dup1\n      mload\n      not(0xff)\n      and\n      dup4\n      dup1\n      add\n      or\n      dup6\n      sstore\n      jump(tag_229)\n    tag_231:\n      dup3\n      dup1\n      add\n      0x01\n      add\n      dup6\n      sstore\n      dup3\n      iszero\n      tag_229\n      jumpi\n      swap2\n      dup3\n      add\n    tag_232:\n      dup3\n      dup2\n      gt\n      iszero\n      tag_233\n      jumpi\n      dup3\n      mload\n      dup3\n      sstore\n      swap2\n      0x20\n      add\n      swap2\n      swap1\n      0x01\n      add\n      swap1\n      jump(tag_232)\n    tag_233:\n    tag_229:\n      pop\n      swap1\n      pop\n      tag_234\n      swap2\n      swap1\n      tag_235\n      jump\t// in\n    tag_234:\n      pop\n      swap1\n      jump\t// out\n    tag_235:\n    tag_236:\n      dup1\n      dup3\n      gt\n      iszero\n      tag_237\n      jumpi\n      0x00\n      dup2\n      0x00\n      swap1\n      sstore\n      pop\n      0x01\n      add\n      jump(tag_236)\n    tag_237:\n      pop\n      swap1\n      jump\t// out\n        /* \"#utility.yul\":7:82   */\n    tag_238:\n        /* \"#utility.yul\":40:46   */\n      0x00\n        /* \"#utility.yul\":73:75   */\n      0x40\n        /* \"#utility.yul\":67:76   */\n      mload\n        /* \"#utility.yul\":57:76   */\n      swap1\n      pop\n        /* \"#utility.yul\":7:82   */\n      swap1\n      jump\t// out\n        /* \"#utility.yul\":88:205   */\n    tag_239:\n        /* \"#utility.yul\":197:198   */\n      0x00\n        /* \"#utility.yul\":194:195   */\n      dup1\n        /* \"#utility.yul\":187:199   */\n      revert\n        /* \"#utility.yul\":211:328   */\n    tag_240:\n        /* \"#utility.yul\":320:321   */\n      0x00\n        /* \"#utility.yul\":317:318   */\n      dup1\n        /* \"#utility.yul\":310:322   */\n      revert\n        /* \"#utility.yul\":334:411   */\n    tag_241:\n        /* \"#utility.yul\":371:378   */\n      0x00\n        /* \"#utility.yul\":400:405   */\n      dup2\n        /* \"#utility.yul\":389:405   */\n      swap1\n      pop\n        /* \"#utility.yul\":334:411   */\n      swap2\n      swap1\n      pop\n      jump\t// out\n        /* \"#utility.yul\":417:539   */\n    tag_242:\n        /* \"#utility.yul\":490:514   */\n      tag_286\n        /* \"#utility.yul\":508:513   */\n      dup2\n        /* \"#utility.yul\":490:514   */\n      tag_241\n      jump\t// in\n    tag_286:\n        /* \"#utility.yul\":483:488   */\n      dup2\n        /* \"#utility.yul\":480:515   */\n      eq\n        /* \"#utility.yul\":470:533   */\n      tag_287\n      jumpi\n        /* \"#utility.yul\":529:530   */\n      0x00\n        /* \"#utility.yul\":526:527   */\n      dup1\n        /* \"#utility.yul\":519:531   */\n      revert\n        /* \"#utility.yul\":470:533   */\n    tag_287:\n        /* \"#utility.yul\":417:539   */\n      pop\n      jump\t// out\n        /* \"#utility.yul\":545:684   */\n    tag_243:\n        /* \"#utility.yul\":591:596   */\n      0x00\n        /* \"#utility.yul\":629:635   */\n      dup2\n        /* \"#utility.yul\":616:636   */\n      calldataload\n        /* \"#utility.yul\":607:636   */\n      swap1\n      pop\n        /* \"#utility.yul\":645:678   */\n      tag_289\n        /* \"#utility.yul\":672:677   */\n      dup2\n        /* \"#utility.yul\":645:678   */\n      tag_242\n      jump\t// in\n    tag_289:\n        /* \"#utility.yul\":545:684   */\n      swap3\n      swap2\n      pop\n      pop\n      jump\t// out\n        /* \"#utility.yul\":690:1019   */\n    tag_29:\n        /* \"#utility.yul\":749:755   */\n      0x00\n        /* \"#utility.yul\":798:800   */\n      0x20\n        /* \"#utility.yul\":786:795   */\n      dup3\n        /* \"#utility.yul\":777:784   */\n      dup5\n        /* \"#utility.yul\":773:796   */\n      sub\n        /* \"#utility.yul\":769:801   */\n      slt\n        /* \"#utility.yul\":766:885   */\n      iszero\n      tag_291\n      jumpi\n        /* \"#utility.yul\":804:883   */\n      tag_292\n      tag_239\n      jump\t// in\n    tag_292:\n        /* \"#utility.yul\":766:885   */\n    tag_291:\n        /* \"#utility.yul\":924:925   */\n      0x00\n        /* \"#utility.yul\":949:1002   */\n      tag_293\n        /* \"#utility.yul\":994:1001   */\n      dup5\n        /* \"#utility.yul\":985:991   */\n      dup3\n        /* \"#utility.yul\":974:983   */\n      dup6\n        /* \"#utility.yul\":970:992   */\n      add\n        /* \"#utility.yul\":949:1002   */\n      tag_243\n      jump\t// in\n    tag_293:\n        /* \"#utility.yul\":939:1002   */\n      swap2\n      pop\n        /* \"#utility.yul\":895:1012   */\n      pop\n        /* \"#utility.yul\":690:1019   */\n      swap3\n      swap2\n      pop\n      pop\n      jump\t// out\n        /* \"#utility.yul\":1025:1143   */\n    tag_244:\n        /* \"#utility.yul\":1112:1136   */\n      tag_295\n        /* \"#utility.yul\":1130:1135   */\n      dup2\n        /* \"#utility.yul\":1112:1136   */\n      tag_241\n      jump\t// in\n    tag_295:\n        /* \"#utility.yul\":1107:1110   */\n      dup3\n        /* \"#utility.yul\":1100:1137   */\n      mstore\n        /* \"#utility.yul\":1025:1143   */\n      pop\n      pop\n      jump\t// out\n        /* \"#utility.yul\":1149:1371   */\n    tag_34:\n        /* \"#utility.yul\":1242:1246   */\n      0x00\n        /* \"#utility.yul\":1280:1282   */\n      0x20\n        /* \"#utility.yul\":1269:1278   */\n      dup3\n        /* \"#utility.yul\":1265:1283   */\n      add\n        /* \"#utility.yul\":1257:1283   */\n      swap1\n      pop\n        /* \"#utility.yul\":1293:1364   */\n      tag_297\n        /* \"#utility.yul\":1361:1362   */\n      0x00\n        /* \"#utility.yul\":1350:1359   */\n      dup4\n        /* \"#utility.yul\":1346:1363   */\n      add\n        /* \"#utility.yul\":1337:1343   */\n      dup5\n        /* \"#utility.yul\":1293:1364   */\n      tag_244\n      jump\t// in\n    tag_297:\n        /* \"#utility.yul\":1149:1371   */\n      swap3\n      swap2\n      pop\n      pop\n      jump\t// out\n        /* \"#utility.yul\":1377:1494   */\n    tag_245:\n        /* \"#utility.yul\":1486:1487   */\n      0x00\n        /* \"#utility.yul\":1483:1484   */\n      dup1\n        /* \"#utility.yul\":1476:1488   */\n      revert\n        /* \"#utility.yul\":1500:1617   */\n    tag_246:\n        /* \"#utility.yul\":1609:1610   */\n      0x00\n        /* \"#utility.yul\":1606:1607   */\n      dup1\n        /* \"#utility.yul\":1599:1611   */\n      revert\n        /* \"#utility.yul\":1623:1725   */\n    tag_247:\n        /* \"#utility.yul\":1664:1670   */\n      0x00\n        /* \"#utility.yul\":1715:1717   */\n      0x1f\n        /* \"#utility.yul\":1711:1718   */\n      not\n        /* \"#utility.yul\":1706:1708   */\n      0x1f\n        /* \"#utility.yul\":1699:1704   */\n      dup4\n        /* \"#utility.yul\":1695:1709   */\n      add\n        /* \"#utility.yul\":1691:1719   */\n      and\n        /* \"#utility.yul\":1681:1719   */\n      swap1\n      pop\n        /* \"#utility.yul\":1623:1725   */\n      swap2\n      swap1\n      pop\n      jump\t// out\n        /* \"#utility.yul\":1731:1911   */\n    tag_248:\n        /* \"#utility.yul\":1779:1856   */\n      0x4e487b7100000000000000000000000000000000000000000000000000000000\n        /* \"#utility.yul\":1776:1777   */\n      0x00\n        /* \"#utility.yul\":1769:1857   */\n      mstore\n        /* \"#utility.yul\":1876:1880   */\n      0x41\n        /* \"#utility.yul\":1873:1874   */\n      0x04\n        /* \"#utility.yul\":1866:1881   */\n      mstore\n        /* \"#utility.yul\":1900:1904   */\n      0x24\n        /* \"#utility.yul\":1897:1898   */\n      0x00\n        /* \"#utility.yul\":1890:1905   */\n      revert\n        /* \"#utility.yul\":1917:2198   */\n    tag_249:\n        /* \"#utility.yul\":2000:2027   */\n      tag_303\n        /* \"#utility.yul\":2022:2026   */\n      dup3\n        /* \"#utility.yul\":2000:2027   */\n      tag_247\n      jump\t// in\n    tag_303:\n        /* \"#utility.yul\":1992:1998   */\n      dup2\n        /* \"#utility.yul\":1988:2028   */\n      add\n        /* \"#utility.yul\":2130:2136   */\n      dup2\n        /* \"#utility.yul\":2118:2128   */\n      dup2\n        /* \"#utility.yul\":2115:2137   */\n      lt\n        /* \"#utility.yul\":2094:2112   */\n      0xffffffffffffffff\n        /* \"#utility.yul\":2082:2092   */\n      dup3\n        /* \"#utility.yul\":2079:2113   */\n      gt\n        /* \"#utility.yul\":2076:2138   */\n      or\n        /* \"#utility.yul\":2073:2161   */\n      iszero\n      tag_304\n      jumpi\n        /* \"#utility.yul\":2141:2159   */\n      tag_305\n      tag_248\n      jump\t// in\n    tag_305:\n        /* \"#utility.yul\":2073:2161   */\n    tag_304:\n        /* \"#utility.yul\":2181:2191   */\n      dup1\n        /* \"#utility.yul\":2177:2179   */\n      0x40\n        /* \"#utility.yul\":2170:2192   */\n      mstore\n        /* \"#utility.yul\":1960:2198   */\n      pop\n        /* \"#utility.yul\":1917:2198   */\n      pop\n      pop\n      jump\t// out\n        /* \"#utility.yul\":2204:2333   */\n    tag_250:\n        /* \"#utility.yul\":2238:2244   */\n      0x00\n        /* \"#utility.yul\":2265:2285   */\n      tag_307\n      tag_238\n      jump\t// in\n    tag_307:\n        /* \"#utility.yul\":2255:2285   */\n      swap1\n      pop\n        /* \"#utility.yul\":2294:2327   */\n      tag_308\n        /* \"#utility.yul\":2322:2326   */\n      dup3\n        /* \"#utility.yul\":2314:2320   */\n      dup3\n        /* \"#utility.yul\":2294:2327   */\n      tag_249\n      jump\t// in\n    tag_308:\n        /* \"#utility.yul\":2204:2333   */\n      swap2\n      swap1\n      pop\n      jump\t// out\n        /* \"#utility.yul\":2339:2647   */\n    tag_251:\n        /* \"#utility.yul\":2401:2405   */\n      0x00\n        /* \"#utility.yul\":2491:2509   */\n      0xffffffffffffffff\n        /* \"#utility.yul\":2483:2489   */\n      dup3\n        /* \"#utility.yul\":2480:2510   */\n      gt\n        /* \"#utility.yul\":2477:2533   */\n      iszero\n      tag_310\n      jumpi\n        /* \"#utility.yul\":2513:2531   */\n      tag_311\n      tag_248\n      jump\t// in\n    tag_311:\n        /* \"#utility.yul\":2477:2533   */\n    tag_310:\n        /* \"#utility.yul\":2551:2580   */\n      tag_312\n        /* \"#utility.yul\":2573:2579   */\n      dup3\n        /* \"#utility.yul\":2551:2580   */\n      tag_247\n      jump\t// in\n    tag_312:\n        /* \"#utility.yul\":2543:2580   */\n      swap1\n      pop\n        /* \"#utility.yul\":2635:2639   */\n      0x20\n        /* \"#utility.yul\":2629:2633   */\n      dup2\n        /* \"#utility.yul\":2625:2640   */\n      add\n        /* \"#utility.yul\":2617:2640   */\n      swap1\n      pop\n        /* \"#utility.yul\":2339:2647   */\n      swap2\n      swap1\n      pop\n      jump\t// out\n        /* \"#utility.yul\":2653:2807   */\n    tag_252:\n        /* \"#utility.yul\":2737:2743   */\n      dup3\n        /* \"#utility.yul\":2732:2735   */\n      dup2\n        /* \"#utility.yul\":2727:2730   */\n      dup4\n        /* \"#utility.yul\":2714:2744   */\n      calldatacopy\n        /* \"#utility.yul\":2799:2800   */\n      0x00\n        /* \"#utility.yul\":2790:2796   */\n      dup4\n        /* \"#utility.yul\":2785:2788   */\n      dup4\n        /* \"#utility.yul\":2781:2797   */\n      add\n        /* \"#utility.yul\":2774:2801   */\n      mstore\n        /* \"#utility.yul\":2653:2807   */\n      pop\n      pop\n      pop\n      jump\t// out\n        /* \"#utility.yul\":2813:3225   */\n    tag_253:\n        /* \"#utility.yul\":2891:2896   */\n      0x00\n        /* \"#utility.yul\":2916:2982   */\n      tag_315\n        /* \"#utility.yul\":2932:2981   */\n      tag_316\n        /* \"#utility.yul\":2974:2980   */\n      dup5\n        /* \"#utility.yul\":2932:2981   */\n      tag_251\n      jump\t// in\n    tag_316:\n        /* \"#utility.yul\":2916:2982   */\n      tag_250\n      jump\t// in\n    tag_315:\n        /* \"#utility.yul\":2907:2982   */\n      swap1\n      pop\n        /* \"#utility.yul\":3005:3011   */\n      dup3\n        /* \"#utility.yul\":2998:3003   */\n      dup2\n        /* \"#utility.yul\":2991:3012   */\n      mstore\n        /* \"#utility.yul\":3043:3047   */\n      0x20\n        /* \"#utility.yul\":3036:3041   */\n      dup2\n        /* \"#utility.yul\":3032:3048   */\n      add\n        /* \"#utility.yul\":3081:3084   */\n      dup5\n        /* \"#utility.yul\":3072:3078   */\n      dup5\n        /* \"#utility.yul\":3067:3070   */\n      dup5\n        /* \"#utility.yul\":3063:3079   */\n      add\n        /* \"#utility.yul\":3060:3085   */\n      gt\n        /* \"#utility.yul\":3057:3169   */\n      iszero\n      tag_317\n      jumpi\n        /* \"#utility.yul\":3088:3167   */\n      tag_318\n      tag_246\n      jump\t// in\n    tag_318:\n        /* \"#utility.yul\":3057:3169   */\n    tag_317:\n        /* \"#utility.yul\":3178:3219   */\n      tag_319\n        /* \"#utility.yul\":3212:3218   */\n      dup5\n        /* \"#utility.yul\":3207:3210   */\n      dup3\n        /* \"#utility.yul\":3202:3205   */\n      dup6\n        /* \"#utility.yul\":3178:3219   */\n      tag_252\n      jump\t// in\n    tag_319:\n        /* \"#utility.yul\":2897:3225   */\n      pop\n        /* \"#utility.yul\":2813:3225   */\n      swap4\n      swap3\n      pop\n      pop\n      pop\n      jump\t// out\n        /* \"#utility.yul\":3245:3585   */\n    tag_254:\n        /* \"#utility.yul\":3301:3306   */\n      0x00\n        /* \"#utility.yul\":3350:3353   */\n      dup3\n        /* \"#utility.yul\":3343:3347   */\n      0x1f\n        /* \"#utility.yul\":3335:3341   */\n      dup4\n        /* \"#utility.yul\":3331:3348   */\n      add\n        /* \"#utility.yul\":3327:3354   */\n      slt\n        /* \"#utility.yul\":3317:3439   */\n      tag_321\n      jumpi\n        /* \"#utility.yul\":3358:3437   */\n      tag_322\n      tag_245\n      jump\t// in\n    tag_322:\n        /* \"#utility.yul\":3317:3439   */\n    tag_321:\n        /* \"#utility.yul\":3475:3481   */\n      dup2\n        /* \"#utility.yul\":3462:3482   */\n      calldataload\n        /* \"#utility.yul\":3500:3579   */\n      tag_323\n        /* \"#utility.yul\":3575:3578   */\n      dup5\n        /* \"#utility.yul\":3567:3573   */\n      dup3\n        /* \"#utility.yul\":3560:3564   */\n      0x20\n        /* \"#utility.yul\":3552:3558   */\n      dup7\n        /* \"#utility.yul\":3548:3565   */\n      add\n        /* \"#utility.yul\":3500:3579   */\n      tag_253\n      jump\t// in\n    tag_323:\n        /* \"#utility.yul\":3491:3579   */\n      swap2\n      pop\n        /* \"#utility.yul\":3307:3585   */\n      pop\n        /* \"#utility.yul\":3245:3585   */\n      swap3\n      swap2\n      pop\n      pop\n      jump\t// out\n        /* \"#utility.yul\":3591:5402   */\n    tag_37:\n        /* \"#utility.yul\":3736:3742   */\n      0x00\n        /* \"#utility.yul\":3744:3750   */\n      dup1\n        /* \"#utility.yul\":3752:3758   */\n      0x00\n        /* \"#utility.yul\":3760:3766   */\n      dup1\n        /* \"#utility.yul\":3768:3774   */\n      0x00\n        /* \"#utility.yul\":3817:3820   */\n      0xa0\n        /* \"#utility.yul\":3805:3814   */\n      dup7\n        /* \"#utility.yul\":3796:3803   */\n      dup9\n        /* \"#utility.yul\":3792:3815   */\n      sub\n        /* \"#utility.yul\":3788:3821   */\n      slt\n        /* \"#utility.yul\":3785:3905   */\n      iszero\n      tag_325\n      jumpi\n        /* \"#utility.yul\":3824:3903   */\n      tag_326\n      tag_239\n      jump\t// in\n    tag_326:\n        /* \"#utility.yul\":3785:3905   */\n    tag_325:\n        /* \"#utility.yul\":3972:3973   */\n      0x00\n        /* \"#utility.yul\":3961:3970   */\n      dup7\n        /* \"#utility.yul\":3957:3974   */\n      add\n        /* \"#utility.yul\":3944:3975   */\n      calldataload\n        /* \"#utility.yul\":4002:4020   */\n      0xffffffffffffffff\n        /* \"#utility.yul\":3994:4000   */\n      dup2\n        /* \"#utility.yul\":3991:4021   */\n      gt\n        /* \"#utility.yul\":3988:4105   */\n      iszero\n      tag_327\n      jumpi\n        /* \"#utility.yul\":4024:4103   */\n      tag_328\n      tag_240\n      jump\t// in\n    tag_328:\n        /* \"#utility.yul\":3988:4105   */\n    tag_327:\n        /* \"#utility.yul\":4129:4192   */\n      tag_329\n        /* \"#utility.yul\":4184:4191   */\n      dup9\n        /* \"#utility.yul\":4175:4181   */\n      dup3\n        /* \"#utility.yul\":4164:4173   */\n      dup10\n        /* \"#utility.yul\":4160:4182   */\n      add\n        /* \"#utility.yul\":4129:4192   */\n      tag_254\n      jump\t// in\n    tag_329:\n        /* \"#utility.yul\":4119:4192   */\n      swap6\n      pop\n        /* \"#utility.yul\":3915:4202   */\n      pop\n        /* \"#utility.yul\":4269:4271   */\n      0x20\n        /* \"#utility.yul\":4258:4267   */\n      dup7\n        /* \"#utility.yul\":4254:4272   */\n      add\n        /* \"#utility.yul\":4241:4273   */\n      calldataload\n        /* \"#utility.yul\":4300:4318   */\n      0xffffffffffffffff\n        /* \"#utility.yul\":4292:4298   */\n      dup2\n        /* \"#utility.yul\":4289:4319   */\n      gt\n        /* \"#utility.yul\":4286:4403   */\n      iszero\n      tag_330\n      jumpi\n        /* \"#utility.yul\":4322:4401   */\n      tag_331\n      tag_240\n      jump\t// in\n    tag_331:\n        /* \"#utility.yul\":4286:4403   */\n    tag_330:\n        /* \"#utility.yul\":4427:4490   */\n      tag_332\n        /* \"#utility.yul\":4482:4489   */\n      dup9\n        /* \"#utility.yul\":4473:4479   */\n      dup3\n        /* \"#utility.yul\":4462:4471   */\n      dup10\n        /* \"#utility.yul\":4458:4480   */\n      add\n        /* \"#utility.yul\":4427:4490   */\n      tag_254\n      jump\t// in\n    tag_332:\n        /* \"#utility.yul\":4417:4490   */\n      swap5\n      pop\n        /* \"#utility.yul\":4212:4500   */\n      pop\n        /* \"#utility.yul\":4567:4569   */\n      0x40\n        /* \"#utility.yul\":4556:4565   */\n      dup7\n        /* \"#utility.yul\":4552:4570   */\n      add\n        /* \"#utility.yul\":4539:4571   */\n      calldataload\n        /* \"#utility.yul\":4598:4616   */\n      0xffffffffffffffff\n        /* \"#utility.yul\":4590:4596   */\n      dup2\n        /* \"#utility.yul\":4587:4617   */\n      gt\n        /* \"#utility.yul\":4584:4701   */\n      iszero\n      tag_333\n      jumpi\n        /* \"#utility.yul\":4620:4699   */\n      tag_334\n      tag_240\n      jump\t// in\n    tag_334:\n        /* \"#utility.yul\":4584:4701   */\n    tag_333:\n        /* \"#utility.yul\":4725:4788   */\n      tag_335\n        /* \"#utility.yul\":4780:4787   */\n      dup9\n        /* \"#utility.yul\":4771:4777   */\n      dup3\n        /* \"#utility.yul\":4760:4769   */\n      dup10\n        /* \"#utility.yul\":4756:4778   */\n      add\n        /* \"#utility.yul\":4725:4788   */\n      tag_254\n      jump\t// in\n    tag_335:\n        /* \"#utility.yul\":4715:4788   */\n      swap4\n      pop\n        /* \"#utility.yul\":4510:4798   */\n      pop\n        /* \"#utility.yul\":4865:4867   */\n      0x60\n        /* \"#utility.yul\":4854:4863   */\n      dup7\n        /* \"#utility.yul\":4850:4868   */\n      add\n        /* \"#utility.yul\":4837:4869   */\n      calldataload\n        /* \"#utility.yul\":4896:4914   */\n      0xffffffffffffffff\n        /* \"#utility.yul\":4888:4894   */\n      dup2\n        /* \"#utility.yul\":4885:4915   */\n      gt\n        /* \"#utility.yul\":4882:4999   */\n      iszero\n      tag_336\n      jumpi\n        /* \"#utility.yul\":4918:4997   */\n      tag_337\n      tag_240\n      jump\t// in\n    tag_337:\n        /* \"#utility.yul\":4882:4999   */\n    tag_336:\n        /* \"#utility.yul\":5023:5086   */\n      tag_338\n        /* \"#utility.yul\":5078:5085   */\n      dup9\n        /* \"#utility.yul\":5069:5075   */\n      dup3\n        /* \"#utility.yul\":5058:5067   */\n      dup10\n        /* \"#utility.yul\":5054:5076   */\n      add\n        /* \"#utility.yul\":5023:5086   */\n      tag_254\n      jump\t// in\n    tag_338:\n        /* \"#utility.yul\":5013:5086   */\n      swap3\n      pop\n        /* \"#utility.yul\":4808:5096   */\n      pop\n        /* \"#utility.yul\":5163:5166   */\n      0x80\n        /* \"#utility.yul\":5152:5161   */\n      dup7\n        /* \"#utility.yul\":5148:5167   */\n      add\n        /* \"#utility.yul\":5135:5168   */\n      calldataload\n        /* \"#utility.yul\":5195:5213   */\n      0xffffffffffffffff\n        /* \"#utility.yul\":5187:5193   */\n      dup2\n        /* \"#utility.yul\":5184:5214   */\n      gt\n        /* \"#utility.yul\":5181:5298   */\n      iszero\n      tag_339\n      jumpi\n        /* \"#utility.yul\":5217:5296   */\n      tag_340\n      tag_240\n      jump\t// in\n    tag_340:\n        /* \"#utility.yul\":5181:5298   */\n    tag_339:\n        /* \"#utility.yul\":5322:5385   */\n      tag_341\n        /* \"#utility.yul\":5377:5384   */\n      dup9\n        /* \"#utility.yul\":5368:5374   */\n      dup3\n        /* \"#utility.yul\":5357:5366   */\n      dup10\n        /* \"#utility.yul\":5353:5375   */\n      add\n        /* \"#utility.yul\":5322:5385   */\n      tag_254\n      jump\t// in\n    tag_341:\n        /* \"#utility.yul\":5312:5385   */\n      swap2\n      pop\n        /* \"#utility.yul\":5106:5395   */\n      pop\n        /* \"#utility.yul\":3591:5402   */\n      swap3\n      swap6\n      pop\n      swap3\n      swap6\n      swap1\n      swap4\n      pop\n      jump\t// out\n        /* \"#utility.yul\":5408:6242   */\n    tag_41:\n        /* \"#utility.yul\":5496:5502   */\n      0x00\n        /* \"#utility.yul\":5504:5510   */\n      dup1\n        /* \"#utility.yul\":5553:5555   */\n      0x40\n        /* \"#utility.yul\":5541:5550   */\n      dup4\n        /* \"#utility.yul\":5532:5539   */\n      dup6\n        /* \"#utility.yul\":5528:5551   */\n      sub\n        /* \"#utility.yul\":5524:5556   */\n      slt\n        /* \"#utility.yul\":5521:5640   */\n      iszero\n      tag_343\n      jumpi\n        /* \"#utility.yul\":5559:5638   */\n      tag_344\n      tag_239\n      jump\t// in\n    tag_344:\n        /* \"#utility.yul\":5521:5640   */\n    tag_343:\n        /* \"#utility.yul\":5707:5708   */\n      0x00\n        /* \"#utility.yul\":5696:5705   */\n      dup4\n        /* \"#utility.yul\":5692:5709   */\n      add\n        /* \"#utility.yul\":5679:5710   */\n      calldataload\n        /* \"#utility.yul\":5737:5755   */\n      0xffffffffffffffff\n        /* \"#utility.yul\":5729:5735   */\n      dup2\n        /* \"#utility.yul\":5726:5756   */\n      gt\n        /* \"#utility.yul\":5723:5840   */\n      iszero\n      tag_345\n      jumpi\n        /* \"#utility.yul\":5759:5838   */\n      tag_346\n      tag_240\n      jump\t// in\n    tag_346:\n        /* \"#utility.yul\":5723:5840   */\n    tag_345:\n        /* \"#utility.yul\":5864:5927   */\n      tag_347\n        /* \"#utility.yul\":5919:5926   */\n      dup6\n        /* \"#utility.yul\":5910:5916   */\n      dup3\n        /* \"#utility.yul\":5899:5908   */\n      dup7\n        /* \"#utility.yul\":5895:5917   */\n      add\n        /* \"#utility.yul\":5864:5927   */\n      tag_254\n      jump\t// in\n    tag_347:\n        /* \"#utility.yul\":5854:5927   */\n      swap3\n      pop\n        /* \"#utility.yul\":5650:5937   */\n      pop\n        /* \"#utility.yul\":6004:6006   */\n      0x20\n        /* \"#utility.yul\":5993:6002   */\n      dup4\n        /* \"#utility.yul\":5989:6007   */\n      add\n        /* \"#utility.yul\":5976:6008   */\n      calldataload\n        /* \"#utility.yul\":6035:6053   */\n      0xffffffffffffffff\n        /* \"#utility.yul\":6027:6033   */\n      dup2\n        /* \"#utility.yul\":6024:6054   */\n      gt\n        /* \"#utility.yul\":6021:6138   */\n      iszero\n      tag_348\n      jumpi\n        /* \"#utility.yul\":6057:6136   */\n      tag_349\n      tag_240\n      jump\t// in\n    tag_349:\n        /* \"#utility.yul\":6021:6138   */\n    tag_348:\n        /* \"#utility.yul\":6162:6225   */\n      tag_350\n        /* \"#utility.yul\":6217:6224   */\n      dup6\n        /* \"#utility.yul\":6208:6214   */\n      dup3\n        /* \"#utility.yul\":6197:6206   */\n      dup7\n        /* \"#utility.yul\":6193:6215   */\n      add\n        /* \"#utility.yul\":6162:6225   */\n      tag_254\n      jump\t// in\n    tag_350:\n        /* \"#utility.yul\":6152:6225   */\n      swap2\n      pop\n        /* \"#utility.yul\":5947:6235   */\n      pop\n        /* \"#utility.yul\":5408:6242   */\n      swap3\n      pop\n      swap3\n      swap1\n      pop\n      jump\t// out\n        /* \"#utility.yul\":6248:6338   */\n    tag_255:\n        /* \"#utility.yul\":6282:6289   */\n      0x00\n        /* \"#utility.yul\":6325:6330   */\n      dup2\n        /* \"#utility.yul\":6318:6331   */\n      iszero\n        /* \"#utility.yul\":6311:6332   */\n      iszero\n        /* \"#utility.yul\":6300:6332   */\n      swap1\n      pop\n        /* \"#utility.yul\":6248:6338   */\n      swap2\n      swap1\n      pop\n      jump\t// out\n        /* \"#utility.yul\":6344:6460   */\n    tag_256:\n        /* \"#utility.yul\":6414:6435   */\n      tag_353\n        /* \"#utility.yul\":6429:6434   */\n      dup2\n        /* \"#utility.yul\":6414:6435   */\n      tag_255\n      jump\t// in\n    tag_353:\n        /* \"#utility.yul\":6407:6412   */\n      dup2\n        /* \"#utility.yul\":6404:6436   */\n      eq\n        /* \"#utility.yul\":6394:6454   */\n      tag_354\n      jumpi\n        /* \"#utility.yul\":6450:6451   */\n      0x00\n        /* \"#utility.yul\":6447:6448   */\n      dup1\n        /* \"#utility.yul\":6440:6452   */\n      revert\n        /* \"#utility.yul\":6394:6454   */\n    tag_354:\n        /* \"#utility.yul\":6344:6460   */\n      pop\n      jump\t// out\n        /* \"#utility.yul\":6466:6599   */\n    tag_257:\n        /* \"#utility.yul\":6509:6514   */\n      0x00\n        /* \"#utility.yul\":6547:6553   */\n      dup2\n        /* \"#utility.yul\":6534:6554   */\n      calldataload\n        /* \"#utility.yul\":6525:6554   */\n      swap1\n      pop\n        /* \"#utility.yul\":6563:6593   */\n      tag_356\n        /* \"#utility.yul\":6587:6592   */\n      dup2\n        /* \"#utility.yul\":6563:6593   */\n      tag_256\n      jump\t// in\n    tag_356:\n        /* \"#utility.yul\":6466:6599   */\n      swap3\n      swap2\n      pop\n      pop\n      jump\t// out\n        /* \"#utility.yul\":6605:6731   */\n    tag_258:\n        /* \"#utility.yul\":6642:6649   */\n      0x00\n        /* \"#utility.yul\":6682:6724   */\n      0xffffffffffffffffffffffffffffffffffffffff\n        /* \"#utility.yul\":6675:6680   */\n      dup3\n        /* \"#utility.yul\":6671:6725   */\n      and\n        /* \"#utility.yul\":6660:6725   */\n      swap1\n      pop\n        /* \"#utility.yul\":6605:6731   */\n      swap2\n      swap1\n      pop\n      jump\t// out\n        /* \"#utility.yul\":6737:6833   */\n    tag_259:\n        /* \"#utility.yul\":6774:6781   */\n      0x00\n        /* \"#utility.yul\":6803:6827   */\n      tag_359\n        /* \"#utility.yul\":6821:6826   */\n      dup3\n        /* \"#utility.yul\":6803:6827   */\n      tag_258\n      jump\t// in\n    tag_359:\n        /* \"#utility.yul\":6792:6827   */\n      swap1\n      pop\n        /* \"#utility.yul\":6737:6833   */\n      swap2\n      swap1\n      pop\n      jump\t// out\n        /* \"#utility.yul\":6839:6961   */\n    tag_260:\n        /* \"#utility.yul\":6912:6936   */\n      tag_361\n        /* \"#utility.yul\":6930:6935   */\n      dup2\n        /* \"#utility.yul\":6912:6936   */\n      tag_259\n      jump\t// in\n    tag_361:\n        /* \"#utility.yul\":6905:6910   */\n      dup2\n        /* \"#utility.yul\":6902:6937   */\n      eq\n        /* \"#utility.yul\":6892:6955   */\n      tag_362\n      jumpi\n        /* \"#utility.yul\":6951:6952   */\n      0x00\n        /* \"#utility.yul\":6948:6949   */\n      dup1\n        /* \"#utility.yul\":6941:6953   */\n      revert\n        /* \"#utility.yul\":6892:6955   */\n    tag_362:\n        /* \"#utility.yul\":6839:6961   */\n      pop\n      jump\t// out\n        /* \"#utility.yul\":6967:7106   */\n    tag_261:\n        /* \"#utility.yul\":7013:7018   */\n      0x00\n        /* \"#utility.yul\":7051:7057   */\n      dup2\n        /* \"#utility.yul\":7038:7058   */\n      calldataload\n        /* \"#utility.yul\":7029:7058   */\n      swap1\n      pop\n        /* \"#utility.yul\":7067:7100   */\n      tag_364\n        /* \"#utility.yul\":7094:7099   */\n      dup2\n        /* \"#utility.yul\":7067:7100   */\n      tag_260\n      jump\t// in\n    tag_364:\n        /* \"#utility.yul\":6967:7106   */\n      swap3\n      swap2\n      pop\n      pop\n      jump\t// out\n        /* \"#utility.yul\":7112:7580   */\n    tag_48:\n        /* \"#utility.yul\":7177:7183   */\n      0x00\n        /* \"#utility.yul\":7185:7191   */\n      dup1\n        /* \"#utility.yul\":7234:7236   */\n      0x40\n        /* \"#utility.yul\":7222:7231   */\n      dup4\n        /* \"#utility.yul\":7213:7220   */\n      dup6\n        /* \"#utility.yul\":7209:7232   */\n      sub\n        /* \"#utility.yul\":7205:7237   */\n      slt\n        /* \"#utility.yul\":7202:7321   */\n      iszero\n      tag_366\n      jumpi\n        /* \"#utility.yul\":7240:7319   */\n      tag_367\n      tag_239\n      jump\t// in\n    tag_367:\n        /* \"#utility.yul\":7202:7321   */\n    tag_366:\n        /* \"#utility.yul\":7360:7361   */\n      0x00\n        /* \"#utility.yul\":7385:7435   */\n      tag_368\n        /* \"#utility.yul\":7427:7434   */\n      dup6\n        /* \"#utility.yul\":7418:7424   */\n      dup3\n        /* \"#utility.yul\":7407:7416   */\n      dup7\n        /* \"#utility.yul\":7403:7425   */\n      add\n        /* \"#utility.yul\":7385:7435   */\n      tag_257\n      jump\t// in\n    tag_368:\n        /* \"#utility.yul\":7375:7435   */\n      swap3\n      pop\n        /* \"#utility.yul\":7331:7445   */\n      pop\n        /* \"#utility.yul\":7484:7486   */\n      0x20\n        /* \"#utility.yul\":7510:7563   */\n      tag_369\n        /* \"#utility.yul\":7555:7562   */\n      dup6\n        /* \"#utility.yul\":7546:7552   */\n      dup3\n        /* \"#utility.yul\":7535:7544   */\n      dup7\n        /* \"#utility.yul\":7531:7553   */\n      add\n        /* \"#utility.yul\":7510:7563   */\n      tag_261\n      jump\t// in\n    tag_369:\n        /* \"#utility.yul\":7500:7563   */\n      swap2\n      pop\n        /* \"#utility.yul\":7455:7573   */\n      pop\n        /* \"#utility.yul\":7112:7580   */\n      swap3\n      pop\n      swap3\n      swap1\n      pop\n      jump\t// out\n        /* \"#utility.yul\":7586:7915   */\n    tag_52:\n        /* \"#utility.yul\":7645:7651   */\n      0x00\n        /* \"#utility.yul\":7694:7696   */\n      0x20\n        /* \"#utility.yul\":7682:7691   */\n      dup3\n        /* \"#utility.yul\":7673:7680   */\n      dup5\n        /* \"#utility.yul\":7669:7692   */\n      sub\n        /* \"#utility.yul\":7665:7697   */\n      slt\n        /* \"#utility.yul\":7662:7781   */\n      iszero\n      tag_371\n      jumpi\n        /* \"#utility.yul\":7700:7779   */\n      tag_372\n      tag_239\n      jump\t// in\n    tag_372:\n        /* \"#utility.yul\":7662:7781   */\n    tag_371:\n        /* \"#utility.yul\":7820:7821   */\n      0x00\n        /* \"#utility.yul\":7845:7898   */\n      tag_373\n        /* \"#utility.yul\":7890:7897   */\n      dup5\n        /* \"#utility.yul\":7881:7887   */\n      dup3\n        /* \"#utility.yul\":7870:7879   */\n      dup6\n        /* \"#utility.yul\":7866:7888   */\n      add\n        /* \"#utility.yul\":7845:7898   */\n      tag_261\n      jump\t// in\n    tag_373:\n        /* \"#utility.yul\":7835:7898   */\n      swap2\n      pop\n        /* \"#utility.yul\":7791:7908   */\n      pop\n        /* \"#utility.yul\":7586:7915   */\n      swap3\n      swap2\n      pop\n      pop\n      jump\t// out\n        /* \"#utility.yul\":7921:8039   */\n    tag_262:\n        /* \"#utility.yul\":8008:8032   */\n      tag_375\n        /* \"#utility.yul\":8026:8031   */\n      dup2\n        /* \"#utility.yul\":8008:8032   */\n      tag_259\n      jump\t// in\n    tag_375:\n        /* \"#utility.yul\":8003:8006   */\n      dup3\n        /* \"#utility.yul\":7996:8033   */\n      mstore\n        /* \"#utility.yul\":7921:8039   */\n      pop\n      pop\n      jump\t// out\n        /* \"#utility.yul\":8045:8144   */\n    tag_263:\n        /* \"#utility.yul\":8097:8103   */\n      0x00\n        /* \"#utility.yul\":8131:8136   */\n      dup2\n        /* \"#utility.yul\":8125:8137   */\n      mload\n        /* \"#utility.yul\":8115:8137   */\n      swap1\n      pop\n        /* \"#utility.yul\":8045:8144   */\n      swap2\n      swap1\n      pop\n      jump\t// out\n        /* \"#utility.yul\":8150:8319   */\n    tag_264:\n        /* \"#utility.yul\":8234:8245   */\n      0x00\n        /* \"#utility.yul\":8268:8274   */\n      dup3\n        /* \"#utility.yul\":8263:8266   */\n      dup3\n        /* \"#utility.yul\":8256:8275   */\n      mstore\n        /* \"#utility.yul\":8308:8312   */\n      0x20\n        /* \"#utility.yul\":8303:8306   */\n      dup3\n        /* \"#utility.yul\":8299:8313   */\n      add\n        /* \"#utility.yul\":8284:8313   */\n      swap1\n      pop\n        /* \"#utility.yul\":8150:8319   */\n      swap3\n      swap2\n      pop\n      pop\n      jump\t// out\n        /* \"#utility.yul\":8325:8632   */\n    tag_265:\n        /* \"#utility.yul\":8393:8394   */\n      0x00\n        /* \"#utility.yul\":8403:8516   */\n    tag_379:\n        /* \"#utility.yul\":8417:8423   */\n      dup4\n        /* \"#utility.yul\":8414:8415   */\n      dup2\n        /* \"#utility.yul\":8411:8424   */\n      lt\n        /* \"#utility.yul\":8403:8516   */\n      iszero\n      tag_381\n      jumpi\n        /* \"#utility.yul\":8502:8503   */\n      dup1\n        /* \"#utility.yul\":8497:8500   */\n      dup3\n        /* \"#utility.yul\":8493:8504   */\n      add\n        /* \"#utility.yul\":8487:8505   */\n      mload\n        /* \"#utility.yul\":8483:8484   */\n      dup2\n        /* \"#utility.yul\":8478:8481   */\n      dup5\n        /* \"#utility.yul\":8474:8485   */\n      add\n        /* \"#utility.yul\":8467:8506   */\n      mstore\n        /* \"#utility.yul\":8439:8441   */\n      0x20\n        /* \"#utility.yul\":8436:8437   */\n      dup2\n        /* \"#utility.yul\":8432:8442   */\n      add\n        /* \"#utility.yul\":8427:8442   */\n      swap1\n      pop\n        /* \"#utility.yul\":8403:8516   */\n      jump(tag_379)\n    tag_381:\n        /* \"#utility.yul\":8534:8540   */\n      dup4\n        /* \"#utility.yul\":8531:8532   */\n      dup2\n        /* \"#utility.yul\":8528:8541   */\n      gt\n        /* \"#utility.yul\":8525:8626   */\n      iszero\n      tag_382\n      jumpi\n        /* \"#utility.yul\":8614:8615   */\n      0x00\n        /* \"#utility.yul\":8605:8611   */\n      dup5\n        /* \"#utility.yul\":8600:8603   */\n      dup5\n        /* \"#utility.yul\":8596:8612   */\n      add\n        /* \"#utility.yul\":8589:8616   */\n      mstore\n        /* \"#utility.yul\":8525:8626   */\n    tag_382:\n        /* \"#utility.yul\":8374:8632   */\n      pop\n        /* \"#utility.yul\":8325:8632   */\n      pop\n      pop\n      pop\n      jump\t// out\n        /* \"#utility.yul\":8638:9002   */\n    tag_266:\n        /* \"#utility.yul\":8726:8729   */\n      0x00\n        /* \"#utility.yul\":8754:8793   */\n      tag_384\n        /* \"#utility.yul\":8787:8792   */\n      dup3\n        /* \"#utility.yul\":8754:8793   */\n      tag_263\n      jump\t// in\n    tag_384:\n        /* \"#utility.yul\":8809:8880   */\n      tag_385\n        /* \"#utility.yul\":8873:8879   */\n      dup2\n        /* \"#utility.yul\":8868:8871   */\n      dup6\n        /* \"#utility.yul\":8809:8880   */\n      tag_264\n      jump\t// in\n    tag_385:\n        /* \"#utility.yul\":8802:8880   */\n      swap4\n      pop\n        /* \"#utility.yul\":8889:8941   */\n      tag_386\n        /* \"#utility.yul\":8934:8940   */\n      dup2\n        /* \"#utility.yul\":8929:8932   */\n      dup6\n        /* \"#utility.yul\":8922:8926   */\n      0x20\n        /* \"#utility.yul\":8915:8920   */\n      dup7\n        /* \"#utility.yul\":8911:8927   */\n      add\n        /* \"#utility.yul\":8889:8941   */\n      tag_265\n      jump\t// in\n    tag_386:\n        /* \"#utility.yul\":8966:8995   */\n      tag_387\n        /* \"#utility.yul\":8988:8994   */\n      dup2\n        /* \"#utility.yul\":8966:8995   */\n      tag_247\n      jump\t// in\n    tag_387:\n        /* \"#utility.yul\":8961:8964   */\n      dup5\n        /* \"#utility.yul\":8957:8996   */\n      add\n        /* \"#utility.yul\":8950:8996   */\n      swap2\n      pop\n        /* \"#utility.yul\":8730:9002   */\n      pop\n        /* \"#utility.yul\":8638:9002   */\n      swap3\n      swap2\n      pop\n      pop\n      jump\t// out\n        /* \"#utility.yul\":9008:9117   */\n    tag_267:\n        /* \"#utility.yul\":9089:9110   */\n      tag_389\n        /* \"#utility.yul\":9104:9109   */\n      dup2\n        /* \"#utility.yul\":9089:9110   */\n      tag_255\n      jump\t// in\n    tag_389:\n        /* \"#utility.yul\":9084:9087   */\n      dup3\n        /* \"#utility.yul\":9077:9111   */\n      mstore\n        /* \"#utility.yul\":9008:9117   */\n      pop\n      pop\n      jump\t// out\n        /* \"#utility.yul\":9123:10044   */\n    tag_55:\n        /* \"#utility.yul\":9378:9382   */\n      0x00\n        /* \"#utility.yul\":9416:9419   */\n      0xc0\n        /* \"#utility.yul\":9405:9414   */\n      dup3\n        /* \"#utility.yul\":9401:9420   */\n      add\n        /* \"#utility.yul\":9393:9420   */\n      swap1\n      pop\n        /* \"#utility.yul\":9430:9501   */\n      tag_391\n        /* \"#utility.yul\":9498:9499   */\n      0x00\n        /* \"#utility.yul\":9487:9496   */\n      dup4\n        /* \"#utility.yul\":9483:9500   */\n      add\n        /* \"#utility.yul\":9474:9480   */\n      dup10\n        /* \"#utility.yul\":9430:9501   */\n      tag_262\n      jump\t// in\n    tag_391:\n        /* \"#utility.yul\":9548:9557   */\n      dup2\n        /* \"#utility.yul\":9542:9546   */\n      dup2\n        /* \"#utility.yul\":9538:9558   */\n      sub\n        /* \"#utility.yul\":9533:9535   */\n      0x20\n        /* \"#utility.yul\":9522:9531   */\n      dup4\n        /* \"#utility.yul\":9518:9536   */\n      add\n        /* \"#utility.yul\":9511:9559   */\n      mstore\n        /* \"#utility.yul\":9576:9654   */\n      tag_392\n        /* \"#utility.yul\":9649:9653   */\n      dup2\n        /* \"#utility.yul\":9640:9646   */\n      dup9\n        /* \"#utility.yul\":9576:9654   */\n      tag_266\n      jump\t// in\n    tag_392:\n        /* \"#utility.yul\":9568:9654   */\n      swap1\n      pop\n        /* \"#utility.yul\":9701:9710   */\n      dup2\n        /* \"#utility.yul\":9695:9699   */\n      dup2\n        /* \"#utility.yul\":9691:9711   */\n      sub\n        /* \"#utility.yul\":9686:9688   */\n      0x40\n        /* \"#utility.yul\":9675:9684   */\n      dup4\n        /* \"#utility.yul\":9671:9689   */\n      add\n        /* \"#utility.yul\":9664:9712   */\n      mstore\n        /* \"#utility.yul\":9729:9807   */\n      tag_393\n        /* \"#utility.yul\":9802:9806   */\n      dup2\n        /* \"#utility.yul\":9793:9799   */\n      dup8\n        /* \"#utility.yul\":9729:9807   */\n      tag_266\n      jump\t// in\n    tag_393:\n        /* \"#utility.yul\":9721:9807   */\n      swap1\n      pop\n        /* \"#utility.yul\":9817:9883   */\n      tag_394\n        /* \"#utility.yul\":9879:9881   */\n      0x60\n        /* \"#utility.yul\":9868:9877   */\n      dup4\n        /* \"#utility.yul\":9864:9882   */\n      add\n        /* \"#utility.yul\":9855:9861   */\n      dup7\n        /* \"#utility.yul\":9817:9883   */\n      tag_267\n      jump\t// in\n    tag_394:\n        /* \"#utility.yul\":9893:9960   */\n      tag_395\n        /* \"#utility.yul\":9955:9958   */\n      0x80\n        /* \"#utility.yul\":9944:9953   */\n      dup4\n        /* \"#utility.yul\":9940:9959   */\n      add\n        /* \"#utility.yul\":9931:9937   */\n      dup6\n        /* \"#utility.yul\":9893:9960   */\n      tag_267\n      jump\t// in\n    tag_395:\n        /* \"#utility.yul\":9970:10037   */\n      tag_396\n        /* \"#utility.yul\":10032:10035   */\n      0xa0\n        /* \"#utility.yul\":10021:10030   */\n      dup4\n        /* \"#utility.yul\":10017:10036   */\n      add\n        /* \"#utility.yul\":10008:10014   */\n      dup5\n        /* \"#utility.yul\":9970:10037   */\n      tag_267\n      jump\t// in\n    tag_396:\n        /* \"#utility.yul\":9123:10044   */\n      swap8\n      swap7\n      pop\n      pop\n      pop\n      pop\n      pop\n      pop\n      pop\n      jump\t// out\n        /* \"#utility.yul\":10050:10785   */\n    tag_62:\n        /* \"#utility.yul\":10267:10271   */\n      0x00\n        /* \"#utility.yul\":10305:10308   */\n      0x80\n        /* \"#utility.yul\":10294:10303   */\n      dup3\n        /* \"#utility.yul\":10290:10309   */\n      add\n        /* \"#utility.yul\":10282:10309   */\n      swap1\n      pop\n        /* \"#utility.yul\":10319:10390   */\n      tag_398\n        /* \"#utility.yul\":10387:10388   */\n      0x00\n        /* \"#utility.yul\":10376:10385   */\n      dup4\n        /* \"#utility.yul\":10372:10389   */\n      add\n        /* \"#utility.yul\":10363:10369   */\n      dup8\n        /* \"#utility.yul\":10319:10390   */\n      tag_244\n      jump\t// in\n    tag_398:\n        /* \"#utility.yul\":10437:10446   */\n      dup2\n        /* \"#utility.yul\":10431:10435   */\n      dup2\n        /* \"#utility.yul\":10427:10447   */\n      sub\n        /* \"#utility.yul\":10422:10424   */\n      0x20\n        /* \"#utility.yul\":10411:10420   */\n      dup4\n        /* \"#utility.yul\":10407:10425   */\n      add\n        /* \"#utility.yul\":10400:10448   */\n      mstore\n        /* \"#utility.yul\":10465:10543   */\n      tag_399\n        /* \"#utility.yul\":10538:10542   */\n      dup2\n        /* \"#utility.yul\":10529:10535   */\n      dup7\n        /* \"#utility.yul\":10465:10543   */\n      tag_266\n      jump\t// in\n    tag_399:\n        /* \"#utility.yul\":10457:10543   */\n      swap1\n      pop\n        /* \"#utility.yul\":10590:10599   */\n      dup2\n        /* \"#utility.yul\":10584:10588   */\n      dup2\n        /* \"#utility.yul\":10580:10600   */\n      sub\n        /* \"#utility.yul\":10575:10577   */\n      0x40\n        /* \"#utility.yul\":10564:10573   */\n      dup4\n        /* \"#utility.yul\":10560:10578   */\n      add\n        /* \"#utility.yul\":10553:10601   */\n      mstore\n        /* \"#utility.yul\":10618:10696   */\n      tag_400\n        /* \"#utility.yul\":10691:10695   */\n      dup2\n        /* \"#utility.yul\":10682:10688   */\n      dup6\n        /* \"#utility.yul\":10618:10696   */\n      tag_266\n      jump\t// in\n    tag_400:\n        /* \"#utility.yul\":10610:10696   */\n      swap1\n      pop\n        /* \"#utility.yul\":10706:10778   */\n      tag_401\n        /* \"#utility.yul\":10774:10776   */\n      0x60\n        /* \"#utility.yul\":10763:10772   */\n      dup4\n        /* \"#utility.yul\":10759:10777   */\n      add\n        /* \"#utility.yul\":10750:10756   */\n      dup5\n        /* \"#utility.yul\":10706:10778   */\n      tag_244\n      jump\t// in\n    tag_401:\n        /* \"#utility.yul\":10050:10785   */\n      swap6\n      swap5\n      pop\n      pop\n      pop\n      pop\n      pop\n      jump\t// out\n        /* \"#utility.yul\":10791:11910   */\n    tag_69:\n        /* \"#utility.yul\":11096:11100   */\n      0x00\n        /* \"#utility.yul\":11134:11137   */\n      0xa0\n        /* \"#utility.yul\":11123:11132   */\n      dup3\n        /* \"#utility.yul\":11119:11138   */\n      add\n        /* \"#utility.yul\":11111:11138   */\n      swap1\n      pop\n        /* \"#utility.yul\":11184:11193   */\n      dup2\n        /* \"#utility.yul\":11178:11182   */\n      dup2\n        /* \"#utility.yul\":11174:11194   */\n      sub\n        /* \"#utility.yul\":11170:11171   */\n      0x00\n        /* \"#utility.yul\":11159:11168   */\n      dup4\n        /* \"#utility.yul\":11155:11172   */\n      add\n        /* \"#utility.yul\":11148:11195   */\n      mstore\n        /* \"#utility.yul\":11212:11290   */\n      tag_403\n        /* \"#utility.yul\":11285:11289   */\n      dup2\n        /* \"#utility.yul\":11276:11282   */\n      dup9\n        /* \"#utility.yul\":11212:11290   */\n      tag_266\n      jump\t// in\n    tag_403:\n        /* \"#utility.yul\":11204:11290   */\n      swap1\n      pop\n        /* \"#utility.yul\":11337:11346   */\n      dup2\n        /* \"#utility.yul\":11331:11335   */\n      dup2\n        /* \"#utility.yul\":11327:11347   */\n      sub\n        /* \"#utility.yul\":11322:11324   */\n      0x20\n        /* \"#utility.yul\":11311:11320   */\n      dup4\n        /* \"#utility.yul\":11307:11325   */\n      add\n        /* \"#utility.yul\":11300:11348   */\n      mstore\n        /* \"#utility.yul\":11365:11443   */\n      tag_404\n        /* \"#utility.yul\":11438:11442   */\n      dup2\n        /* \"#utility.yul\":11429:11435   */\n      dup8\n        /* \"#utility.yul\":11365:11443   */\n      tag_266\n      jump\t// in\n    tag_404:\n        /* \"#utility.yul\":11357:11443   */\n      swap1\n      pop\n        /* \"#utility.yul\":11490:11499   */\n      dup2\n        /* \"#utility.yul\":11484:11488   */\n      dup2\n        /* \"#utility.yul\":11480:11500   */\n      sub\n        /* \"#utility.yul\":11475:11477   */\n      0x40\n        /* \"#utility.yul\":11464:11473   */\n      dup4\n        /* \"#utility.yul\":11460:11478   */\n      add\n        /* \"#utility.yul\":11453:11501   */\n      mstore\n        /* \"#utility.yul\":11518:11596   */\n      tag_405\n        /* \"#utility.yul\":11591:11595   */\n      dup2\n        /* \"#utility.yul\":11582:11588   */\n      dup7\n        /* \"#utility.yul\":11518:11596   */\n      tag_266\n      jump\t// in\n    tag_405:\n        /* \"#utility.yul\":11510:11596   */\n      swap1\n      pop\n        /* \"#utility.yul\":11643:11652   */\n      dup2\n        /* \"#utility.yul\":11637:11641   */\n      dup2\n        /* \"#utility.yul\":11633:11653   */\n      sub\n        /* \"#utility.yul\":11628:11630   */\n      0x60\n        /* \"#utility.yul\":11617:11626   */\n      dup4\n        /* \"#utility.yul\":11613:11631   */\n      add\n        /* \"#utility.yul\":11606:11654   */\n      mstore\n        /* \"#utility.yul\":11671:11749   */\n      tag_406\n        /* \"#utility.yul\":11744:11748   */\n      dup2\n        /* \"#utility.yul\":11735:11741   */\n      dup6\n        /* \"#utility.yul\":11671:11749   */\n      tag_266\n      jump\t// in\n    tag_406:\n        /* \"#utility.yul\":11663:11749   */\n      swap1\n      pop\n        /* \"#utility.yul\":11797:11806   */\n      dup2\n        /* \"#utility.yul\":11791:11795   */\n      dup2\n        /* \"#utility.yul\":11787:11807   */\n      sub\n        /* \"#utility.yul\":11781:11784   */\n      0x80\n        /* \"#utility.yul\":11770:11779   */\n      dup4\n        /* \"#utility.yul\":11766:11785   */\n      add\n        /* \"#utility.yul\":11759:11808   */\n      mstore\n        /* \"#utility.yul\":11825:11903   */\n      tag_407\n        /* \"#utility.yul\":11898:11902   */\n      dup2\n        /* \"#utility.yul\":11889:11895   */\n      dup5\n        /* \"#utility.yul\":11825:11903   */\n      tag_266\n      jump\t// in\n    tag_407:\n        /* \"#utility.yul\":11817:11903   */\n      swap1\n      pop\n        /* \"#utility.yul\":10791:11910   */\n      swap7\n      swap6\n      pop\n      pop\n      pop\n      pop\n      pop\n      pop\n      jump\t// out\n        /* \"#utility.yul\":11916:12138   */\n    tag_73:\n        /* \"#utility.yul\":12009:12013   */\n      0x00\n        /* \"#utility.yul\":12047:12049   */\n      0x20\n        /* \"#utility.yul\":12036:12045   */\n      dup3\n        /* \"#utility.yul\":12032:12050   */\n      add\n        /* \"#utility.yul\":12024:12050   */\n      swap1\n      pop\n        /* \"#utility.yul\":12060:12131   */\n      tag_409\n        /* \"#utility.yul\":12128:12129   */\n      0x00\n        /* \"#utility.yul\":12117:12126   */\n      dup4\n        /* \"#utility.yul\":12113:12130   */\n      add\n        /* \"#utility.yul\":12104:12110   */\n      dup5\n        /* \"#utility.yul\":12060:12131   */\n      tag_262\n      jump\t// in\n    tag_409:\n        /* \"#utility.yul\":11916:12138   */\n      swap3\n      swap2\n      pop\n      pop\n      jump\t// out\n        /* \"#utility.yul\":12144:12354   */\n    tag_77:\n        /* \"#utility.yul\":12231:12235   */\n      0x00\n        /* \"#utility.yul\":12269:12271   */\n      0x20\n        /* \"#utility.yul\":12258:12267   */\n      dup3\n        /* \"#utility.yul\":12254:12272   */\n      add\n        /* \"#utility.yul\":12246:12272   */\n      swap1\n      pop\n        /* \"#utility.yul\":12282:12347   */\n      tag_411\n        /* \"#utility.yul\":12344:12345   */\n      0x00\n        /* \"#utility.yul\":12333:12342   */\n      dup4\n        /* \"#utility.yul\":12329:12346   */\n      add\n        /* \"#utility.yul\":12320:12326   */\n      dup5\n        /* \"#utility.yul\":12282:12347   */\n      tag_267\n      jump\t// in\n    tag_411:\n        /* \"#utility.yul\":12144:12354   */\n      swap3\n      swap2\n      pop\n      pop\n      jump\t// out\n        /* \"#utility.yul\":12360:12533   */\n    tag_268:\n        /* \"#utility.yul\":12500:12525   */\n      0x566f7465722068617320616c726561647920766f746564000000000000000000\n        /* \"#utility.yul\":12496:12497   */\n      0x00\n        /* \"#utility.yul\":12488:12494   */\n      dup3\n        /* \"#utility.yul\":12484:12498   */\n      add\n        /* \"#utility.yul\":12477:12526   */\n      mstore\n        /* \"#utility.yul\":12360:12533   */\n      pop\n      jump\t// out\n        /* \"#utility.yul\":12539:12905   */\n    tag_269:\n        /* \"#utility.yul\":12681:12684   */\n      0x00\n        /* \"#utility.yul\":12702:12769   */\n      tag_414\n        /* \"#utility.yul\":12766:12768   */\n      0x17\n        /* \"#utility.yul\":12761:12764   */\n      dup4\n        /* \"#utility.yul\":12702:12769   */\n      tag_264\n      jump\t// in\n    tag_414:\n        /* \"#utility.yul\":12695:12769   */\n      swap2\n      pop\n        /* \"#utility.yul\":12778:12871   */\n      tag_415\n        /* \"#utility.yul\":12867:12870   */\n      dup3\n        /* \"#utility.yul\":12778:12871   */\n      tag_268\n      jump\t// in\n    tag_415:\n        /* \"#utility.yul\":12896:12898   */\n      0x20\n        /* \"#utility.yul\":12891:12894   */\n      dup3\n        /* \"#utility.yul\":12887:12899   */\n      add\n        /* \"#utility.yul\":12880:12899   */\n      swap1\n      pop\n        /* \"#utility.yul\":12539:12905   */\n      swap2\n      swap1\n      pop\n      jump\t// out\n        /* \"#utility.yul\":12911:13330   */\n    tag_106:\n        /* \"#utility.yul\":13077:13081   */\n      0x00\n        /* \"#utility.yul\":13115:13117   */\n      0x20\n        /* \"#utility.yul\":13104:13113   */\n      dup3\n        /* \"#utility.yul\":13100:13118   */\n      add\n        /* \"#utility.yul\":13092:13118   */\n      swap1\n      pop\n        /* \"#utility.yul\":13164:13173   */\n      dup2\n        /* \"#utility.yul\":13158:13162   */\n      dup2\n        /* \"#utility.yul\":13154:13174   */\n      sub\n        /* \"#utility.yul\":13150:13151   */\n      0x00\n        /* \"#utility.yul\":13139:13148   */\n      dup4\n        /* \"#utility.yul\":13135:13152   */\n      add\n        /* \"#utility.yul\":13128:13175   */\n      mstore\n        /* \"#utility.yul\":13192:13323   */\n      tag_417\n        /* \"#utility.yul\":13318:13322   */\n      dup2\n        /* \"#utility.yul\":13192:13323   */\n      tag_269\n      jump\t// in\n    tag_417:\n        /* \"#utility.yul\":13184:13323   */\n      swap1\n      pop\n        /* \"#utility.yul\":12911:13330   */\n      swap2\n      swap1\n      pop\n      jump\t// out\n        /* \"#utility.yul\":13336:13507   */\n    tag_270:\n        /* \"#utility.yul\":13476:13499   */\n      0x566f746572206973206e6f742076657269666965640000000000000000000000\n        /* \"#utility.yul\":13472:13473   */\n      0x00\n        /* \"#utility.yul\":13464:13470   */\n      dup3\n        /* \"#utility.yul\":13460:13474   */\n      add\n        /* \"#utility.yul\":13453:13500   */\n      mstore\n        /* \"#utility.yul\":13336:13507   */\n      pop\n      jump\t// out\n        /* \"#utility.yul\":13513:13879   */\n    tag_271:\n        /* \"#utility.yul\":13655:13658   */\n      0x00\n        /* \"#utility.yul\":13676:13743   */\n      tag_420\n        /* \"#utility.yul\":13740:13742   */\n      0x15\n        /* \"#utility.yul\":13735:13738   */\n      dup4\n        /* \"#utility.yul\":13676:13743   */\n      tag_264\n      jump\t// in\n    tag_420:\n        /* \"#utility.yul\":13669:13743   */\n      swap2\n      pop\n        /* \"#utility.yul\":13752:13845   */\n      tag_421\n        /* \"#utility.yul\":13841:13844   */\n      dup3\n        /* \"#utility.yul\":13752:13845   */\n      tag_270\n      jump\t// in\n    tag_421:\n        /* \"#utility.yul\":13870:13872   */\n      0x20\n        /* \"#utility.yul\":13865:13868   */\n      dup3\n        /* \"#utility.yul\":13861:13873   */\n      add\n        /* \"#utility.yul\":13854:13873   */\n      swap1\n      pop\n        /* \"#utility.yul\":13513:13879   */\n      swap2\n      swap1\n      pop\n      jump\t// out\n        /* \"#utility.yul\":13885:14304   */\n    tag_109:\n        /* \"#utility.yul\":14051:14055   */\n      0x00\n        /* \"#utility.yul\":14089:14091   */\n      0x20\n        /* \"#utility.yul\":14078:14087   */\n      dup3\n        /* \"#utility.yul\":14074:14092   */\n      add\n        /* \"#utility.yul\":14066:14092   */\n      swap1\n      pop\n        /* \"#utility.yul\":14138:14147   */\n      dup2\n        /* \"#utility.yul\":14132:14136   */\n      dup2\n        /* \"#utility.yul\":14128:14148   */\n      sub\n        /* \"#utility.yul\":14124:14125   */\n      0x00\n        /* \"#utility.yul\":14113:14122   */\n      dup4\n        /* \"#utility.yul\":14109:14126   */\n      add\n        /* \"#utility.yul\":14102:14149   */\n      mstore\n        /* \"#utility.yul\":14166:14297   */\n      tag_423\n        /* \"#utility.yul\":14292:14296   */\n      dup2\n        /* \"#utility.yul\":14166:14297   */\n      tag_271\n      jump\t// in\n    tag_423:\n        /* \"#utility.yul\":14158:14297   */\n      swap1\n      pop\n        /* \"#utility.yul\":13885:14304   */\n      swap2\n      swap1\n      pop\n      jump\t// out\n        /* \"#utility.yul\":14310:14484   */\n    tag_272:\n        /* \"#utility.yul\":14450:14476   */\n      0x456c656374696f6e20686173206e6f7420737461727465640000000000000000\n        /* \"#utility.yul\":14446:14447   */\n      0x00\n        /* \"#utility.yul\":14438:14444   */\n      dup3\n        /* \"#utility.yul\":14434:14448   */\n      add\n        /* \"#utility.yul\":14427:14477   */\n      mstore\n        /* \"#utility.yul\":14310:14484   */\n      pop\n      jump\t// out\n        /* \"#utility.yul\":14490:14856   */\n    tag_273:\n        /* \"#utility.yul\":14632:14635   */\n      0x00\n        /* \"#utility.yul\":14653:14720   */\n      tag_426\n        /* \"#utility.yul\":14717:14719   */\n      0x18\n        /* \"#utility.yul\":14712:14715   */\n      dup4\n        /* \"#utility.yul\":14653:14720   */\n      tag_264\n      jump\t// in\n    tag_426:\n        /* \"#utility.yul\":14646:14720   */\n      swap2\n      pop\n        /* \"#utility.yul\":14729:14822   */\n      tag_427\n        /* \"#utility.yul\":14818:14821   */\n      dup3\n        /* \"#utility.yul\":14729:14822   */\n      tag_272\n      jump\t// in\n    tag_427:\n        /* \"#utility.yul\":14847:14849   */\n      0x20\n        /* \"#utility.yul\":14842:14845   */\n      dup3\n        /* \"#utility.yul\":14838:14850   */\n      add\n        /* \"#utility.yul\":14831:14850   */\n      swap1\n      pop\n        /* \"#utility.yul\":14490:14856   */\n      swap2\n      swap1\n      pop\n      jump\t// out\n        /* \"#utility.yul\":14862:15281   */\n    tag_112:\n        /* \"#utility.yul\":15028:15032   */\n      0x00\n        /* \"#utility.yul\":15066:15068   */\n      0x20\n        /* \"#utility.yul\":15055:15064   */\n      dup3\n        /* \"#utility.yul\":15051:15069   */\n      add\n        /* \"#utility.yul\":15043:15069   */\n      swap1\n      pop\n        /* \"#utility.yul\":15115:15124   */\n      dup2\n        /* \"#utility.yul\":15109:15113   */\n      dup2\n        /* \"#utility.yul\":15105:15125   */\n      sub\n        /* \"#utility.yul\":15101:15102   */\n      0x00\n        /* \"#utility.yul\":15090:15099   */\n      dup4\n        /* \"#utility.yul\":15086:15103   */\n      add\n        /* \"#utility.yul\":15079:15126   */\n      mstore\n        /* \"#utility.yul\":15143:15274   */\n      tag_429\n        /* \"#utility.yul\":15269:15273   */\n      dup2\n        /* \"#utility.yul\":15143:15274   */\n      tag_273\n      jump\t// in\n    tag_429:\n        /* \"#utility.yul\":15135:15274   */\n      swap1\n      pop\n        /* \"#utility.yul\":14862:15281   */\n      swap2\n      swap1\n      pop\n      jump\t// out\n        /* \"#utility.yul\":15287:15455   */\n    tag_274:\n        /* \"#utility.yul\":15427:15447   */\n      0x456c656374696f6e2068617320656e6465640000000000000000000000000000\n        /* \"#utility.yul\":15423:15424   */\n      0x00\n        /* \"#utility.yul\":15415:15421   */\n      dup3\n        /* \"#utility.yul\":15411:15425   */\n      add\n        /* \"#utility.yul\":15404:15448   */\n      mstore\n        /* \"#utility.yul\":15287:15455   */\n      pop\n      jump\t// out\n        /* \"#utility.yul\":15461:15827   */\n    tag_275:\n        /* \"#utility.yul\":15603:15606   */\n      0x00\n        /* \"#utility.yul\":15624:15691   */\n      tag_432\n        /* \"#utility.yul\":15688:15690   */\n      0x12\n        /* \"#utility.yul\":15683:15686   */\n      dup4\n        /* \"#utility.yul\":15624:15691   */\n      tag_264\n      jump\t// in\n    tag_432:\n        /* \"#utility.yul\":15617:15691   */\n      swap2\n      pop\n        /* \"#utility.yul\":15700:15793   */\n      tag_433\n        /* \"#utility.yul\":15789:15792   */\n      dup3\n        /* \"#utility.yul\":15700:15793   */\n      tag_274\n      jump\t// in\n    tag_433:\n        /* \"#utility.yul\":15818:15820   */\n      0x20\n        /* \"#utility.yul\":15813:15816   */\n      dup3\n        /* \"#utility.yul\":15809:15821   */\n      add\n        /* \"#utility.yul\":15802:15821   */\n      swap1\n      pop\n        /* \"#utility.yul\":15461:15827   */\n      swap2\n      swap1\n      pop\n      jump\t// out\n        /* \"#utility.yul\":15833:16252   */\n    tag_115:\n        /* \"#utility.yul\":15999:16003   */\n      0x00\n        /* \"#utility.yul\":16037:16039   */\n      0x20\n        /* \"#utility.yul\":16026:16035   */\n      dup3\n        /* \"#utility.yul\":16022:16040   */\n      add\n        /* \"#utility.yul\":16014:16040   */\n      swap1\n      pop\n        /* \"#utility.yul\":16086:16095   */\n      dup2\n        /* \"#utility.yul\":16080:16084   */\n      dup2\n        /* \"#utility.yul\":16076:16096   */\n      sub\n        /* \"#utility.yul\":16072:16073   */\n      0x00\n        /* \"#utility.yul\":16061:16070   */\n      dup4\n        /* \"#utility.yul\":16057:16074   */\n      add\n        /* \"#utility.yul\":16050:16097   */\n      mstore\n        /* \"#utility.yul\":16114:16245   */\n      tag_435\n        /* \"#utility.yul\":16240:16244   */\n      dup2\n        /* \"#utility.yul\":16114:16245   */\n      tag_275\n      jump\t// in\n    tag_435:\n        /* \"#utility.yul\":16106:16245   */\n      swap1\n      pop\n        /* \"#utility.yul\":15833:16252   */\n      swap2\n      swap1\n      pop\n      jump\t// out\n        /* \"#utility.yul\":16258:16438   */\n    tag_276:\n        /* \"#utility.yul\":16306:16383   */\n      0x4e487b7100000000000000000000000000000000000000000000000000000000\n        /* \"#utility.yul\":16303:16304   */\n      0x00\n        /* \"#utility.yul\":16296:16384   */\n      mstore\n        /* \"#utility.yul\":16403:16407   */\n      0x11\n        /* \"#utility.yul\":16400:16401   */\n      0x04\n        /* \"#utility.yul\":16393:16408   */\n      mstore\n        /* \"#utility.yul\":16427:16431   */\n      0x24\n        /* \"#utility.yul\":16424:16425   */\n      0x00\n        /* \"#utility.yul\":16417:16432   */\n      revert\n        /* \"#utility.yul\":16444:16749   */\n    tag_117:\n        /* \"#utility.yul\":16484:16487   */\n      0x00\n        /* \"#utility.yul\":16503:16523   */\n      tag_438\n        /* \"#utility.yul\":16521:16522   */\n      dup3\n        /* \"#utility.yul\":16503:16523   */\n      tag_241\n      jump\t// in\n    tag_438:\n        /* \"#utility.yul\":16498:16523   */\n      swap2\n      pop\n        /* \"#utility.yul\":16537:16557   */\n      tag_439\n        /* \"#utility.yul\":16555:16556   */\n      dup4\n        /* \"#utility.yul\":16537:16557   */\n      tag_241\n      jump\t// in\n    tag_439:\n        /* \"#utility.yul\":16532:16557   */\n      swap3\n      pop\n        /* \"#utility.yul\":16691:16692   */\n      dup3\n        /* \"#utility.yul\":16623:16689   */\n      0xffffffffffffffffffffffffffffffffffffffffffffffffffffffffffffffff\n        /* \"#utility.yul\":16619:16693   */\n      sub\n        /* \"#utility.yul\":16616:16617   */\n      dup3\n        /* \"#utility.yul\":16613:16694   */\n      gt\n        /* \"#utility.yul\":16610:16717   */\n      iszero\n      tag_440\n      jumpi\n        /* \"#utility.yul\":16697:16715   */\n      tag_441\n      tag_276\n      jump\t// in\n    tag_441:\n        /* \"#utility.yul\":16610:16717   */\n    tag_440:\n        /* \"#utility.yul\":16741:16742   */\n      dup3\n        /* \"#utility.yul\":16738:16739   */\n      dup3\n        /* \"#utility.yul\":16734:16743   */\n      add\n        /* \"#utility.yul\":16727:16743   */\n      swap1\n      pop\n        /* \"#utility.yul\":16444:16749   */\n      swap3\n      swap2\n      pop\n      pop\n      jump\t// out\n        /* \"#utility.yul\":16755:16976   */\n    tag_277:\n        /* \"#utility.yul\":16895:16929   */\n      0x4f6e6c792061646d696e2063616e20706572666f726d20746869732061637469\n        /* \"#utility.yul\":16891:16892   */\n      0x00\n        /* \"#utility.yul\":16883:16889   */\n      dup3\n        /* \"#utility.yul\":16879:16893   */\n      add\n        /* \"#utility.yul\":16872:16930   */\n      mstore\n        /* \"#utility.yul\":16964:16968   */\n      0x6f6e000000000000000000000000000000000000000000000000000000000000\n        /* \"#utility.yul\":16959:16961   */\n      0x20\n        /* \"#utility.yul\":16951:16957   */\n      dup3\n        /* \"#utility.yul\":16947:16962   */\n      add\n        /* \"#utility.yul\":16940:16969   */\n      mstore\n        /* \"#utility.yul\":16755:16976   */\n      pop\n      jump\t// out\n        /* \"#utility.yul\":16982:17348   */\n    tag_278:\n        /* \"#utility.yul\":17124:17127   */\n      0x00\n        /* \"#utility.yul\":17145:17212   */\n      tag_444\n        /* \"#utility.yul\":17209:17211   */\n      0x22\n        /* \"#utility.yul\":17204:17207   */\n      dup4\n        /* \"#utility.yul\":17145:17212   */\n      tag_264\n      jump\t// in\n    tag_444:\n        /* \"#utility.yul\":17138:17212   */\n      swap2\n      pop\n        /* \"#utility.yul\":17221:17314   */\n      tag_445\n        /* \"#utility.yul\":17310:17313   */\n      dup3\n        /* \"#utility.yul\":17221:17314   */\n      tag_277\n      jump\t// in\n    tag_445:\n        /* \"#utility.yul\":17339:17341   */\n      0x40\n        /* \"#utility.yul\":17334:17337   */\n      dup3\n        /* \"#utility.yul\":17330:17342   */\n      add\n        /* \"#utility.yul\":17323:17342   */\n      swap1\n      pop\n        /* \"#utility.yul\":16982:17348   */\n      swap2\n      swap1\n      pop\n      jump\t// out\n        /* \"#utility.yul\":17354:17773   */\n    tag_122:\n        /* \"#utility.yul\":17520:17524   */\n      0x00\n        /* \"#utility.yul\":17558:17560   */\n      0x20\n        /* \"#utility.yul\":17547:17556   */\n      dup3\n        /* \"#utility.yul\":17543:17561   */\n      add\n        /* \"#utility.yul\":17535:17561   */\n      swap1\n      pop\n        /* \"#utility.yul\":17607:17616   */\n      dup2\n        /* \"#utility.yul\":17601:17605   */\n      dup2\n        /* \"#utility.yul\":17597:17617   */\n      sub\n        /* \"#utility.yul\":17593:17594   */\n      0x00\n        /* \"#utility.yul\":17582:17591   */\n      dup4\n        /* \"#utility.yul\":17578:17595   */\n      add\n        /* \"#utility.yul\":17571:17618   */\n      mstore\n        /* \"#utility.yul\":17635:17766   */\n      tag_447\n        /* \"#utility.yul\":17761:17765   */\n      dup2\n        /* \"#utility.yul\":17635:17766   */\n      tag_278\n      jump\t// in\n    tag_447:\n        /* \"#utility.yul\":17627:17766   */\n      swap1\n      pop\n        /* \"#utility.yul\":17354:17773   */\n      swap2\n      swap1\n      pop\n      jump\t// out\n        /* \"#utility.yul\":17779:17959   */\n    tag_279:\n        /* \"#utility.yul\":17827:17904   */\n      0x4e487b7100000000000000000000000000000000000000000000000000000000\n        /* \"#utility.yul\":17824:17825   */\n      0x00\n        /* \"#utility.yul\":17817:17905   */\n      mstore\n        /* \"#utility.yul\":17924:17928   */\n      0x22\n        /* \"#utility.yul\":17921:17922   */\n      0x04\n        /* \"#utility.yul\":17914:17929   */\n      mstore\n        /* \"#utility.yul\":17948:17952   */\n      0x24\n        /* \"#utility.yul\":17945:17946   */\n      0x00\n        /* \"#utility.yul\":17938:17953   */\n      revert\n        /* \"#utility.yul\":17965:18285   */\n    tag_142:\n        /* \"#utility.yul\":18009:18015   */\n      0x00\n        /* \"#utility.yul\":18046:18047   */\n      0x02\n        /* \"#utility.yul\":18040:18044   */\n      dup3\n        /* \"#utility.yul\":18036:18048   */\n      div\n        /* \"#utility.yul\":18026:18048   */\n      swap1\n      pop\n        /* \"#utility.yul\":18093:18094   */\n      0x01\n        /* \"#utility.yul\":18087:18091   */\n      dup3\n        /* \"#utility.yul\":18083:18095   */\n      and\n        /* \"#utility.yul\":18114:18132   */\n      dup1\n        /* \"#utility.yul\":18104:18185   */\n      tag_450\n      jumpi\n        /* \"#utility.yul\":18170:18174   */\n      0x7f\n        /* \"#utility.yul\":18162:18168   */\n      dup3\n        /* \"#utility.yul\":18158:18175   */\n      and\n        /* \"#utility.yul\":18148:18175   */\n      swap2\n      pop\n        /* \"#utility.yul\":18104:18185   */\n    tag_450:\n        /* \"#utility.yul\":18232:18234   */\n      0x20\n        /* \"#utility.yul\":18224:18230   */\n      dup3\n        /* \"#utility.yul\":18221:18235   */\n      lt\n        /* \"#utility.yul\":18201:18219   */\n      dup2\n        /* \"#utility.yul\":18198:18236   */\n      eq\n        /* \"#utility.yul\":18195:18279   */\n      iszero\n      tag_451\n      jumpi\n        /* \"#utility.yul\":18251:18269   */\n      tag_452\n      tag_279\n      jump\t// in\n    tag_452:\n        /* \"#utility.yul\":18195:18279   */\n    tag_451:\n        /* \"#utility.yul\":18016:18285   */\n      pop\n        /* \"#utility.yul\":17965:18285   */\n      swap2\n      swap1\n      pop\n      jump\t// out\n\n    auxdata: 0xa2646970667358221220a55bf74c4821d100a5a95afe8e80ab246fc756a672dd07cd9f80ad58b1ce7b7a64736f6c63430008090033\n}\n","bytecode":{"linkReferences":{},"object":"608060405234801561001057600080fd5b50336000806101000a81548173ffffffffffffffffffffffffffffffffffffffff021916908373ffffffffffffffffffffffffffffffffffffffff160217905550600060018190555060006002819055506000600360006101000a81548160ff0219169083151502179055506000600360016101000a81548160ff0219169083151502179055506120b4806100a66000396000f3fe608060405234801561001057600080fd5b50600436106101375760003560e01c80636d2f6966116100b8578063c5292c671161007c578063c5292c6714610312578063da58c7d914610330578063ed836bc314610360578063efbe1c1c14610382578063f851a440146103a0578063fee0d19a146103be57610137565b80636d2f6966146102785780636e9960c31461029a5780639f05a36d146102b8578063a9a981a3146102d6578063be9a6555146102f457610137565b8063506b8e0a116100ff578063506b8e0a146101cc5780635938750d146101e857806359f784681461021d5780636247e5321461022757806364d198a11461025a57610137565b80630121b93f1461013c5780630b93400e14610158578063253e74e21461017657806326541b561461019257806342169e48146101ae575b600080fd5b61015660048036038101906101519190611723565b6103da565b005b61016061063e565b60405161016d919061175f565b60405180910390f35b610190600480360381019061018b91906118c0565b610648565b005b6101ac60048036038101906101a791906119c7565b6107d0565b005b6101b661090b565b6040516101c3919061175f565b60405180910390f35b6101e660048036038101906101e19190611ad5565b610911565b005b61020260048036038101906101fd9190611b15565b6109fd565b60405161021496959493929190611be8565b60405180910390f35b610225610b90565b005b610241600480360381019061023c9190611723565b610c56565b6040516102519493929190611c57565b60405180910390f35b610262610d96565b60405161026f919061175f565b60405180910390f35b610280610da0565b604051610291959493929190611caa565b60405180910390f35b6102a261106c565b6040516102af9190611d20565b60405180910390f35b6102c0611095565b6040516102cd9190611d3b565b60405180910390f35b6102de6110ac565b6040516102eb919061175f565b60405180910390f35b6102fc6110b2565b6040516103099190611d3b565b60405180910390f35b61031a6110c5565b6040516103279190611d3b565b60405180910390f35b61034a60048036038101906103459190611723565b6110dc565b6040516103579190611d20565b60405180910390f35b61036861111b565b604051610379959493929190611caa565b60405180910390f35b61038a611409565b6040516103979190611d3b565b60405180910390f35b6103a861141c565b6040516103b59190611d20565b60405180910390f35b6103d860048036038101906103d391906119c7565b611440565b005b60001515600b60003373ffffffffffffffffffffffffffffffffffffffff1673ffffffffffffffffffffffffffffffffffffffff16815260200190815260200160002060030160019054906101000a900460ff16151514610470576040517f08c379a000000000000000000000000000000000000000000000000000000000815260040161046790611da2565b60405180910390fd5b60011515600b60003373ffffffffffffffffffffffffffffffffffffffff1673ffffffffffffffffffffffffffffffffffffffff16815260200190815260200160002060030160009054906101000a900460ff16151514610506576040517f08c379a00000000000000000000000000000000000000000000000000000000081526004016104fd90611e0e565b60405180910390fd5b60011515600360009054906101000a900460ff1615151461055c576040517f08c379a000000000000000000000000000000000000000000000000000000000815260040161055390611e7a565b60405180910390fd5b60001515600360019054906101000a900460ff161515146105b2576040517f08c379a00000000000000000000000000000000000000000000000000000000081526004016105a990611ee6565b60405180910390fd5b60016004600083815260200190815260200160002060030160008282546105d99190611f35565b925050819055506001600b60003373ffffffffffffffffffffffffffffffffffffffff1673ffffffffffffffffffffffffffffffffffffffff16815260200190815260200160002060030160016101000a81548160ff02191690831515021790555050565b6000600254905090565b60008054906101000a900473ffffffffffffffffffffffffffffffffffffffff1673ffffffffffffffffffffffffffffffffffffffff163373ffffffffffffffffffffffffffffffffffffffff16146106d6576040517f08c379a00000000000000000000000000000000000000000000000000000000081526004016106cd90611ffd565b60405180910390fd5b6040518060a00160405280868152602001858152602001848152602001838152602001828152506005600082015181600001908051906020019061071b929190611636565b506020820151816001019080519060200190610738929190611636565b506040820151816002019080519060200190610755929190611636565b506060820151816003019080519060200190610772929190611636565b50608082015181600401908051906020019061078f929190611636565b509050506001600360006101000a81548160ff0219169083151502179055506000600360016101000a81548160ff0219169083151502179055505050505050565b60008054906101000a900473ffffffffffffffffffffffffffffffffffffffff1673ffffffffffffffffffffffffffffffffffffffff163373ffffffffffffffffffffffffffffffffffffffff161461085e576040517f08c379a000000000000000000000000000000000000000000000000000000000815260040161085590611ffd565b60405180910390fd5b60006040518060800160405280600154815260200184815260200183815260200160008152509050806004600060015481526020019081526020016000206000820151816000015560208201518160010190805190602001906108c2929190611636565b5060408201518160020190805190602001906108df929190611636565b506060820151816003015590505060018060008282546108ff9190611f35565b92505081905550505050565b60025481565b60008054906101000a900473ffffffffffffffffffffffffffffffffffffffff1673ffffffffffffffffffffffffffffffffffffffff163373ffffffffffffffffffffffffffffffffffffffff161461099f576040517f08c379a000000000000000000000000000000000000000000000000000000000815260040161099690611ffd565b60405180910390fd5b81600b60008373ffffffffffffffffffffffffffffffffffffffff1673ffffffffffffffffffffffffffffffffffffffff16815260200190815260200160002060030160006101000a81548160ff0219169083151502179055505050565b600b6020528060005260406000206000915090508060000160009054906101000a900473ffffffffffffffffffffffffffffffffffffffff1690806001018054610a469061204c565b80601f0160208091040260200160405190810160405280929190818152602001828054610a729061204c565b8015610abf5780601f10610a9457610100808354040283529160200191610abf565b820191906000526020600020905b815481529060010190602001808311610aa257829003601f168201915b505050505090806002018054610ad49061204c565b80601f0160208091040260200160405190810160405280929190818152602001828054610b009061204c565b8015610b4d5780601f10610b2257610100808354040283529160200191610b4d565b820191906000526020600020905b815481529060010190602001808311610b3057829003601f168201915b5050505050908060030160009054906101000a900460ff16908060030160019054906101000a900460ff16908060030160029054906101000a900460ff16905086565b60008054906101000a900473ffffffffffffffffffffffffffffffffffffffff1673ffffffffffffffffffffffffffffffffffffffff163373ffffffffffffffffffffffffffffffffffffffff1614610c1e576040517f08c379a0000000000000000000000000000000000000000000000000000000008152600401610c1590611ffd565b60405180910390fd5b6001600360016101000a81548160ff0219169083151502179055506000600360006101000a81548160ff021916908315150217905550565b6004602052806000526040600020600091509050806000015490806001018054610c7f9061204c565b80601f0160208091040260200160405190810160405280929190818152602001828054610cab9061204c565b8015610cf85780601f10610ccd57610100808354040283529160200191610cf8565b820191906000526020600020905b815481529060010190602001808311610cdb57829003601f168201915b505050505090806002018054610d0d9061204c565b80601f0160208091040260200160405190810160405280929190818152602001828054610d399061204c565b8015610d865780601f10610d5b57610100808354040283529160200191610d86565b820191906000526020600020905b815481529060010190602001808311610d6957829003601f168201915b5050505050908060030154905084565b6000600154905090565b6005806000018054610db19061204c565b80601f0160208091040260200160405190810160405280929190818152602001828054610ddd9061204c565b8015610e2a5780601f10610dff57610100808354040283529160200191610e2a565b820191906000526020600020905b815481529060010190602001808311610e0d57829003601f168201915b505050505090806001018054610e3f9061204c565b80601f0160208091040260200160405190810160405280929190818152602001828054610e6b9061204c565b8015610eb85780601f10610e8d57610100808354040283529160200191610eb8565b820191906000526020600020905b815481529060010190602001808311610e9b57829003601f168201915b505050505090806002018054610ecd9061204c565b80601f0160208091040260200160405190810160405280929190818152602001828054610ef99061204c565b8015610f465780601f10610f1b57610100808354040283529160200191610f46565b820191906000526020600020905b815481529060010190602001808311610f2957829003601f168201915b505050505090806003018054610f5b9061204c565b80601f0160208091040260200160405190810160405280929190818152602001828054610f879061204c565b8015610fd45780601f10610fa957610100808354040283529160200191610fd4565b820191906000526020600020905b815481529060010190602001808311610fb757829003601f168201915b505050505090806004018054610fe99061204c565b80601f01602080910402602001604051908101604052809291908181526020018280546110159061204c565b80156110625780601f1061103757610100808354040283529160200191611062565b820191906000526020600020905b81548152906001019060200180831161104557829003601f168201915b5050505050905085565b60008060009054906101000a900473ffffffffffffffffffffffffffffffffffffffff16905090565b6000600360019054906101000a900460ff16905090565b60015481565b600360009054906101000a900460ff1681565b6000600360009054906101000a900460ff16905090565b600a81815481106110ec57600080fd5b906000526020600020016000915054906101000a900473ffffffffffffffffffffffffffffffffffffffff1681565b6060806060806060600560000160056001016005600201600560030160056004018480546111489061204c565b80601f01602080910402602001604051908101604052809291908181526020018280546111749061204c565b80156111c15780601f10611196576101008083540402835291602001916111c1565b820191906000526020600020905b8154815290600101906020018083116111a457829003601f168201915b505050505094508380546111d49061204c565b80601f01602080910402602001604051908101604052809291908181526020018280546112009061204c565b801561124d5780601f106112225761010080835404028352916020019161124d565b820191906000526020600020905b81548152906001019060200180831161123057829003601f168201915b505050505093508280546112609061204c565b80601f016020809104026020016040519081016040528092919081815260200182805461128c9061204c565b80156112d95780601f106112ae576101008083540402835291602001916112d9565b820191906000526020600020905b8154815290600101906020018083116112bc57829003601f168201915b505050505092508180546112ec9061204c565b80601f01602080910402602001604051908101604052809291908181526020018280546113189061204c565b80156113655780601f1061133a57610100808354040283529160200191611365565b820191906000526020600020905b81548152906001019060200180831161134857829003601f168201915b505050505091508080546113789061204c565b80601f01602080910402602001604051908101604052809291908181526020018280546113a49061204c565b80156113f15780601f106113c6576101008083540402835291602001916113f1565b820191906000526020600020905b8154815290600101906020018083116113d457829003601f168201915b50505050509050945094509450945094509091929394565b600360019054906101000a900460ff1681565b60008054906101000a900473ffffffffffffffffffffffffffffffffffffffff1681565b60006040518060c001604052803373ffffffffffffffffffffffffffffffffffffffff16815260200184815260200183815260200160001515815260200160001515815260200160011515815250905080600b60003373ffffffffffffffffffffffffffffffffffffffff1673ffffffffffffffffffffffffffffffffffffffff16815260200190815260200160002060008201518160000160006101000a81548173ffffffffffffffffffffffffffffffffffffffff021916908373ffffffffffffffffffffffffffffffffffffffff1602179055506020820151816001019080519060200190611533929190611636565b506040820151816002019080519060200190611550929190611636565b5060608201518160030160006101000a81548160ff02191690831515021790555060808201518160030160016101000a81548160ff02191690831515021790555060a08201518160030160026101000a81548160ff021916908315150217905550905050600a339080600181540180825580915050600190039060005260206000200160009091909190916101000a81548173ffffffffffffffffffffffffffffffffffffffff021916908373ffffffffffffffffffffffffffffffffffffffff16021790555060016002600082825461162a9190611f35565b92505081905550505050565b8280546116429061204c565b90600052602060002090601f01602090048101928261166457600085556116ab565b82601f1061167d57805160ff19168380011785556116ab565b828001600101855582156116ab579182015b828111156116aa57825182559160200191906001019061168f565b5b5090506116b891906116bc565b5090565b5b808211156116d55760008160009055506001016116bd565b5090565b6000604051905090565b600080fd5b600080fd5b6000819050919050565b611700816116ed565b811461170b57600080fd5b50565b60008135905061171d816116f7565b92915050565b600060208284031215611739576117386116e3565b5b60006117478482850161170e565b91505092915050565b611759816116ed565b82525050565b60006020820190506117746000830184611750565b92915050565b600080fd5b600080fd5b6000601f19601f8301169050919050565b7f4e487b7100000000000000000000000000000000000000000000000000000000600052604160045260246000fd5b6117cd82611784565b810181811067ffffffffffffffff821117156117ec576117eb611795565b5b80604052505050565b60006117ff6116d9565b905061180b82826117c4565b919050565b600067ffffffffffffffff82111561182b5761182a611795565b5b61183482611784565b9050602081019050919050565b82818337600083830152505050565b600061186361185e84611810565b6117f5565b90508281526020810184848401111561187f5761187e61177f565b5b61188a848285611841565b509392505050565b600082601f8301126118a7576118a661177a565b5b81356118b7848260208601611850565b91505092915050565b600080600080600060a086880312156118dc576118db6116e3565b5b600086013567ffffffffffffffff8111156118fa576118f96116e8565b5b61190688828901611892565b955050602086013567ffffffffffffffff811115611927576119266116e8565b5b61193388828901611892565b945050604086013567ffffffffffffffff811115611954576119536116e8565b5b61196088828901611892565b935050606086013567ffffffffffffffff811115611981576119806116e8565b5b61198d88828901611892565b925050608086013567ffffffffffffffff8111156119ae576119ad6116e8565b5b6119ba88828901611892565b9150509295509295909350565b600080604083850312156119de576119dd6116e3565b5b600083013567ffffffffffffffff8111156119fc576119fb6116e8565b5b611a0885828601611892565b925050602083013567ffffffffffffffff811115611a2957611a286116e8565b5b611a3585828601611892565b9150509250929050565b60008115159050919050565b611a5481611a3f565b8114611a5f57600080fd5b50565b600081359050611a7181611a4b565b92915050565b600073ffffffffffffffffffffffffffffffffffffffff82169050919050565b6000611aa282611a77565b9050919050565b611ab281611a97565b8114611abd57600080fd5b50565b600081359050611acf81611aa9565b92915050565b60008060408385031215611aec57611aeb6116e3565b5b6000611afa85828601611a62565b9250506020611b0b85828601611ac0565b9150509250929050565b600060208284031215611b2b57611b2a6116e3565b5b6000611b3984828501611ac0565b91505092915050565b611b4b81611a97565b82525050565b600081519050919050565b600082825260208201905092915050565b60005b83811015611b8b578082015181840152602081019050611b70565b83811115611b9a576000848401525b50505050565b6000611bab82611b51565b611bb58185611b5c565b9350611bc5818560208601611b6d565b611bce81611784565b840191505092915050565b611be281611a3f565b82525050565b600060c082019050611bfd6000830189611b42565b8181036020830152611c0f8188611ba0565b90508181036040830152611c238187611ba0565b9050611c326060830186611bd9565b611c3f6080830185611bd9565b611c4c60a0830184611bd9565b979650505050505050565b6000608082019050611c6c6000830187611750565b8181036020830152611c7e8186611ba0565b90508181036040830152611c928185611ba0565b9050611ca16060830184611750565b95945050505050565b600060a0820190508181036000830152611cc48188611ba0565b90508181036020830152611cd88187611ba0565b90508181036040830152611cec8186611ba0565b90508181036060830152611d008185611ba0565b90508181036080830152611d148184611ba0565b90509695505050505050565b6000602082019050611d356000830184611b42565b92915050565b6000602082019050611d506000830184611bd9565b92915050565b7f566f7465722068617320616c726561647920766f746564000000000000000000600082015250565b6000611d8c601783611b5c565b9150611d9782611d56565b602082019050919050565b60006020820190508181036000830152611dbb81611d7f565b9050919050565b7f566f746572206973206e6f742076657269666965640000000000000000000000600082015250565b6000611df8601583611b5c565b9150611e0382611dc2565b602082019050919050565b60006020820190508181036000830152611e2781611deb565b9050919050565b7f456c656374696f6e20686173206e6f7420737461727465640000000000000000600082015250565b6000611e64601883611b5c565b9150611e6f82611e2e565b602082019050919050565b60006020820190508181036000830152611e9381611e57565b9050919050565b7f456c656374696f6e2068617320656e6465640000000000000000000000000000600082015250565b6000611ed0601283611b5c565b9150611edb82611e9a565b602082019050919050565b60006020820190508181036000830152611eff81611ec3565b9050919050565b7f4e487b7100000000000000000000000000000000000000000000000000000000600052601160045260246000fd5b6000611f40826116ed565b9150611f4b836116ed565b9250827fffffffffffffffffffffffffffffffffffffffffffffffffffffffffffffffff03821115611f8057611f7f611f06565b5b828201905092915050565b7f4f6e6c792061646d696e2063616e20706572666f726d2074686973206163746960008201527f6f6e000000000000000000000000000000000000000000000000000000000000602082015250565b6000611fe7602283611b5c565b9150611ff282611f8b565b604082019050919050565b6000602082019050818103600083015261201681611fda565b9050919050565b7f4e487b7100000000000000000000000000000000000000000000000000000000600052602260045260246000fd5b6000600282049050600182168061206457607f821691505b602082108114156120785761207761201d565b5b5091905056fea2646970667358221220a55bf74c4821d100a5a95afe8e80ab246fc756a672dd07cd9f80ad58b1ce7b7a64736f6c63430008090033","opcodes":"PUSH1 0x80 PUSH1 0x40 MSTORE CALLVALUE DUP1 ISZERO PUSH2 0x10 JUMPI PUSH1 0x0 DUP1 REVERT JUMPDEST POP CALLER PUSH1 0x0 DUP1 PUSH2 0x100 EXP DUP2 SLOAD DUP2 PUSH20 0xFFFFFFFFFFFFFFFFFFFFFFFFFFFFFFFFFFFFFFFF MUL NOT AND SWAP1 DUP4 PUSH20 0xFFFFFFFFFFFFFFFFFFFFFFFFFFFFFFFFFFFFFFFF AND MUL OR SWAP1 SSTORE POP PUSH1 0x0 PUSH1 0x1 DUP2 SWAP1 SSTORE POP PUSH1 0x0 PUSH1 0x2 DUP2 SWAP1 SSTORE POP PUSH1 0x0 PUSH1 0x3 PUSH1 0x0 PUSH2 0x100 EXP DUP2 SLOAD DUP2 PUSH1 0xFF MUL NOT AND SWAP1 DUP4 ISZERO ISZERO MUL OR SWAP1 SSTORE POP PUSH1 0x0 PUSH1 0x3 PUSH1 0x1 PUSH2 0x100 EXP DUP2 SLOAD DUP2 PUSH1 0xFF MUL NOT AND SWAP1 DUP4 ISZERO ISZERO MUL OR SWAP1 SSTORE POP PUSH2 0x20B4 DUP1 PUSH2 0xA6 PUSH1 0x0 CODECOPY PUSH1 0x0 RETURN INVALID PUSH1 0x80 PUSH1 0x40 MSTORE CALLVALUE DUP1 ISZERO PUSH2 0x10 JUMPI PUSH1 0x0 DUP1 REVERT JUMPDEST POP PUSH1 0x4 CALLDATASIZE LT PUSH2 0x137 JUMPI PUSH1 0x0 CALLDATALOAD PUSH1 0xE0 SHR DUP1 PUSH4 0x6D2F6966 GT PUSH2 0xB8 JUMPI DUP1 PUSH4 0xC5292C67 GT PUSH2 0x7C JUMPI DUP1 PUSH4 0xC5292C67 EQ PUSH2 0x312 JUMPI DUP1 PUSH4 0xDA58C7D9 EQ PUSH2 0x330 JUMPI DUP1 PUSH4 0xED836BC3 EQ PUSH2 0x360 JUMPI DUP1 PUSH4 0xEFBE1C1C EQ PUSH2 0x382 JUMPI DUP1 PUSH4 0xF851A440 EQ PUSH2 0x3A0 JUMPI DUP1 PUSH4 0xFEE0D19A EQ PUSH2 0x3BE JUMPI PUSH2 0x137 JUMP JUMPDEST DUP1 PUSH4 0x6D2F6966 EQ PUSH2 0x278 JUMPI DUP1 PUSH4 0x6E9960C3 EQ PUSH2 0x29A JUMPI DUP1 PUSH4 0x9F05A36D EQ PUSH2 0x2B8 JUMPI DUP1 PUSH4 0xA9A981A3 EQ PUSH2 0x2D6 JUMPI DUP1 PUSH4 0xBE9A6555 EQ PUSH2 0x2F4 JUMPI PUSH2 0x137 JUMP JUMPDEST DUP1 PUSH4 0x506B8E0A GT PUSH2 0xFF JUMPI DUP1 PUSH4 0x506B8E0A EQ PUSH2 0x1CC JUMPI DUP1 PUSH4 0x5938750D EQ PUSH2 0x1E8 JUMPI DUP1 PUSH4 0x59F78468 EQ PUSH2 0x21D JUMPI DUP1 PUSH4 0x6247E532 EQ PUSH2 0x227 JUMPI DUP1 PUSH4 0x64D198A1 EQ PUSH2 0x25A JUMPI PUSH2 0x137 JUMP JUMPDEST DUP1 PUSH4 0x121B93F EQ PUSH2 0x13C JUMPI DUP1 PUSH4 0xB93400E EQ PUSH2 0x158 JUMPI DUP1 PUSH4 0x253E74E2 EQ PUSH2 0x176 JUMPI DUP1 PUSH4 0x26541B56 EQ PUSH2 0x192 JUMPI DUP1 PUSH4 0x42169E48 EQ PUSH2 0x1AE JUMPI JUMPDEST PUSH1 0x0 DUP1 REVERT JUMPDEST PUSH2 0x156 PUSH1 0x4 DUP1 CALLDATASIZE SUB DUP2 ADD SWAP1 PUSH2 0x151 SWAP2 SWAP1 PUSH2 0x1723 JUMP JUMPDEST PUSH2 0x3DA JUMP JUMPDEST STOP JUMPDEST PUSH2 0x160 PUSH2 0x63E JUMP JUMPDEST PUSH1 0x40 MLOAD PUSH2 0x16D SWAP2 SWAP1 PUSH2 0x175F JUMP JUMPDEST PUSH1 0x40 MLOAD DUP1 SWAP2 SUB SWAP1 RETURN JUMPDEST PUSH2 0x190 PUSH1 0x4 DUP1 CALLDATASIZE SUB DUP2 ADD SWAP1 PUSH2 0x18B SWAP2 SWAP1 PUSH2 0x18C0 JUMP JUMPDEST PUSH2 0x648 JUMP JUMPDEST STOP JUMPDEST PUSH2 0x1AC PUSH1 0x4 DUP1 CALLDATASIZE SUB DUP2 ADD SWAP1 PUSH2 0x1A7 SWAP2 SWAP1 PUSH2 0x19C7 JUMP JUMPDEST PUSH2 0x7D0 JUMP JUMPDEST STOP JUMPDEST PUSH2 0x1B6 PUSH2 0x90B JUMP JUMPDEST PUSH1 0x40 MLOAD PUSH2 0x1C3 SWAP2 SWAP1 PUSH2 0x175F JUMP JUMPDEST PUSH1 0x40 MLOAD DUP1 SWAP2 SUB SWAP1 RETURN JUMPDEST PUSH2 0x1E6 PUSH1 0x4 DUP1 CALLDATASIZE SUB DUP2 ADD SWAP1 PUSH2 0x1E1 SWAP2 SWAP1 PUSH2 0x1AD5 JUMP JUMPDEST PUSH2 0x911 JUMP JUMPDEST STOP JUMPDEST PUSH2 0x202 PUSH1 0x4 DUP1 CALLDATASIZE SUB DUP2 ADD SWAP1 PUSH2 0x1FD SWAP2 SWAP1 PUSH2 0x1B15 JUMP JUMPDEST PUSH2 0x9FD JUMP JUMPDEST PUSH1 0x40 MLOAD PUSH2 0x214 SWAP7 SWAP6 SWAP5 SWAP4 SWAP3 SWAP2 SWAP1 PUSH2 0x1BE8 JUMP JUMPDEST PUSH1 0x40 MLOAD DUP1 SWAP2 SUB SWAP1 RETURN JUMPDEST PUSH2 0x225 PUSH2 0xB90 JUMP JUMPDEST STOP JUMPDEST PUSH2 0x241 PUSH1 0x4 DUP1 CALLDATASIZE SUB DUP2 ADD SWAP1 PUSH2 0x23C SWAP2 SWAP1 PUSH2 0x1723 JUMP JUMPDEST PUSH2 0xC56 JUMP JUMPDEST PUSH1 0x40 MLOAD PUSH2 0x251 SWAP5 SWAP4 SWAP3 SWAP2 SWAP1 PUSH2 0x1C57 JUMP JUMPDEST PUSH1 0x40 MLOAD DUP1 SWAP2 SUB SWAP1 RETURN JUMPDEST PUSH2 0x262 PUSH2 0xD96 JUMP JUMPDEST PUSH1 0x40 MLOAD PUSH2 0x26F SWAP2 SWAP1 PUSH2 0x175F JUMP JUMPDEST PUSH1 0x40 MLOAD DUP1 SWAP2 SUB SWAP1 RETURN JUMPDEST PUSH2 0x280 PUSH2 0xDA0 JUMP JUMPDEST PUSH1 0x40 MLOAD PUSH2 0x291 SWAP6 SWAP5 SWAP4 SWAP3 SWAP2 SWAP1 PUSH2 0x1CAA JUMP JUMPDEST PUSH1 0x40 MLOAD DUP1 SWAP2 SUB SWAP1 RETURN JUMPDEST PUSH2 0x2A2 PUSH2 0x106C JUMP JUMPDEST PUSH1 0x40 MLOAD PUSH2 0x2AF SWAP2 SWAP1 PUSH2 0x1D20 JUMP JUMPDEST PUSH1 0x40 MLOAD DUP1 SWAP2 SUB SWAP1 RETURN JUMPDEST PUSH2 0x2C0 PUSH2 0x1095 JUMP JUMPDEST PUSH1 0x40 MLOAD PUSH2 0x2CD SWAP2 SWAP1 PUSH2 0x1D3B JUMP JUMPDEST PUSH1 0x40 MLOAD DUP1 SWAP2 SUB SWAP1 RETURN JUMPDEST PUSH2 0x2DE PUSH2 0x10AC JUMP JUMPDEST PUSH1 0x40 MLOAD PUSH2 0x2EB SWAP2 SWAP1 PUSH2 0x175F JUMP JUMPDEST PUSH1 0x40 MLOAD DUP1 SWAP2 SUB SWAP1 RETURN JUMPDEST PUSH2 0x2FC PUSH2 0x10B2 JUMP JUMPDEST PUSH1 0x40 MLOAD PUSH2 0x309 SWAP2 SWAP1 PUSH2 0x1D3B JUMP JUMPDEST PUSH1 0x40 MLOAD DUP1 SWAP2 SUB SWAP1 RETURN JUMPDEST PUSH2 0x31A PUSH2 0x10C5 JUMP JUMPDEST PUSH1 0x40 MLOAD PUSH2 0x327 SWAP2 SWAP1 PUSH2 0x1D3B JUMP JUMPDEST PUSH1 0x40 MLOAD DUP1 SWAP2 SUB SWAP1 RETURN JUMPDEST PUSH2 0x34A PUSH1 0x4 DUP1 CALLDATASIZE SUB DUP2 ADD SWAP1 PUSH2 0x345 SWAP2 SWAP1 PUSH2 0x1723 JUMP JUMPDEST PUSH2 0x10DC JUMP JUMPDEST PUSH1 0x40 MLOAD PUSH2 0x357 SWAP2 SWAP1 PUSH2 0x1D20 JUMP JUMPDEST PUSH1 0x40 MLOAD DUP1 SWAP2 SUB SWAP1 RETURN JUMPDEST PUSH2 0x368 PUSH2 0x111B JUMP JUMPDEST PUSH1 0x40 MLOAD PUSH2 0x379 SWAP6 SWAP5 SWAP4 SWAP3 SWAP2 SWAP1 PUSH2 0x1CAA JUMP JUMPDEST PUSH1 0x40 MLOAD DUP1 SWAP2 SUB SWAP1 RETURN JUMPDEST PUSH2 0x38A PUSH2 0x1409 JUMP JUMPDEST PUSH1 0x40 MLOAD PUSH2 0x397 SWAP2 SWAP1 PUSH2 0x1D3B JUMP JUMPDEST PUSH1 0x40 MLOAD DUP1 SWAP2 SUB SWAP1 RETURN JUMPDEST PUSH2 0x3A8 PUSH2 0x141C JUMP JUMPDEST PUSH1 0x40 MLOAD PUSH2 0x3B5 SWAP2 SWAP1 PUSH2 0x1D20 JUMP JUMPDEST PUSH1 0x40 MLOAD DUP1 SWAP2 SUB SWAP1 RETURN JUMPDEST PUSH2 0x3D8 PUSH1 0x4 DUP1 CALLDATASIZE SUB DUP2 ADD SWAP1 PUSH2 0x3D3 SWAP2 SWAP1 PUSH2 0x19C7 JUMP JUMPDEST PUSH2 0x1440 JUMP JUMPDEST STOP JUMPDEST PUSH1 0x0 ISZERO ISZERO PUSH1 0xB PUSH1 0x0 CALLER PUSH20 0xFFFFFFFFFFFFFFFFFFFFFFFFFFFFFFFFFFFFFFFF AND PUSH20 0xFFFFFFFFFFFFFFFFFFFFFFFFFFFFFFFFFFFFFFFF AND DUP2 MSTORE PUSH1 0x20 ADD SWAP1 DUP2 MSTORE PUSH1 0x20 ADD PUSH1 0x0 KECCAK256 PUSH1 0x3 ADD PUSH1 0x1 SWAP1 SLOAD SWAP1 PUSH2 0x100 EXP SWAP1 DIV PUSH1 0xFF AND ISZERO ISZERO EQ PUSH2 0x470 JUMPI PUSH1 0x40 MLOAD PUSH32 0x8C379A000000000000000000000000000000000000000000000000000000000 DUP2 MSTORE PUSH1 0x4 ADD PUSH2 0x467 SWAP1 PUSH2 0x1DA2 JUMP JUMPDEST PUSH1 0x40 MLOAD DUP1 SWAP2 SUB SWAP1 REVERT JUMPDEST PUSH1 0x1 ISZERO ISZERO PUSH1 0xB PUSH1 0x0 CALLER PUSH20 0xFFFFFFFFFFFFFFFFFFFFFFFFFFFFFFFFFFFFFFFF AND PUSH20 0xFFFFFFFFFFFFFFFFFFFFFFFFFFFFFFFFFFFFFFFF AND DUP2 MSTORE PUSH1 0x20 ADD SWAP1 DUP2 MSTORE PUSH1 0x20 ADD PUSH1 0x0 KECCAK256 PUSH1 0x3 ADD PUSH1 0x0 SWAP1 SLOAD SWAP1 PUSH2 0x100 EXP SWAP1 DIV PUSH1 0xFF AND ISZERO ISZERO EQ PUSH2 0x506 JUMPI PUSH1 0x40 MLOAD PUSH32 0x8C379A000000000000000000000000000000000000000000000000000000000 DUP2 MSTORE PUSH1 0x4 ADD PUSH2 0x4FD SWAP1 PUSH2 0x1E0E JUMP JUMPDEST PUSH1 0x40 MLOAD DUP1 SWAP2 SUB SWAP1 REVERT JUMPDEST PUSH1 0x1 ISZERO ISZERO PUSH1 0x3 PUSH1 0x0 SWAP1 SLOAD SWAP1 PUSH2 0x100 EXP SWAP1 DIV PUSH1 0xFF AND ISZERO ISZERO EQ PUSH2 0x55C JUMPI PUSH1 0x40 MLOAD PUSH32 0x8C379A000000000000000000000000000000000000000000000000000000000 DUP2 MSTORE PUSH1 0x4 ADD PUSH2 0x553 SWAP1 PUSH2 0x1E7A JUMP JUMPDEST PUSH1 0x40 MLOAD DUP1 SWAP2 SUB SWAP1 REVERT JUMPDEST PUSH1 0x0 ISZERO ISZERO PUSH1 0x3 PUSH1 0x1 SWAP1 SLOAD SWAP1 PUSH2 0x100 EXP SWAP1 DIV PUSH1 0xFF AND ISZERO ISZERO EQ PUSH2 0x5B2 JUMPI PUSH1 0x40 MLOAD PUSH32 0x8C379A000000000000000000000000000000000000000000000000000000000 DUP2 MSTORE PUSH1 0x4 ADD PUSH2 0x5A9 SWAP1 PUSH2 0x1EE6 JUMP JUMPDEST PUSH1 0x40 MLOAD DUP1 SWAP2 SUB SWAP1 REVERT JUMPDEST PUSH1 0x1 PUSH1 0x4 PUSH1 0x0 DUP4 DUP2 MSTORE PUSH1 0x20 ADD SWAP1 DUP2 MSTORE PUSH1 0x20 ADD PUSH1 0x0 KECCAK256 PUSH1 0x3 ADD PUSH1 0x0 DUP3 DUP3 SLOAD PUSH2 0x5D9 SWAP2 SWAP1 PUSH2 0x1F35 JUMP JUMPDEST SWAP3 POP POP DUP2 SWAP1 SSTORE POP PUSH1 0x1 PUSH1 0xB PUSH1 0x0 CALLER PUSH20 0xFFFFFFFFFFFFFFFFFFFFFFFFFFFFFFFFFFFFFFFF AND PUSH20 0xFFFFFFFFFFFFFFFFFFFFFFFFFFFFFFFFFFFFFFFF AND DUP2 MSTORE PUSH1 0x20 ADD SWAP1 DUP2 MSTORE PUSH1 0x20 ADD PUSH1 0x0 KECCAK256 PUSH1 0x3 ADD PUSH1 0x1 PUSH2 0x100 EXP DUP2 SLOAD DUP2 PUSH1 0xFF MUL NOT AND SWAP1 DUP4 ISZERO ISZERO MUL OR SWAP1 SSTORE POP POP JUMP JUMPDEST PUSH1 0x0 PUSH1 0x2 SLOAD SWAP1 POP SWAP1 JUMP JUMPDEST PUSH1 0x0 DUP1 SLOAD SWAP1 PUSH2 0x100 EXP SWAP1 DIV PUSH20 0xFFFFFFFFFFFFFFFFFFFFFFFFFFFFFFFFFFFFFFFF AND PUSH20 0xFFFFFFFFFFFFFFFFFFFFFFFFFFFFFFFFFFFFFFFF AND CALLER PUSH20 0xFFFFFFFFFFFFFFFFFFFFFFFFFFFFFFFFFFFFFFFF AND EQ PUSH2 0x6D6 JUMPI PUSH1 0x40 MLOAD PUSH32 0x8C379A000000000000000000000000000000000000000000000000000000000 DUP2 MSTORE PUSH1 0x4 ADD PUSH2 0x6CD SWAP1 PUSH2 0x1FFD JUMP JUMPDEST PUSH1 0x40 MLOAD DUP1 SWAP2 SUB SWAP1 REVERT JUMPDEST PUSH1 0x40 MLOAD DUP1 PUSH1 0xA0 ADD PUSH1 0x40 MSTORE DUP1 DUP7 DUP2 MSTORE PUSH1 0x20 ADD DUP6 DUP2 MSTORE PUSH1 0x20 ADD DUP5 DUP2 MSTORE PUSH1 0x20 ADD DUP4 DUP2 MSTORE PUSH1 0x20 ADD DUP3 DUP2 MSTORE POP PUSH1 0x5 PUSH1 0x0 DUP3 ADD MLOAD DUP2 PUSH1 0x0 ADD SWAP1 DUP1 MLOAD SWAP1 PUSH1 0x20 ADD SWAP1 PUSH2 0x71B SWAP3 SWAP2 SWAP1 PUSH2 0x1636 JUMP JUMPDEST POP PUSH1 0x20 DUP3 ADD MLOAD DUP2 PUSH1 0x1 ADD SWAP1 DUP1 MLOAD SWAP1 PUSH1 0x20 ADD SWAP1 PUSH2 0x738 SWAP3 SWAP2 SWAP1 PUSH2 0x1636 JUMP JUMPDEST POP PUSH1 0x40 DUP3 ADD MLOAD DUP2 PUSH1 0x2 ADD SWAP1 DUP1 MLOAD SWAP1 PUSH1 0x20 ADD SWAP1 PUSH2 0x755 SWAP3 SWAP2 SWAP1 PUSH2 0x1636 JUMP JUMPDEST POP PUSH1 0x60 DUP3 ADD MLOAD DUP2 PUSH1 0x3 ADD SWAP1 DUP1 MLOAD SWAP1 PUSH1 0x20 ADD SWAP1 PUSH2 0x772 SWAP3 SWAP2 SWAP1 PUSH2 0x1636 JUMP JUMPDEST POP PUSH1 0x80 DUP3 ADD MLOAD DUP2 PUSH1 0x4 ADD SWAP1 DUP1 MLOAD SWAP1 PUSH1 0x20 ADD SWAP1 PUSH2 0x78F SWAP3 SWAP2 SWAP1 PUSH2 0x1636 JUMP JUMPDEST POP SWAP1 POP POP PUSH1 0x1 PUSH1 0x3 PUSH1 0x0 PUSH2 0x100 EXP DUP2 SLOAD DUP2 PUSH1 0xFF MUL NOT AND SWAP1 DUP4 ISZERO ISZERO MUL OR SWAP1 SSTORE POP PUSH1 0x0 PUSH1 0x3 PUSH1 0x1 PUSH2 0x100 EXP DUP2 SLOAD DUP2 PUSH1 0xFF MUL NOT AND SWAP1 DUP4 ISZERO ISZERO MUL OR SWAP1 SSTORE POP POP POP POP POP POP JUMP JUMPDEST PUSH1 0x0 DUP1 SLOAD SWAP1 PUSH2 0x100 EXP SWAP1 DIV PUSH20 0xFFFFFFFFFFFFFFFFFFFFFFFFFFFFFFFFFFFFFFFF AND PUSH20 0xFFFFFFFFFFFFFFFFFFFFFFFFFFFFFFFFFFFFFFFF AND CALLER PUSH20 0xFFFFFFFFFFFFFFFFFFFFFFFFFFFFFFFFFFFFFFFF AND EQ PUSH2 0x85E JUMPI PUSH1 0x40 MLOAD PUSH32 0x8C379A000000000000000000000000000000000000000000000000000000000 DUP2 MSTORE PUSH1 0x4 ADD PUSH2 0x855 SWAP1 PUSH2 0x1FFD JUMP JUMPDEST PUSH1 0x40 MLOAD DUP1 SWAP2 SUB SWAP1 REVERT JUMPDEST PUSH1 0x0 PUSH1 0x40 MLOAD DUP1 PUSH1 0x80 ADD PUSH1 0x40 MSTORE DUP1 PUSH1 0x1 SLOAD DUP2 MSTORE PUSH1 0x20 ADD DUP5 DUP2 MSTORE PUSH1 0x20 ADD DUP4 DUP2 MSTORE PUSH1 0x20 ADD PUSH1 0x0 DUP2 MSTORE POP SWAP1 POP DUP1 PUSH1 0x4 PUSH1 0x0 PUSH1 0x1 SLOAD DUP2 MSTORE PUSH1 0x20 ADD SWAP1 DUP2 MSTORE PUSH1 0x20 ADD PUSH1 0x0 KECCAK256 PUSH1 0x0 DUP3 ADD MLOAD DUP2 PUSH1 0x0 ADD SSTORE PUSH1 0x20 DUP3 ADD MLOAD DUP2 PUSH1 0x1 ADD SWAP1 DUP1 MLOAD SWAP1 PUSH1 0x20 ADD SWAP1 PUSH2 0x8C2 SWAP3 SWAP2 SWAP1 PUSH2 0x1636 JUMP JUMPDEST POP PUSH1 0x40 DUP3 ADD MLOAD DUP2 PUSH1 0x2 ADD SWAP1 DUP1 MLOAD SWAP1 PUSH1 0x20 ADD SWAP1 PUSH2 0x8DF SWAP3 SWAP2 SWAP1 PUSH2 0x1636 JUMP JUMPDEST POP PUSH1 0x60 DUP3 ADD MLOAD DUP2 PUSH1 0x3 ADD SSTORE SWAP1 POP POP PUSH1 0x1 DUP1 PUSH1 0x0 DUP3 DUP3 SLOAD PUSH2 0x8FF SWAP2 SWAP1 PUSH2 0x1F35 JUMP JUMPDEST SWAP3 POP POP DUP2 SWAP1 SSTORE POP POP POP POP JUMP JUMPDEST PUSH1 0x2 SLOAD DUP2 JUMP JUMPDEST PUSH1 0x0 DUP1 SLOAD SWAP1 PUSH2 0x100 EXP SWAP1 DIV PUSH20 0xFFFFFFFFFFFFFFFFFFFFFFFFFFFFFFFFFFFFFFFF AND PUSH20 0xFFFFFFFFFFFFFFFFFFFFFFFFFFFFFFFFFFFFFFFF AND CALLER PUSH20 0xFFFFFFFFFFFFFFFFFFFFFFFFFFFFFFFFFFFFFFFF AND EQ PUSH2 0x99F JUMPI PUSH1 0x40 MLOAD PUSH32 0x8C379A000000000000000000000000000000000000000000000000000000000 DUP2 MSTORE PUSH1 0x4 ADD PUSH2 0x996 SWAP1 PUSH2 0x1FFD JUMP JUMPDEST PUSH1 0x40 MLOAD DUP1 SWAP2 SUB SWAP1 REVERT JUMPDEST DUP2 PUSH1 0xB PUSH1 0x0 DUP4 PUSH20 0xFFFFFFFFFFFFFFFFFFFFFFFFFFFFFFFFFFFFFFFF AND PUSH20 0xFFFFFFFFFFFFFFFFFFFFFFFFFFFFFFFFFFFFFFFF AND DUP2 MSTORE PUSH1 0x20 ADD SWAP1 DUP2 MSTORE PUSH1 0x20 ADD PUSH1 0x0 KECCAK256 PUSH1 0x3 ADD PUSH1 0x0 PUSH2 0x100 EXP DUP2 SLOAD DUP2 PUSH1 0xFF MUL NOT AND SWAP1 DUP4 ISZERO ISZERO MUL OR SWAP1 SSTORE POP POP POP JUMP JUMPDEST PUSH1 0xB PUSH1 0x20 MSTORE DUP1 PUSH1 0x0 MSTORE PUSH1 0x40 PUSH1 0x0 KECCAK256 PUSH1 0x0 SWAP2 POP SWAP1 POP DUP1 PUSH1 0x0 ADD PUSH1 0x0 SWAP1 SLOAD SWAP1 PUSH2 0x100 EXP SWAP1 DIV PUSH20 0xFFFFFFFFFFFFFFFFFFFFFFFFFFFFFFFFFFFFFFFF AND SWAP1 DUP1 PUSH1 0x1 ADD DUP1 SLOAD PUSH2 0xA46 SWAP1 PUSH2 0x204C JUMP JUMPDEST DUP1 PUSH1 0x1F ADD PUSH1 0x20 DUP1 SWAP2 DIV MUL PUSH1 0x20 ADD PUSH1 0x40 MLOAD SWAP1 DUP2 ADD PUSH1 0x40 MSTORE DUP1 SWAP3 SWAP2 SWAP1 DUP2 DUP2 MSTORE PUSH1 0x20 ADD DUP3 DUP1 SLOAD PUSH2 0xA72 SWAP1 PUSH2 0x204C JUMP JUMPDEST DUP1 ISZERO PUSH2 0xABF JUMPI DUP1 PUSH1 0x1F LT PUSH2 0xA94 JUMPI PUSH2 0x100 DUP1 DUP4 SLOAD DIV MUL DUP4 MSTORE SWAP2 PUSH1 0x20 ADD SWAP2 PUSH2 0xABF JUMP JUMPDEST DUP3 ADD SWAP2 SWAP1 PUSH1 0x0 MSTORE PUSH1 0x20 PUSH1 0x0 KECCAK256 SWAP1 JUMPDEST DUP2 SLOAD DUP2 MSTORE SWAP1 PUSH1 0x1 ADD SWAP1 PUSH1 0x20 ADD DUP1 DUP4 GT PUSH2 0xAA2 JUMPI DUP3 SWAP1 SUB PUSH1 0x1F AND DUP3 ADD SWAP2 JUMPDEST POP POP POP POP POP SWAP1 DUP1 PUSH1 0x2 ADD DUP1 SLOAD PUSH2 0xAD4 SWAP1 PUSH2 0x204C JUMP JUMPDEST DUP1 PUSH1 0x1F ADD PUSH1 0x20 DUP1 SWAP2 DIV MUL PUSH1 0x20 ADD PUSH1 0x40 MLOAD SWAP1 DUP2 ADD PUSH1 0x40 MSTORE DUP1 SWAP3 SWAP2 SWAP1 DUP2 DUP2 MSTORE PUSH1 0x20 ADD DUP3 DUP1 SLOAD PUSH2 0xB00 SWAP1 PUSH2 0x204C JUMP JUMPDEST DUP1 ISZERO PUSH2 0xB4D JUMPI DUP1 PUSH1 0x1F LT PUSH2 0xB22 JUMPI PUSH2 0x100 DUP1 DUP4 SLOAD DIV MUL DUP4 MSTORE SWAP2 PUSH1 0x20 ADD SWAP2 PUSH2 0xB4D JUMP JUMPDEST DUP3 ADD SWAP2 SWAP1 PUSH1 0x0 MSTORE PUSH1 0x20 PUSH1 0x0 KECCAK256 SWAP1 JUMPDEST DUP2 SLOAD DUP2 MSTORE SWAP1 PUSH1 0x1 ADD SWAP1 PUSH1 0x20 ADD DUP1 DUP4 GT PUSH2 0xB30 JUMPI DUP3 SWAP1 SUB PUSH1 0x1F AND DUP3 ADD SWAP2 JUMPDEST POP POP POP POP POP SWAP1 DUP1 PUSH1 0x3 ADD PUSH1 0x0 SWAP1 SLOAD SWAP1 PUSH2 0x100 EXP SWAP1 DIV PUSH1 0xFF AND SWAP1 DUP1 PUSH1 0x3 ADD PUSH1 0x1 SWAP1 SLOAD SWAP1 PUSH2 0x100 EXP SWAP1 DIV PUSH1 0xFF AND SWAP1 DUP1 PUSH1 0x3 ADD PUSH1 0x2 SWAP1 SLOAD SWAP1 PUSH2 0x100 EXP SWAP1 DIV PUSH1 0xFF AND SWAP1 POP DUP7 JUMP JUMPDEST PUSH1 0x0 DUP1 SLOAD SWAP1 PUSH2 0x100 EXP SWAP1 DIV PUSH20 0xFFFFFFFFFFFFFFFFFFFFFFFFFFFFFFFFFFFFFFFF AND PUSH20 0xFFFFFFFFFFFFFFFFFFFFFFFFFFFFFFFFFFFFFFFF AND CALLER PUSH20 0xFFFFFFFFFFFFFFFFFFFFFFFFFFFFFFFFFFFFFFFF AND EQ PUSH2 0xC1E JUMPI PUSH1 0x40 MLOAD PUSH32 0x8C379A000000000000000000000000000000000000000000000000000000000 DUP2 MSTORE PUSH1 0x4 ADD PUSH2 0xC15 SWAP1 PUSH2 0x1FFD JUMP JUMPDEST PUSH1 0x40 MLOAD DUP1 SWAP2 SUB SWAP1 REVERT JUMPDEST PUSH1 0x1 PUSH1 0x3 PUSH1 0x1 PUSH2 0x100 EXP DUP2 SLOAD DUP2 PUSH1 0xFF MUL NOT AND SWAP1 DUP4 ISZERO ISZERO MUL OR SWAP1 SSTORE POP PUSH1 0x0 PUSH1 0x3 PUSH1 0x0 PUSH2 0x100 EXP DUP2 SLOAD DUP2 PUSH1 0xFF MUL NOT AND SWAP1 DUP4 ISZERO ISZERO MUL OR SWAP1 SSTORE POP JUMP JUMPDEST PUSH1 0x4 PUSH1 0x20 MSTORE DUP1 PUSH1 0x0 MSTORE PUSH1 0x40 PUSH1 0x0 KECCAK256 PUSH1 0x0 SWAP2 POP SWAP1 POP DUP1 PUSH1 0x0 ADD SLOAD SWAP1 DUP1 PUSH1 0x1 ADD DUP1 SLOAD PUSH2 0xC7F SWAP1 PUSH2 0x204C JUMP JUMPDEST DUP1 PUSH1 0x1F ADD PUSH1 0x20 DUP1 SWAP2 DIV MUL PUSH1 0x20 ADD PUSH1 0x40 MLOAD SWAP1 DUP2 ADD PUSH1 0x40 MSTORE DUP1 SWAP3 SWAP2 SWAP1 DUP2 DUP2 MSTORE PUSH1 0x20 ADD DUP3 DUP1 SLOAD PUSH2 0xCAB SWAP1 PUSH2 0x204C JUMP JUMPDEST DUP1 ISZERO PUSH2 0xCF8 JUMPI DUP1 PUSH1 0x1F LT PUSH2 0xCCD JUMPI PUSH2 0x100 DUP1 DUP4 SLOAD DIV MUL DUP4 MSTORE SWAP2 PUSH1 0x20 ADD SWAP2 PUSH2 0xCF8 JUMP JUMPDEST DUP3 ADD SWAP2 SWAP1 PUSH1 0x0 MSTORE PUSH1 0x20 PUSH1 0x0 KECCAK256 SWAP1 JUMPDEST DUP2 SLOAD DUP2 MSTORE SWAP1 PUSH1 0x1 ADD SWAP1 PUSH1 0x20 ADD DUP1 DUP4 GT PUSH2 0xCDB JUMPI DUP3 SWAP1 SUB PUSH1 0x1F AND DUP3 ADD SWAP2 JUMPDEST POP POP POP POP POP SWAP1 DUP1 PUSH1 0x2 ADD DUP1 SLOAD PUSH2 0xD0D SWAP1 PUSH2 0x204C JUMP JUMPDEST DUP1 PUSH1 0x1F ADD PUSH1 0x20 DUP1 SWAP2 DIV MUL PUSH1 0x20 ADD PUSH1 0x40 MLOAD SWAP1 DUP2 ADD PUSH1 0x40 MSTORE DUP1 SWAP3 SWAP2 SWAP1 DUP2 DUP2 MSTORE PUSH1 0x20 ADD DUP3 DUP1 SLOAD PUSH2 0xD39 SWAP1 PUSH2 0x204C JUMP JUMPDEST DUP1 ISZERO PUSH2 0xD86 JUMPI DUP1 PUSH1 0x1F LT PUSH2 0xD5B JUMPI PUSH2 0x100 DUP1 DUP4 SLOAD DIV MUL DUP4 MSTORE SWAP2 PUSH1 0x20 ADD SWAP2 PUSH2 0xD86 JUMP JUMPDEST DUP3 ADD SWAP2 SWAP1 PUSH1 0x0 MSTORE PUSH1 0x20 PUSH1 0x0 KECCAK256 SWAP1 JUMPDEST DUP2 SLOAD DUP2 MSTORE SWAP1 PUSH1 0x1 ADD SWAP1 PUSH1 0x20 ADD DUP1 DUP4 GT PUSH2 0xD69 JUMPI DUP3 SWAP1 SUB PUSH1 0x1F AND DUP3 ADD SWAP2 JUMPDEST POP POP POP POP POP SWAP1 DUP1 PUSH1 0x3 ADD SLOAD SWAP1 POP DUP5 JUMP JUMPDEST PUSH1 0x0 PUSH1 0x1 SLOAD SWAP1 POP SWAP1 JUMP JUMPDEST PUSH1 0x5 DUP1 PUSH1 0x0 ADD DUP1 SLOAD PUSH2 0xDB1 SWAP1 PUSH2 0x204C JUMP JUMPDEST DUP1 PUSH1 0x1F ADD PUSH1 0x20 DUP1 SWAP2 DIV MUL PUSH1 0x20 ADD PUSH1 0x40 MLOAD SWAP1 DUP2 ADD PUSH1 0x40 MSTORE DUP1 SWAP3 SWAP2 SWAP1 DUP2 DUP2 MSTORE PUSH1 0x20 ADD DUP3 DUP1 SLOAD PUSH2 0xDDD SWAP1 PUSH2 0x204C JUMP JUMPDEST DUP1 ISZERO PUSH2 0xE2A JUMPI DUP1 PUSH1 0x1F LT PUSH2 0xDFF JUMPI PUSH2 0x100 DUP1 DUP4 SLOAD DIV MUL DUP4 MSTORE SWAP2 PUSH1 0x20 ADD SWAP2 PUSH2 0xE2A JUMP JUMPDEST DUP3 ADD SWAP2 SWAP1 PUSH1 0x0 MSTORE PUSH1 0x20 PUSH1 0x0 KECCAK256 SWAP1 JUMPDEST DUP2 SLOAD DUP2 MSTORE SWAP1 PUSH1 0x1 ADD SWAP1 PUSH1 0x20 ADD DUP1 DUP4 GT PUSH2 0xE0D JUMPI DUP3 SWAP1 SUB PUSH1 0x1F AND DUP3 ADD SWAP2 JUMPDEST POP POP POP POP POP SWAP1 DUP1 PUSH1 0x1 ADD DUP1 SLOAD PUSH2 0xE3F SWAP1 PUSH2 0x204C JUMP JUMPDEST DUP1 PUSH1 0x1F ADD PUSH1 0x20 DUP1 SWAP2 DIV MUL PUSH1 0x20 ADD PUSH1 0x40 MLOAD SWAP1 DUP2 ADD PUSH1 0x40 MSTORE DUP1 SWAP3 SWAP2 SWAP1 DUP2 DUP2 MSTORE PUSH1 0x20 ADD DUP3 DUP1 SLOAD PUSH2 0xE6B SWAP1 PUSH2 0x204C JUMP JUMPDEST DUP1 ISZERO PUSH2 0xEB8 JUMPI DUP1 PUSH1 0x1F LT PUSH2 0xE8D JUMPI PUSH2 0x100 DUP1 DUP4 SLOAD DIV MUL DUP4 MSTORE SWAP2 PUSH1 0x20 ADD SWAP2 PUSH2 0xEB8 JUMP JUMPDEST DUP3 ADD SWAP2 SWAP1 PUSH1 0x0 MSTORE PUSH1 0x20 PUSH1 0x0 KECCAK256 SWAP1 JUMPDEST DUP2 SLOAD DUP2 MSTORE SWAP1 PUSH1 0x1 ADD SWAP1 PUSH1 0x20 ADD DUP1 DUP4 GT PUSH2 0xE9B JUMPI DUP3 SWAP1 SUB PUSH1 0x1F AND DUP3 ADD SWAP2 JUMPDEST POP POP POP POP POP SWAP1 DUP1 PUSH1 0x2 ADD DUP1 SLOAD PUSH2 0xECD SWAP1 PUSH2 0x204C JUMP JUMPDEST DUP1 PUSH1 0x1F ADD PUSH1 0x20 DUP1 SWAP2 DIV MUL PUSH1 0x20 ADD PUSH1 0x40 MLOAD SWAP1 DUP2 ADD PUSH1 0x40 MSTORE DUP1 SWAP3 SWAP2 SWAP1 DUP2 DUP2 MSTORE PUSH1 0x20 ADD DUP3 DUP1 SLOAD PUSH2 0xEF9 SWAP1 PUSH2 0x204C JUMP JUMPDEST DUP1 ISZERO PUSH2 0xF46 JUMPI DUP1 PUSH1 0x1F LT PUSH2 0xF1B JUMPI PUSH2 0x100 DUP1 DUP4 SLOAD DIV MUL DUP4 MSTORE SWAP2 PUSH1 0x20 ADD SWAP2 PUSH2 0xF46 JUMP JUMPDEST DUP3 ADD SWAP2 SWAP1 PUSH1 0x0 MSTORE PUSH1 0x20 PUSH1 0x0 KECCAK256 SWAP1 JUMPDEST DUP2 SLOAD DUP2 MSTORE SWAP1 PUSH1 0x1 ADD SWAP1 PUSH1 0x20 ADD DUP1 DUP4 GT PUSH2 0xF29 JUMPI DUP3 SWAP1 SUB PUSH1 0x1F AND DUP3 ADD SWAP2 JUMPDEST POP POP POP POP POP SWAP1 DUP1 PUSH1 0x3 ADD DUP1 SLOAD PUSH2 0xF5B SWAP1 PUSH2 0x204C JUMP JUMPDEST DUP1 PUSH1 0x1F ADD PUSH1 0x20 DUP1 SWAP2 DIV MUL PUSH1 0x20 ADD PUSH1 0x40 MLOAD SWAP1 DUP2 ADD PUSH1 0x40 MSTORE DUP1 SWAP3 SWAP2 SWAP1 DUP2 DUP2 MSTORE PUSH1 0x20 ADD DUP3 DUP1 SLOAD PUSH2 0xF87 SWAP1 PUSH2 0x204C JUMP JUMPDEST DUP1 ISZERO PUSH2 0xFD4 JUMPI DUP1 PUSH1 0x1F LT PUSH2 0xFA9 JUMPI PUSH2 0x100 DUP1 DUP4 SLOAD DIV MUL DUP4 MSTORE SWAP2 PUSH1 0x20 ADD SWAP2 PUSH2 0xFD4 JUMP JUMPDEST DUP3 ADD SWAP2 SWAP1 PUSH1 0x0 MSTORE PUSH1 0x20 PUSH1 0x0 KECCAK256 SWAP1 JUMPDEST DUP2 SLOAD DUP2 MSTORE SWAP1 PUSH1 0x1 ADD SWAP1 PUSH1 0x20 ADD DUP1 DUP4 GT PUSH2 0xFB7 JUMPI DUP3 SWAP1 SUB PUSH1 0x1F AND DUP3 ADD SWAP2 JUMPDEST POP POP POP POP POP SWAP1 DUP1 PUSH1 0x4 ADD DUP1 SLOAD PUSH2 0xFE9 SWAP1 PUSH2 0x204C JUMP JUMPDEST DUP1 PUSH1 0x1F ADD PUSH1 0x20 DUP1 SWAP2 DIV MUL PUSH1 0x20 ADD PUSH1 0x40 MLOAD SWAP1 DUP2 ADD PUSH1 0x40 MSTORE DUP1 SWAP3 SWAP2 SWAP1 DUP2 DUP2 MSTORE PUSH1 0x20 ADD DUP3 DUP1 SLOAD PUSH2 0x1015 SWAP1 PUSH2 0x204C JUMP JUMPDEST DUP1 ISZERO PUSH2 0x1062 JUMPI DUP1 PUSH1 0x1F LT PUSH2 0x1037 JUMPI PUSH2 0x100 DUP1 DUP4 SLOAD DIV MUL DUP4 MSTORE SWAP2 PUSH1 0x20 ADD SWAP2 PUSH2 0x1062 JUMP JUMPDEST DUP3 ADD SWAP2 SWAP1 PUSH1 0x0 MSTORE PUSH1 0x20 PUSH1 0x0 KECCAK256 SWAP1 JUMPDEST DUP2 SLOAD DUP2 MSTORE SWAP1 PUSH1 0x1 ADD SWAP1 PUSH1 0x20 ADD DUP1 DUP4 GT PUSH2 0x1045 JUMPI DUP3 SWAP1 SUB PUSH1 0x1F AND DUP3 ADD SWAP2 JUMPDEST POP POP POP POP POP SWAP1 POP DUP6 JUMP JUMPDEST PUSH1 0x0 DUP1 PUSH1 0x0 SWAP1 SLOAD SWAP1 PUSH2 0x100 EXP SWAP1 DIV PUSH20 0xFFFFFFFFFFFFFFFFFFFFFFFFFFFFFFFFFFFFFFFF AND SWAP1 POP SWAP1 JUMP JUMPDEST PUSH1 0x0 PUSH1 0x3 PUSH1 0x1 SWAP1 SLOAD SWAP1 PUSH2 0x100 EXP SWAP1 DIV PUSH1 0xFF AND SWAP1 POP SWAP1 JUMP JUMPDEST PUSH1 0x1 SLOAD DUP2 JUMP JUMPDEST PUSH1 0x3 PUSH1 0x0 SWAP1 SLOAD SWAP1 PUSH2 0x100 EXP SWAP1 DIV PUSH1 0xFF AND DUP2 JUMP JUMPDEST PUSH1 0x0 PUSH1 0x3 PUSH1 0x0 SWAP1 SLOAD SWAP1 PUSH2 0x100 EXP SWAP1 DIV PUSH1 0xFF AND SWAP1 POP SWAP1 JUMP JUMPDEST PUSH1 0xA DUP2 DUP2 SLOAD DUP2 LT PUSH2 0x10EC JUMPI PUSH1 0x0 DUP1 REVERT JUMPDEST SWAP1 PUSH1 0x0 MSTORE PUSH1 0x20 PUSH1 0x0 KECCAK256 ADD PUSH1 0x0 SWAP2 POP SLOAD SWAP1 PUSH2 0x100 EXP SWAP1 DIV PUSH20 0xFFFFFFFFFFFFFFFFFFFFFFFFFFFFFFFFFFFFFFFF AND DUP2 JUMP JUMPDEST PUSH1 0x60 DUP1 PUSH1 0x60 DUP1 PUSH1 0x60 PUSH1 0x5 PUSH1 0x0 ADD PUSH1 0x5 PUSH1 0x1 ADD PUSH1 0x5 PUSH1 0x2 ADD PUSH1 0x5 PUSH1 0x3 ADD PUSH1 0x5 PUSH1 0x4 ADD DUP5 DUP1 SLOAD PUSH2 0x1148 SWAP1 PUSH2 0x204C JUMP JUMPDEST DUP1 PUSH1 0x1F ADD PUSH1 0x20 DUP1 SWAP2 DIV MUL PUSH1 0x20 ADD PUSH1 0x40 MLOAD SWAP1 DUP2 ADD PUSH1 0x40 MSTORE DUP1 SWAP3 SWAP2 SWAP1 DUP2 DUP2 MSTORE PUSH1 0x20 ADD DUP3 DUP1 SLOAD PUSH2 0x1174 SWAP1 PUSH2 0x204C JUMP JUMPDEST DUP1 ISZERO PUSH2 0x11C1 JUMPI DUP1 PUSH1 0x1F LT PUSH2 0x1196 JUMPI PUSH2 0x100 DUP1 DUP4 SLOAD DIV MUL DUP4 MSTORE SWAP2 PUSH1 0x20 ADD SWAP2 PUSH2 0x11C1 JUMP JUMPDEST DUP3 ADD SWAP2 SWAP1 PUSH1 0x0 MSTORE PUSH1 0x20 PUSH1 0x0 KECCAK256 SWAP1 JUMPDEST DUP2 SLOAD DUP2 MSTORE SWAP1 PUSH1 0x1 ADD SWAP1 PUSH1 0x20 ADD DUP1 DUP4 GT PUSH2 0x11A4 JUMPI DUP3 SWAP1 SUB PUSH1 0x1F AND DUP3 ADD SWAP2 JUMPDEST POP POP POP POP POP SWAP5 POP DUP4 DUP1 SLOAD PUSH2 0x11D4 SWAP1 PUSH2 0x204C JUMP JUMPDEST DUP1 PUSH1 0x1F ADD PUSH1 0x20 DUP1 SWAP2 DIV MUL PUSH1 0x20 ADD PUSH1 0x40 MLOAD SWAP1 DUP2 ADD PUSH1 0x40 MSTORE DUP1 SWAP3 SWAP2 SWAP1 DUP2 DUP2 MSTORE PUSH1 0x20 ADD DUP3 DUP1 SLOAD PUSH2 0x1200 SWAP1 PUSH2 0x204C JUMP JUMPDEST DUP1 ISZERO PUSH2 0x124D JUMPI DUP1 PUSH1 0x1F LT PUSH2 0x1222 JUMPI PUSH2 0x100 DUP1 DUP4 SLOAD DIV MUL DUP4 MSTORE SWAP2 PUSH1 0x20 ADD SWAP2 PUSH2 0x124D JUMP JUMPDEST DUP3 ADD SWAP2 SWAP1 PUSH1 0x0 MSTORE PUSH1 0x20 PUSH1 0x0 KECCAK256 SWAP1 JUMPDEST DUP2 SLOAD DUP2 MSTORE SWAP1 PUSH1 0x1 ADD SWAP1 PUSH1 0x20 ADD DUP1 DUP4 GT PUSH2 0x1230 JUMPI DUP3 SWAP1 SUB PUSH1 0x1F AND DUP3 ADD SWAP2 JUMPDEST POP POP POP POP POP SWAP4 POP DUP3 DUP1 SLOAD PUSH2 0x1260 SWAP1 PUSH2 0x204C JUMP JUMPDEST DUP1 PUSH1 0x1F ADD PUSH1 0x20 DUP1 SWAP2 DIV MUL PUSH1 0x20 ADD PUSH1 0x40 MLOAD SWAP1 DUP2 ADD PUSH1 0x40 MSTORE DUP1 SWAP3 SWAP2 SWAP1 DUP2 DUP2 MSTORE PUSH1 0x20 ADD DUP3 DUP1 SLOAD PUSH2 0x128C SWAP1 PUSH2 0x204C JUMP JUMPDEST DUP1 ISZERO PUSH2 0x12D9 JUMPI DUP1 PUSH1 0x1F LT PUSH2 0x12AE JUMPI PUSH2 0x100 DUP1 DUP4 SLOAD DIV MUL DUP4 MSTORE SWAP2 PUSH1 0x20 ADD SWAP2 PUSH2 0x12D9 JUMP JUMPDEST DUP3 ADD SWAP2 SWAP1 PUSH1 0x0 MSTORE PUSH1 0x20 PUSH1 0x0 KECCAK256 SWAP1 JUMPDEST DUP2 SLOAD DUP2 MSTORE SWAP1 PUSH1 0x1 ADD SWAP1 PUSH1 0x20 ADD DUP1 DUP4 GT PUSH2 0x12BC JUMPI DUP3 SWAP1 SUB PUSH1 0x1F AND DUP3 ADD SWAP2 JUMPDEST POP POP POP POP POP SWAP3 POP DUP2 DUP1 SLOAD PUSH2 0x12EC SWAP1 PUSH2 0x204C JUMP JUMPDEST DUP1 PUSH1 0x1F ADD PUSH1 0x20 DUP1 SWAP2 DIV MUL PUSH1 0x20 ADD PUSH1 0x40 MLOAD SWAP1 DUP2 ADD PUSH1 0x40 MSTORE DUP1 SWAP3 SWAP2 SWAP1 DUP2 DUP2 MSTORE PUSH1 0x20 ADD DUP3 DUP1 SLOAD PUSH2 0x1318 SWAP1 PUSH2 0x204C JUMP JUMPDEST DUP1 ISZERO PUSH2 0x1365 JUMPI DUP1 PUSH1 0x1F LT PUSH2 0x133A JUMPI PUSH2 0x100 DUP1 DUP4 SLOAD DIV MUL DUP4 MSTORE SWAP2 PUSH1 0x20 ADD SWAP2 PUSH2 0x1365 JUMP JUMPDEST DUP3 ADD SWAP2 SWAP1 PUSH1 0x0 MSTORE PUSH1 0x20 PUSH1 0x0 KECCAK256 SWAP1 JUMPDEST DUP2 SLOAD DUP2 MSTORE SWAP1 PUSH1 0x1 ADD SWAP1 PUSH1 0x20 ADD DUP1 DUP4 GT PUSH2 0x1348 JUMPI DUP3 SWAP1 SUB PUSH1 0x1F AND DUP3 ADD SWAP2 JUMPDEST POP POP POP POP POP SWAP2 POP DUP1 DUP1 SLOAD PUSH2 0x1378 SWAP1 PUSH2 0x204C JUMP JUMPDEST DUP1 PUSH1 0x1F ADD PUSH1 0x20 DUP1 SWAP2 DIV MUL PUSH1 0x20 ADD PUSH1 0x40 MLOAD SWAP1 DUP2 ADD PUSH1 0x40 MSTORE DUP1 SWAP3 SWAP2 SWAP1 DUP2 DUP2 MSTORE PUSH1 0x20 ADD DUP3 DUP1 SLOAD PUSH2 0x13A4 SWAP1 PUSH2 0x204C JUMP JUMPDEST DUP1 ISZERO PUSH2 0x13F1 JUMPI DUP1 PUSH1 0x1F LT PUSH2 0x13C6 JUMPI PUSH2 0x100 DUP1 DUP4 SLOAD DIV MUL DUP4 MSTORE SWAP2 PUSH1 0x20 ADD SWAP2 PUSH2 0x13F1 JUMP JUMPDEST DUP3 ADD SWAP2 SWAP1 PUSH1 0x0 MSTORE PUSH1 0x20 PUSH1 0x0 KECCAK256 SWAP1 JUMPDEST DUP2 SLOAD DUP2 MSTORE SWAP1 PUSH1 0x1 ADD SWAP1 PUSH1 0x20 ADD DUP1 DUP4 GT PUSH2 0x13D4 JUMPI DUP3 SWAP1 SUB PUSH1 0x1F AND DUP3 ADD SWAP2 JUMPDEST POP POP POP POP POP SWAP1 POP SWAP5 POP SWAP5 POP SWAP5 POP SWAP5 POP SWAP5 POP SWAP1 SWAP2 SWAP3 SWAP4 SWAP5 JUMP JUMPDEST PUSH1 0x3 PUSH1 0x1 SWAP1 SLOAD SWAP1 PUSH2 0x100 EXP SWAP1 DIV PUSH1 0xFF AND DUP2 JUMP JUMPDEST PUSH1 0x0 DUP1 SLOAD SWAP1 PUSH2 0x100 EXP SWAP1 DIV PUSH20 0xFFFFFFFFFFFFFFFFFFFFFFFFFFFFFFFFFFFFFFFF AND DUP2 JUMP JUMPDEST PUSH1 0x0 PUSH1 0x40 MLOAD DUP1 PUSH1 0xC0 ADD PUSH1 0x40 MSTORE DUP1 CALLER PUSH20 0xFFFFFFFFFFFFFFFFFFFFFFFFFFFFFFFFFFFFFFFF AND DUP2 MSTORE PUSH1 0x20 ADD DUP5 DUP2 MSTORE PUSH1 0x20 ADD DUP4 DUP2 MSTORE PUSH1 0x20 ADD PUSH1 0x0 ISZERO ISZERO DUP2 MSTORE PUSH1 0x20 ADD PUSH1 0x0 ISZERO ISZERO DUP2 MSTORE PUSH1 0x20 ADD PUSH1 0x1 ISZERO ISZERO DUP2 MSTORE POP SWAP1 POP DUP1 PUSH1 0xB PUSH1 0x0 CALLER PUSH20 0xFFFFFFFFFFFFFFFFFFFFFFFFFFFFFFFFFFFFFFFF AND PUSH20 0xFFFFFFFFFFFFFFFFFFFFFFFFFFFFFFFFFFFFFFFF AND DUP2 MSTORE PUSH1 0x20 ADD SWAP1 DUP2 MSTORE PUSH1 0x20 ADD PUSH1 0x0 KECCAK256 PUSH1 0x0 DUP3 ADD MLOAD DUP2 PUSH1 0x0 ADD PUSH1 0x0 PUSH2 0x100 EXP DUP2 SLOAD DUP2 PUSH20 0xFFFFFFFFFFFFFFFFFFFFFFFFFFFFFFFFFFFFFFFF MUL NOT AND SWAP1 DUP4 PUSH20 0xFFFFFFFFFFFFFFFFFFFFFFFFFFFFFFFFFFFFFFFF AND MUL OR SWAP1 SSTORE POP PUSH1 0x20 DUP3 ADD MLOAD DUP2 PUSH1 0x1 ADD SWAP1 DUP1 MLOAD SWAP1 PUSH1 0x20 ADD SWAP1 PUSH2 0x1533 SWAP3 SWAP2 SWAP1 PUSH2 0x1636 JUMP JUMPDEST POP PUSH1 0x40 DUP3 ADD MLOAD DUP2 PUSH1 0x2 ADD SWAP1 DUP1 MLOAD SWAP1 PUSH1 0x20 ADD SWAP1 PUSH2 0x1550 SWAP3 SWAP2 SWAP1 PUSH2 0x1636 JUMP JUMPDEST POP PUSH1 0x60 DUP3 ADD MLOAD DUP2 PUSH1 0x3 ADD PUSH1 0x0 PUSH2 0x100 EXP DUP2 SLOAD DUP2 PUSH1 0xFF MUL NOT AND SWAP1 DUP4 ISZERO ISZERO MUL OR SWAP1 SSTORE POP PUSH1 0x80 DUP3 ADD MLOAD DUP2 PUSH1 0x3 ADD PUSH1 0x1 PUSH2 0x100 EXP DUP2 SLOAD DUP2 PUSH1 0xFF MUL NOT AND SWAP1 DUP4 ISZERO ISZERO MUL OR SWAP1 SSTORE POP PUSH1 0xA0 DUP3 ADD MLOAD DUP2 PUSH1 0x3 ADD PUSH1 0x2 PUSH2 0x100 EXP DUP2 SLOAD DUP2 PUSH1 0xFF MUL NOT AND SWAP1 DUP4 ISZERO ISZERO MUL OR SWAP1 SSTORE POP SWAP1 POP POP PUSH1 0xA CALLER SWAP1 DUP1 PUSH1 0x1 DUP2 SLOAD ADD DUP1 DUP3 SSTORE DUP1 SWAP2 POP POP PUSH1 0x1 SWAP1 SUB SWAP1 PUSH1 0x0 MSTORE PUSH1 0x20 PUSH1 0x0 KECCAK256 ADD PUSH1 0x0 SWAP1 SWAP2 SWAP1 SWAP2 SWAP1 SWAP2 PUSH2 0x100 EXP DUP2 SLOAD DUP2 PUSH20 0xFFFFFFFFFFFFFFFFFFFFFFFFFFFFFFFFFFFFFFFF MUL NOT AND SWAP1 DUP4 PUSH20 0xFFFFFFFFFFFFFFFFFFFFFFFFFFFFFFFFFFFFFFFF AND MUL OR SWAP1 SSTORE POP PUSH1 0x1 PUSH1 0x2 PUSH1 0x0 DUP3 DUP3 SLOAD PUSH2 0x162A SWAP2 SWAP1 PUSH2 0x1F35 JUMP JUMPDEST SWAP3 POP POP DUP2 SWAP1 SSTORE POP POP POP POP JUMP JUMPDEST DUP3 DUP1 SLOAD PUSH2 0x1642 SWAP1 PUSH2 0x204C JUMP JUMPDEST SWAP1 PUSH1 0x0 MSTORE PUSH1 0x20 PUSH1 0x0 KECCAK256 SWAP1 PUSH1 0x1F ADD PUSH1 0x20 SWAP1 DIV DUP2 ADD SWAP3 DUP3 PUSH2 0x1664 JUMPI PUSH1 0x0 DUP6 SSTORE PUSH2 0x16AB JUMP JUMPDEST DUP3 PUSH1 0x1F LT PUSH2 0x167D JUMPI DUP1 MLOAD PUSH1 0xFF NOT AND DUP4 DUP1 ADD OR DUP6 SSTORE PUSH2 0x16AB JUMP JUMPDEST DUP3 DUP1 ADD PUSH1 0x1 ADD DUP6 SSTORE DUP3 ISZERO PUSH2 0x16AB JUMPI SWAP2 DUP3 ADD JUMPDEST DUP3 DUP2 GT ISZERO PUSH2 0x16AA JUMPI DUP3 MLOAD DUP3 SSTORE SWAP2 PUSH1 0x20 ADD SWAP2 SWAP1 PUSH1 0x1 ADD SWAP1 PUSH2 0x168F JUMP JUMPDEST JUMPDEST POP SWAP1 POP PUSH2 0x16B8 SWAP2 SWAP1 PUSH2 0x16BC JUMP JUMPDEST POP SWAP1 JUMP JUMPDEST JUMPDEST DUP1 DUP3 GT ISZERO PUSH2 0x16D5 JUMPI PUSH1 0x0 DUP2 PUSH1 0x0 SWAP1 SSTORE POP PUSH1 0x1 ADD PUSH2 0x16BD JUMP JUMPDEST POP SWAP1 JUMP JUMPDEST PUSH1 0x0 PUSH1 0x40 MLOAD SWAP1 POP SWAP1 JUMP JUMPDEST PUSH1 0x0 DUP1 REVERT JUMPDEST PUSH1 0x0 DUP1 REVERT JUMPDEST PUSH1 0x0 DUP2 SWAP1 POP SWAP2 SWAP1 POP JUMP JUMPDEST PUSH2 0x1700 DUP2 PUSH2 0x16ED JUMP JUMPDEST DUP2 EQ PUSH2 0x170B JUMPI PUSH1 0x0 DUP1 REVERT JUMPDEST POP JUMP JUMPDEST PUSH1 0x0 DUP2 CALLDATALOAD SWAP1 POP PUSH2 0x171D DUP2 PUSH2 0x16F7 JUMP JUMPDEST SWAP3 SWAP2 POP POP JUMP JUMPDEST PUSH1 0x0 PUSH1 0x20 DUP3 DUP5 SUB SLT ISZERO PUSH2 0x1739 JUMPI PUSH2 0x1738 PUSH2 0x16E3 JUMP JUMPDEST JUMPDEST PUSH1 0x0 PUSH2 0x1747 DUP5 DUP3 DUP6 ADD PUSH2 0x170E JUMP JUMPDEST SWAP2 POP POP SWAP3 SWAP2 POP POP JUMP JUMPDEST PUSH2 0x1759 DUP2 PUSH2 0x16ED JUMP JUMPDEST DUP3 MSTORE POP POP JUMP JUMPDEST PUSH1 0x0 PUSH1 0x20 DUP3 ADD SWAP1 POP PUSH2 0x1774 PUSH1 0x0 DUP4 ADD DUP5 PUSH2 0x1750 JUMP JUMPDEST SWAP3 SWAP2 POP POP JUMP JUMPDEST PUSH1 0x0 DUP1 REVERT JUMPDEST PUSH1 0x0 DUP1 REVERT JUMPDEST PUSH1 0x0 PUSH1 0x1F NOT PUSH1 0x1F DUP4 ADD AND SWAP1 POP SWAP2 SWAP1 POP JUMP JUMPDEST PUSH32 0x4E487B7100000000000000000000000000000000000000000000000000000000 PUSH1 0x0 MSTORE PUSH1 0x41 PUSH1 0x4 MSTORE PUSH1 0x24 PUSH1 0x0 REVERT JUMPDEST PUSH2 0x17CD DUP3 PUSH2 0x1784 JUMP JUMPDEST DUP2 ADD DUP2 DUP2 LT PUSH8 0xFFFFFFFFFFFFFFFF DUP3 GT OR ISZERO PUSH2 0x17EC JUMPI PUSH2 0x17EB PUSH2 0x1795 JUMP JUMPDEST JUMPDEST DUP1 PUSH1 0x40 MSTORE POP POP POP JUMP JUMPDEST PUSH1 0x0 PUSH2 0x17FF PUSH2 0x16D9 JUMP JUMPDEST SWAP1 POP PUSH2 0x180B DUP3 DUP3 PUSH2 0x17C4 JUMP JUMPDEST SWAP2 SWAP1 POP JUMP JUMPDEST PUSH1 0x0 PUSH8 0xFFFFFFFFFFFFFFFF DUP3 GT ISZERO PUSH2 0x182B JUMPI PUSH2 0x182A PUSH2 0x1795 JUMP JUMPDEST JUMPDEST PUSH2 0x1834 DUP3 PUSH2 0x1784 JUMP JUMPDEST SWAP1 POP PUSH1 0x20 DUP2 ADD SWAP1 POP SWAP2 SWAP1 POP JUMP JUMPDEST DUP3 DUP2 DUP4 CALLDATACOPY PUSH1 0x0 DUP4 DUP4 ADD MSTORE POP POP POP JUMP JUMPDEST PUSH1 0x0 PUSH2 0x1863 PUSH2 0x185E DUP5 PUSH2 0x1810 JUMP JUMPDEST PUSH2 0x17F5 JUMP JUMPDEST SWAP1 POP DUP3 DUP2 MSTORE PUSH1 0x20 DUP2 ADD DUP5 DUP5 DUP5 ADD GT ISZERO PUSH2 0x187F JUMPI PUSH2 0x187E PUSH2 0x177F JUMP JUMPDEST JUMPDEST PUSH2 0x188A DUP5 DUP3 DUP6 PUSH2 0x1841 JUMP JUMPDEST POP SWAP4 SWAP3 POP POP POP JUMP JUMPDEST PUSH1 0x0 DUP3 PUSH1 0x1F DUP4 ADD SLT PUSH2 0x18A7 JUMPI PUSH2 0x18A6 PUSH2 0x177A JUMP JUMPDEST JUMPDEST DUP2 CALLDATALOAD PUSH2 0x18B7 DUP5 DUP3 PUSH1 0x20 DUP7 ADD PUSH2 0x1850 JUMP JUMPDEST SWAP2 POP POP SWAP3 SWAP2 POP POP JUMP JUMPDEST PUSH1 0x0 DUP1 PUSH1 0x0 DUP1 PUSH1 0x0 PUSH1 0xA0 DUP7 DUP9 SUB SLT ISZERO PUSH2 0x18DC JUMPI PUSH2 0x18DB PUSH2 0x16E3 JUMP JUMPDEST JUMPDEST PUSH1 0x0 DUP7 ADD CALLDATALOAD PUSH8 0xFFFFFFFFFFFFFFFF DUP2 GT ISZERO PUSH2 0x18FA JUMPI PUSH2 0x18F9 PUSH2 0x16E8 JUMP JUMPDEST JUMPDEST PUSH2 0x1906 DUP9 DUP3 DUP10 ADD PUSH2 0x1892 JUMP JUMPDEST SWAP6 POP POP PUSH1 0x20 DUP7 ADD CALLDATALOAD PUSH8 0xFFFFFFFFFFFFFFFF DUP2 GT ISZERO PUSH2 0x1927 JUMPI PUSH2 0x1926 PUSH2 0x16E8 JUMP JUMPDEST JUMPDEST PUSH2 0x1933 DUP9 DUP3 DUP10 ADD PUSH2 0x1892 JUMP JUMPDEST SWAP5 POP POP PUSH1 0x40 DUP7 ADD CALLDATALOAD PUSH8 0xFFFFFFFFFFFFFFFF DUP2 GT ISZERO PUSH2 0x1954 JUMPI PUSH2 0x1953 PUSH2 0x16E8 JUMP JUMPDEST JUMPDEST PUSH2 0x1960 DUP9 DUP3 DUP10 ADD PUSH2 0x1892 JUMP JUMPDEST SWAP4 POP POP PUSH1 0x60 DUP7 ADD CALLDATALOAD PUSH8 0xFFFFFFFFFFFFFFFF DUP2 GT ISZERO PUSH2 0x1981 JUMPI PUSH2 0x1980 PUSH2 0x16E8 JUMP JUMPDEST JUMPDEST PUSH2 0x198D DUP9 DUP3 DUP10 ADD PUSH2 0x1892 JUMP JUMPDEST SWAP3 POP POP PUSH1 0x80 DUP7 ADD CALLDATALOAD PUSH8 0xFFFFFFFFFFFFFFFF DUP2 GT ISZERO PUSH2 0x19AE JUMPI PUSH2 0x19AD PUSH2 0x16E8 JUMP JUMPDEST JUMPDEST PUSH2 0x19BA DUP9 DUP3 DUP10 ADD PUSH2 0x1892 JUMP JUMPDEST SWAP2 POP POP SWAP3 SWAP6 POP SWAP3 SWAP6 SWAP1 SWAP4 POP JUMP JUMPDEST PUSH1 0x0 DUP1 PUSH1 0x40 DUP4 DUP6 SUB SLT ISZERO PUSH2 0x19DE JUMPI PUSH2 0x19DD PUSH2 0x16E3 JUMP JUMPDEST JUMPDEST PUSH1 0x0 DUP4 ADD CALLDATALOAD PUSH8 0xFFFFFFFFFFFFFFFF DUP2 GT ISZERO PUSH2 0x19FC JUMPI PUSH2 0x19FB PUSH2 0x16E8 JUMP JUMPDEST JUMPDEST PUSH2 0x1A08 DUP6 DUP3 DUP7 ADD PUSH2 0x1892 JUMP JUMPDEST SWAP3 POP POP PUSH1 0x20 DUP4 ADD CALLDATALOAD PUSH8 0xFFFFFFFFFFFFFFFF DUP2 GT ISZERO PUSH2 0x1A29 JUMPI PUSH2 0x1A28 PUSH2 0x16E8 JUMP JUMPDEST JUMPDEST PUSH2 0x1A35 DUP6 DUP3 DUP7 ADD PUSH2 0x1892 JUMP JUMPDEST SWAP2 POP POP SWAP3 POP SWAP3 SWAP1 POP JUMP JUMPDEST PUSH1 0x0 DUP2 ISZERO ISZERO SWAP1 POP SWAP2 SWAP1 POP JUMP JUMPDEST PUSH2 0x1A54 DUP2 PUSH2 0x1A3F JUMP JUMPDEST DUP2 EQ PUSH2 0x1A5F JUMPI PUSH1 0x0 DUP1 REVERT JUMPDEST POP JUMP JUMPDEST PUSH1 0x0 DUP2 CALLDATALOAD SWAP1 POP PUSH2 0x1A71 DUP2 PUSH2 0x1A4B JUMP JUMPDEST SWAP3 SWAP2 POP POP JUMP JUMPDEST PUSH1 0x0 PUSH20 0xFFFFFFFFFFFFFFFFFFFFFFFFFFFFFFFFFFFFFFFF DUP3 AND SWAP1 POP SWAP2 SWAP1 POP JUMP JUMPDEST PUSH1 0x0 PUSH2 0x1AA2 DUP3 PUSH2 0x1A77 JUMP JUMPDEST SWAP1 POP SWAP2 SWAP1 POP JUMP JUMPDEST PUSH2 0x1AB2 DUP2 PUSH2 0x1A97 JUMP JUMPDEST DUP2 EQ PUSH2 0x1ABD JUMPI PUSH1 0x0 DUP1 REVERT JUMPDEST POP JUMP JUMPDEST PUSH1 0x0 DUP2 CALLDATALOAD SWAP1 POP PUSH2 0x1ACF DUP2 PUSH2 0x1AA9 JUMP JUMPDEST SWAP3 SWAP2 POP POP JUMP JUMPDEST PUSH1 0x0 DUP1 PUSH1 0x40 DUP4 DUP6 SUB SLT ISZERO PUSH2 0x1AEC JUMPI PUSH2 0x1AEB PUSH2 0x16E3 JUMP JUMPDEST JUMPDEST PUSH1 0x0 PUSH2 0x1AFA DUP6 DUP3 DUP7 ADD PUSH2 0x1A62 JUMP JUMPDEST SWAP3 POP POP PUSH1 0x20 PUSH2 0x1B0B DUP6 DUP3 DUP7 ADD PUSH2 0x1AC0 JUMP JUMPDEST SWAP2 POP POP SWAP3 POP SWAP3 SWAP1 POP JUMP JUMPDEST PUSH1 0x0 PUSH1 0x20 DUP3 DUP5 SUB SLT ISZERO PUSH2 0x1B2B JUMPI PUSH2 0x1B2A PUSH2 0x16E3 JUMP JUMPDEST JUMPDEST PUSH1 0x0 PUSH2 0x1B39 DUP5 DUP3 DUP6 ADD PUSH2 0x1AC0 JUMP JUMPDEST SWAP2 POP POP SWAP3 SWAP2 POP POP JUMP JUMPDEST PUSH2 0x1B4B DUP2 PUSH2 0x1A97 JUMP JUMPDEST DUP3 MSTORE POP POP JUMP JUMPDEST PUSH1 0x0 DUP2 MLOAD SWAP1 POP SWAP2 SWAP1 POP JUMP JUMPDEST PUSH1 0x0 DUP3 DUP3 MSTORE PUSH1 0x20 DUP3 ADD SWAP1 POP SWAP3 SWAP2 POP POP JUMP JUMPDEST PUSH1 0x0 JUMPDEST DUP4 DUP2 LT ISZERO PUSH2 0x1B8B JUMPI DUP1 DUP3 ADD MLOAD DUP2 DUP5 ADD MSTORE PUSH1 0x20 DUP2 ADD SWAP1 POP PUSH2 0x1B70 JUMP JUMPDEST DUP4 DUP2 GT ISZERO PUSH2 0x1B9A JUMPI PUSH1 0x0 DUP5 DUP5 ADD MSTORE JUMPDEST POP POP POP POP JUMP JUMPDEST PUSH1 0x0 PUSH2 0x1BAB DUP3 PUSH2 0x1B51 JUMP JUMPDEST PUSH2 0x1BB5 DUP2 DUP6 PUSH2 0x1B5C JUMP JUMPDEST SWAP4 POP PUSH2 0x1BC5 DUP2 DUP6 PUSH1 0x20 DUP7 ADD PUSH2 0x1B6D JUMP JUMPDEST PUSH2 0x1BCE DUP2 PUSH2 0x1784 JUMP JUMPDEST DUP5 ADD SWAP2 POP POP SWAP3 SWAP2 POP POP JUMP JUMPDEST PUSH2 0x1BE2 DUP2 PUSH2 0x1A3F JUMP JUMPDEST DUP3 MSTORE POP POP JUMP JUMPDEST PUSH1 0x0 PUSH1 0xC0 DUP3 ADD SWAP1 POP PUSH2 0x1BFD PUSH1 0x0 DUP4 ADD DUP10 PUSH2 0x1B42 JUMP JUMPDEST DUP2 DUP2 SUB PUSH1 0x20 DUP4 ADD MSTORE PUSH2 0x1C0F DUP2 DUP9 PUSH2 0x1BA0 JUMP JUMPDEST SWAP1 POP DUP2 DUP2 SUB PUSH1 0x40 DUP4 ADD MSTORE PUSH2 0x1C23 DUP2 DUP8 PUSH2 0x1BA0 JUMP JUMPDEST SWAP1 POP PUSH2 0x1C32 PUSH1 0x60 DUP4 ADD DUP7 PUSH2 0x1BD9 JUMP JUMPDEST PUSH2 0x1C3F PUSH1 0x80 DUP4 ADD DUP6 PUSH2 0x1BD9 JUMP JUMPDEST PUSH2 0x1C4C PUSH1 0xA0 DUP4 ADD DUP5 PUSH2 0x1BD9 JUMP JUMPDEST SWAP8 SWAP7 POP POP POP POP POP POP POP JUMP JUMPDEST PUSH1 0x0 PUSH1 0x80 DUP3 ADD SWAP1 POP PUSH2 0x1C6C PUSH1 0x0 DUP4 ADD DUP8 PUSH2 0x1750 JUMP JUMPDEST DUP2 DUP2 SUB PUSH1 0x20 DUP4 ADD MSTORE PUSH2 0x1C7E DUP2 DUP7 PUSH2 0x1BA0 JUMP JUMPDEST SWAP1 POP DUP2 DUP2 SUB PUSH1 0x40 DUP4 ADD MSTORE PUSH2 0x1C92 DUP2 DUP6 PUSH2 0x1BA0 JUMP JUMPDEST SWAP1 POP PUSH2 0x1CA1 PUSH1 0x60 DUP4 ADD DUP5 PUSH2 0x1750 JUMP JUMPDEST SWAP6 SWAP5 POP POP POP POP POP JUMP JUMPDEST PUSH1 0x0 PUSH1 0xA0 DUP3 ADD SWAP1 POP DUP2 DUP2 SUB PUSH1 0x0 DUP4 ADD MSTORE PUSH2 0x1CC4 DUP2 DUP9 PUSH2 0x1BA0 JUMP JUMPDEST SWAP1 POP DUP2 DUP2 SUB PUSH1 0x20 DUP4 ADD MSTORE PUSH2 0x1CD8 DUP2 DUP8 PUSH2 0x1BA0 JUMP JUMPDEST SWAP1 POP DUP2 DUP2 SUB PUSH1 0x40 DUP4 ADD MSTORE PUSH2 0x1CEC DUP2 DUP7 PUSH2 0x1BA0 JUMP JUMPDEST SWAP1 POP DUP2 DUP2 SUB PUSH1 0x60 DUP4 ADD MSTORE PUSH2 0x1D00 DUP2 DUP6 PUSH2 0x1BA0 JUMP JUMPDEST SWAP1 POP DUP2 DUP2 SUB PUSH1 0x80 DUP4 ADD MSTORE PUSH2 0x1D14 DUP2 DUP5 PUSH2 0x1BA0 JUMP JUMPDEST SWAP1 POP SWAP7 SWAP6 POP POP POP POP POP POP JUMP JUMPDEST PUSH1 0x0 PUSH1 0x20 DUP3 ADD SWAP1 POP PUSH2 0x1D35 PUSH1 0x0 DUP4 ADD DUP5 PUSH2 0x1B42 JUMP JUMPDEST SWAP3 SWAP2 POP POP JUMP JUMPDEST PUSH1 0x0 PUSH1 0x20 DUP3 ADD SWAP1 POP PUSH2 0x1D50 PUSH1 0x0 DUP4 ADD DUP5 PUSH2 0x1BD9 JUMP JUMPDEST SWAP3 SWAP2 POP POP JUMP JUMPDEST PUSH32 0x566F7465722068617320616C726561647920766F746564000000000000000000 PUSH1 0x0 DUP3 ADD MSTORE POP JUMP JUMPDEST PUSH1 0x0 PUSH2 0x1D8C PUSH1 0x17 DUP4 PUSH2 0x1B5C JUMP JUMPDEST SWAP2 POP PUSH2 0x1D97 DUP3 PUSH2 0x1D56 JUMP JUMPDEST PUSH1 0x20 DUP3 ADD SWAP1 POP SWAP2 SWAP1 POP JUMP JUMPDEST PUSH1 0x0 PUSH1 0x20 DUP3 ADD SWAP1 POP DUP2 DUP2 SUB PUSH1 0x0 DUP4 ADD MSTORE PUSH2 0x1DBB DUP2 PUSH2 0x1D7F JUMP JUMPDEST SWAP1 POP SWAP2 SWAP1 POP JUMP JUMPDEST PUSH32 0x566F746572206973206E6F742076657269666965640000000000000000000000 PUSH1 0x0 DUP3 ADD MSTORE POP JUMP JUMPDEST PUSH1 0x0 PUSH2 0x1DF8 PUSH1 0x15 DUP4 PUSH2 0x1B5C JUMP JUMPDEST SWAP2 POP PUSH2 0x1E03 DUP3 PUSH2 0x1DC2 JUMP JUMPDEST PUSH1 0x20 DUP3 ADD SWAP1 POP SWAP2 SWAP1 POP JUMP JUMPDEST PUSH1 0x0 PUSH1 0x20 DUP3 ADD SWAP1 POP DUP2 DUP2 SUB PUSH1 0x0 DUP4 ADD MSTORE PUSH2 0x1E27 DUP2 PUSH2 0x1DEB JUMP JUMPDEST SWAP1 POP SWAP2 SWAP1 POP JUMP JUMPDEST PUSH32 0x456C656374696F6E20686173206E6F7420737461727465640000000000000000 PUSH1 0x0 DUP3 ADD MSTORE POP JUMP JUMPDEST PUSH1 0x0 PUSH2 0x1E64 PUSH1 0x18 DUP4 PUSH2 0x1B5C JUMP JUMPDEST SWAP2 POP PUSH2 0x1E6F DUP3 PUSH2 0x1E2E JUMP JUMPDEST PUSH1 0x20 DUP3 ADD SWAP1 POP SWAP2 SWAP1 POP JUMP JUMPDEST PUSH1 0x0 PUSH1 0x20 DUP3 ADD SWAP1 POP DUP2 DUP2 SUB PUSH1 0x0 DUP4 ADD MSTORE PUSH2 0x1E93 DUP2 PUSH2 0x1E57 JUMP JUMPDEST SWAP1 POP SWAP2 SWAP1 POP JUMP JUMPDEST PUSH32 0x456C656374696F6E2068617320656E6465640000000000000000000000000000 PUSH1 0x0 DUP3 ADD MSTORE POP JUMP JUMPDEST PUSH1 0x0 PUSH2 0x1ED0 PUSH1 0x12 DUP4 PUSH2 0x1B5C JUMP JUMPDEST SWAP2 POP PUSH2 0x1EDB DUP3 PUSH2 0x1E9A JUMP JUMPDEST PUSH1 0x20 DUP3 ADD SWAP1 POP SWAP2 SWAP1 POP JUMP JUMPDEST PUSH1 0x0 PUSH1 0x20 DUP3 ADD SWAP1 POP DUP2 DUP2 SUB PUSH1 0x0 DUP4 ADD MSTORE PUSH2 0x1EFF DUP2 PUSH2 0x1EC3 JUMP JUMPDEST SWAP1 POP SWAP2 SWAP1 POP JUMP JUMPDEST PUSH32 0x4E487B7100000000000000000000000000000000000000000000000000000000 PUSH1 0x0 MSTORE PUSH1 0x11 PUSH1 0x4 MSTORE PUSH1 0x24 PUSH1 0x0 REVERT JUMPDEST PUSH1 0x0 PUSH2 0x1F40 DUP3 PUSH2 0x16ED JUMP JUMPDEST SWAP2 POP PUSH2 0x1F4B DUP4 PUSH2 0x16ED JUMP JUMPDEST SWAP3 POP DUP3 PUSH32 0xFFFFFFFFFFFFFFFFFFFFFFFFFFFFFFFFFFFFFFFFFFFFFFFFFFFFFFFFFFFFFFFF SUB DUP3 GT ISZERO PUSH2 0x1F80 JUMPI PUSH2 0x1F7F PUSH2 0x1F06 JUMP JUMPDEST JUMPDEST DUP3 DUP3 ADD SWAP1 POP SWAP3 SWAP2 POP POP JUMP JUMPDEST PUSH32 0x4F6E6C792061646D696E2063616E20706572666F726D20746869732061637469 PUSH1 0x0 DUP3 ADD MSTORE PUSH32 0x6F6E000000000000000000000000000000000000000000000000000000000000 PUSH1 0x20 DUP3 ADD MSTORE POP JUMP JUMPDEST PUSH1 0x0 PUSH2 0x1FE7 PUSH1 0x22 DUP4 PUSH2 0x1B5C JUMP JUMPDEST SWAP2 POP PUSH2 0x1FF2 DUP3 PUSH2 0x1F8B JUMP JUMPDEST PUSH1 0x40 DUP3 ADD SWAP1 POP SWAP2 SWAP1 POP JUMP JUMPDEST PUSH1 0x0 PUSH1 0x20 DUP3 ADD SWAP1 POP DUP2 DUP2 SUB PUSH1 0x0 DUP4 ADD MSTORE PUSH2 0x2016 DUP2 PUSH2 0x1FDA JUMP JUMPDEST SWAP1 POP SWAP2 SWAP1 POP JUMP JUMPDEST PUSH32 0x4E487B7100000000000000000000000000000000000000000000000000000000 PUSH1 0x0 MSTORE PUSH1 0x22 PUSH1 0x4 MSTORE PUSH1 0x24 PUSH1 0x0 REVERT JUMPDEST PUSH1 0x0 PUSH1 0x2 DUP3 DIV SWAP1 POP PUSH1 0x1 DUP3 AND DUP1 PUSH2 0x2064 JUMPI PUSH1 0x7F DUP3 AND SWAP2 POP JUMPDEST PUSH1 0x20 DUP3 LT DUP2 EQ ISZERO PUSH2 0x2078 JUMPI PUSH2 0x2077 PUSH2 0x201D JUMP JUMPDEST JUMPDEST POP SWAP2 SWAP1 POP JUMP INVALID LOG2 PUSH5 0x6970667358 0x22 SLT KECCAK256 0xA5 JUMPDEST 0xF7 0x4C BASEFEE 0x21 0xD1 STOP 0xA5 0xA9 GAS INVALID DUP15 DUP1 0xAB 0x24 PUSH16 0xC756A672DD07CD9F80AD58B1CE7B7A64 PUSH20 0x6F6C634300080900330000000000000000000000 "},"gasEstimates":{"creation":{"codeDepositCost":"1674400","executionCost":"84635","totalCost":"1759035"},"external":{"addCandidate(string,string)":"infinite","admin()":"2621","candidateCount()":"2518","candidateDetails(uint256)":"infinite","electionDetails()":"infinite","end()":"2609","endElection()":"50962","getAdmin()":"2567","getElectionDetails()":"infinite","getEnd()":"2596","getStart()":"2501","getTotalCandidate()":"2548","getTotalVoter()":"2483","registerAsVoter(string,string)":"infinite","setElectionDetails(string,string,string,string,string)":"infinite","start()":"2582","verifyVoter(bool,address)":"27187","vote(uint256)":"infinite","voterCount()":"2541","voterDetails(address)":"infinite","voters(uint256)":"5000"}},"methodIdentifiers":{"addCandidate(string,string)":"26541b56","admin()":"f851a440","candidateCount()":"a9a981a3","candidateDetails(uint256)":"6247e532","electionDetails()":"6d2f6966","end()":"efbe1c1c","endElection()":"59f78468","getAdmin()":"6e9960c3","getElectionDetails()":"ed836bc3","getEnd()":"9f05a36d","getStart()":"c5292c67","getTotalCandidate()":"64d198a1","getTotalVoter()":"0b93400e","registerAsVoter(string,string)":"fee0d19a","setElectionDetails(string,string,string,string,string)":"253e74e2","start()":"be9a6555","verifyVoter(bool,address)":"506b8e0a","vote(uint256)":"0121b93f","voterCount()":"42169e48","voterDetails(address)":"5938750d","voters(uint256)":"da58c7d9"}},"storageLayout":{"storage":[{"astId":3,"contract":"Election.sol:Election","label":"admin","offset":0,"slot":"0","type":"t_address"},{"astId":5,"contract":"Election.sol:Election","label":"candidateCount","offset":0,"slot":"1","type":"t_uint256"},{"astId":7,"contract":"Election.sol:Election","label":"voterCount","offset":0,"slot":"2","type":"t_uint256"},{"astId":9,"contract":"Election.sol:Election","label":"start","offset":0,"slot":"3","type":"t_bool"},{"astId":11,"contract":"Election.sol:Election","label":"end","offset":1,"slot":"3","type":"t_bool"},{"astId":70,"contract":"Election.sol:Election","label":"candidateDetails","offset":0,"slot":"4","type":"t_mapping(t_uint256,t_struct(Candidate)65_storage)"},{"astId":114,"contract":"Election.sol:Election","label":"electionDetails","offset":0,"slot":"5","type":"t_struct(ElectionDetails)111_storage"},{"astId":206,"contract":"Election.sol:Election","label":"voters","offset":0,"slot":"10","type":"t_array(t_address)dyn_storage"},{"astId":211,"contract":"Election.sol:Election","label":"voterDetails","offset":0,"slot":"11","type":"t_mapping(t_address,t_struct(Voter)203_storage)"}],"types":{"t_address":{"encoding":"inplace","label":"address","numberOfBytes":"20"},"t_array(t_address)dyn_storage":{"base":"t_address","encoding":"dynamic_array","label":"address[]","numberOfBytes":"32"},"t_bool":{"encoding":"inplace","label":"bool","numberOfBytes":"1"},"t_mapping(t_address,t_struct(Voter)203_storage)":{"encoding":"mapping","key":"t_address","label":"mapping(address => struct Election.Voter)","numberOfBytes":"32","value":"t_struct(Voter)203_storage"},"t_mapping(t_uint256,t_struct(Candidate)65_storage)":{"encoding":"mapping","key":"t_uint256","label":"mapping(uint256 => struct Election.Candidate)","numberOfBytes":"32","value":"t_struct(Candidate)65_storage"},"t_string_storage":{"encoding":"bytes","label":"string","numberOfBytes":"32"},"t_struct(Candidate)65_storage":{"encoding":"inplace","label":"struct Election.Candidate","members":[{"astId":58,"contract":"Election.sol:Election","label":"candidateId","offset":0,"slot":"0","type":"t_uint256"},{"astId":60,"contract":"Election.sol:Election","label":"header","offset":0,"slot":"1","type":"t_string_storage"},{"astId":62,"contract":"Election.sol:Election","label":"slogan","offset":0,"slot":"2","type":"t_string_storage"},{"astId":64,"contract":"Election.sol:Election","label":"voteCount","offset":0,"slot":"3","type":"t_uint256"}],"numberOfBytes":"128"},"t_struct(ElectionDetails)111_storage":{"encoding":"inplace","label":"struct Election.ElectionDetails","members":[{"astId":102,"contract":"Election.sol:Election","label":"adminName","offset":0,"slot":"0","type":"t_string_storage"},{"astId":104,"contract":"Election.sol:Election","label":"adminEmail","offset":0,"slot":"1","type":"t_string_storage"},{"astId":106,"contract":"Election.sol:Election","label":"adminTitle","offset":0,"slot":"2","type":"t_string_storage"},{"astId":108,"contract":"Election.sol:Election","label":"electionTitle","offset":0,"slot":"3","type":"t_string_storage"},{"astId":110,"contract":"Election.sol:Election","label":"organizationTitle","offset":0,"slot":"4","type":"t_string_storage"}],"numberOfBytes":"160"},"t_struct(Voter)203_storage":{"encoding":"inplace","label":"struct Election.Voter","members":[{"astId":192,"contract":"Election.sol:Election","label":"voterAddress","offset":0,"slot":"0","type":"t_address"},{"astId":194,"contract":"Election.sol:Election","label":"name","offset":0,"slot":"1","type":"t_string_storage"},{"astId":196,"contract":"Election.sol:Election","label":"phone","offset":0,"slot":"2","type":"t_string_storage"},{"astId":198,"contract":"Election.sol:Election","label":"isVerified","offset":0,"slot":"3","type":"t_bool"},{"astId":200,"contract":"Election.sol:Election","label":"hasVoted","offset":1,"slot":"3","type":"t_bool"},{"astId":202,"contract":"Election.sol:Election","label":"isRegistered","offset":2,"slot":"3","type":"t_bool"}],"numberOfBytes":"128"},"t_uint256":{"encoding":"inplace","label":"uint256","numberOfBytes":"32"}}},"userdoc":{"kind":"user","methods":{},"version":1}}